{
  "address": "0xe423f39BbDa08271b714b700743B2F35C98A5e17",
  "abi": [
    {
      "anonymous": false,
      "inputs": [
        {
          "indexed": true,
          "internalType": "bytes32",
          "name": "role",
          "type": "bytes32"
        },
        {
          "indexed": true,
          "internalType": "bytes32",
          "name": "previousAdminRole",
          "type": "bytes32"
        },
        {
          "indexed": true,
          "internalType": "bytes32",
          "name": "newAdminRole",
          "type": "bytes32"
        }
      ],
      "name": "RoleAdminChanged",
      "type": "event"
    },
    {
      "anonymous": false,
      "inputs": [
        {
          "indexed": true,
          "internalType": "bytes32",
          "name": "role",
          "type": "bytes32"
        },
        {
          "indexed": true,
          "internalType": "address",
          "name": "account",
          "type": "address"
        },
        {
          "indexed": true,
          "internalType": "address",
          "name": "sender",
          "type": "address"
        }
      ],
      "name": "RoleGranted",
      "type": "event"
    },
    {
      "anonymous": false,
      "inputs": [
        {
          "indexed": true,
          "internalType": "bytes32",
          "name": "role",
          "type": "bytes32"
        },
        {
          "indexed": true,
          "internalType": "address",
          "name": "account",
          "type": "address"
        },
        {
          "indexed": true,
          "internalType": "address",
          "name": "sender",
          "type": "address"
        }
      ],
      "name": "RoleRevoked",
      "type": "event"
    },
    {
      "inputs": [
        {
          "internalType": "bytes32",
          "name": "role",
          "type": "bytes32"
        }
      ],
      "name": "getRoleAdmin",
      "outputs": [
        {
          "internalType": "bytes32",
          "name": "",
          "type": "bytes32"
        }
      ],
      "stateMutability": "view",
      "type": "function"
    },
    {
      "inputs": [
        {
          "internalType": "bytes32",
          "name": "role",
          "type": "bytes32"
        },
        {
          "internalType": "address",
          "name": "account",
          "type": "address"
        }
      ],
      "name": "grantRole",
      "outputs": [],
      "stateMutability": "nonpayable",
      "type": "function"
    },
    {
      "inputs": [
        {
          "internalType": "bytes32",
          "name": "role",
          "type": "bytes32"
        },
        {
          "internalType": "address",
          "name": "account",
          "type": "address"
        }
      ],
      "name": "hasRole",
      "outputs": [
        {
          "internalType": "bool",
          "name": "",
          "type": "bool"
        }
      ],
      "stateMutability": "view",
      "type": "function"
    },
    {
      "inputs": [
        {
          "internalType": "bytes32",
          "name": "role",
          "type": "bytes32"
        },
        {
          "internalType": "address",
          "name": "account",
          "type": "address"
        }
      ],
      "name": "renounceRole",
      "outputs": [],
      "stateMutability": "nonpayable",
      "type": "function"
    },
    {
      "inputs": [
        {
          "internalType": "bytes32",
          "name": "role",
          "type": "bytes32"
        },
        {
          "internalType": "address",
          "name": "account",
          "type": "address"
        }
      ],
      "name": "revokeRole",
      "outputs": [],
      "stateMutability": "nonpayable",
      "type": "function"
    }
  ],
  "transactionHash": "0x2a6ec4194190a70984fbf4c5806cf1aea0b7969669dcce8bb627cd46db323650",
  "args": [],
  "numDeployments": 1,
  "solcInputHash": "41fcbcd5b361b708382de1dfb0ea216f",
  "bytecode": "0x60808060405234610016576106b7908161001c8239f35b600080fdfe60806040818152600436101561001457600080fd5b600091823560e01c908163248a9ca314610217575080632f2ff15d1461016857806336568abe146100e257806391d148541461009b5763d547741f1461005957600080fd5b346100975761009461006a36610252565b9080855260008051602061068b83398151915260205261008f6001858720015461027d565b6105fd565b51f35b5080fd5b50346100975760ff816020936100b036610252565b90825260008051602061068b83398151915286528282206001600160a01b039091168252855220549151911615158152f35b5034610097576100f136610252565b90336001600160a01b0383160361010c5790610094916105fd565b825162461bcd60e51b815260206004820152602f60248201527f416363657373436f6e74726f6c3a2063616e206f6e6c792072656e6f756e636560448201526e103937b632b9903337b91039b2b63360891b6064820152608490fd5b50346100975761017736610252565b81845260008051602061068b8339815191528060205261019c6001858720015461027d565b82855260208181528486206001600160a01b039093168087529290528385205460ff16156101cb575b50505051f35b828552602052828420818552602052828420600160ff1982541617905533917f2f8788117e7eff1d82e926ec794901d17c78024a50270940304540a733656f0d858551a43880806101c5565b9190503461024e57602036600319011261024e57600190602093600435815260008051602061068b83398151915285522001548152f35b8280fd5b604090600319011261027857600435906024356001600160a01b03811681036102785790565b600080fd5b600081815260209160008051602061068b8339815191528352604092838320338452815260ff8484205416156102b35750505050565b835167ffffffffffffffff93909233606085018681118682101761059f578752602a8552838501918736843785511561058b5760308353855191600192831015610577576078602188015360295b83811161050d57506104375787519060808201828110898211176104f9578952604282528582019260603685378251156104e5576030845382518110156104e557607860218401536041905b80821161047957505061043757916103cc949391889360679899519687936103a28886019a7f416363657373436f6e74726f6c3a206163636f756e74200000000000000000008c5251809260378801906105b3565b8401917001034b99036b4b9b9b4b733903937b6329607d1b603784015251809360488401906105b3565b0103602881018552601f1996879101168401968488109088111761042357509261041a60449593601f938880975262461bcd60e51b87526004870152518092816024880152878701906105b3565b01168101030190fd5b634e487b7160e01b81526041600452602490fd5b60648589519062461bcd60e51b825280600483015260248201527f537472696e67733a20686578206c656e67746820696e73756666696369656e746044820152fd5b9091600f811660108110156104d1576f181899199a1a9b1b9c1cb0b131b232b360811b901a6104a884866105d6565b5360041c9180156104bd57600019019061034d565b634e487b7160e01b87526011600452602487fd5b634e487b7160e01b88526032600452602488fd5b634e487b7160e01b86526032600452602486fd5b634e487b7160e01b86526041600452602486fd5b90600f81166010811015610563576f181899199a1a9b1b9c1cb0b131b232b360811b901a61053b838a6105d6565b5360041c90801561054f5760001901610301565b634e487b7160e01b86526011600452602486fd5b634e487b7160e01b87526032600452602487fd5b634e487b7160e01b85526032600452602485fd5b634e487b7160e01b84526032600452602484fd5b634e487b7160e01b84526041600452602484fd5b60005b8381106105c65750506000910152565b81810151838201526020016105b6565b9081518110156105e7570160200190565b634e487b7160e01b600052603260045260246000fd5b9060009180835260008051602061068b83398151915280602052604084209260018060a01b03169283855260205260ff60408520541661063e575b50505050565b818452602052604083208284526020526040832060ff1981541690557ff6391f5c32d9c69d2a47ea670b442974b53935d1edc7fd64eb21e047a839171b3393604051a43880808061063856feb0f718dd0461f98f79a268be163688a70a97977202fe15124bb3813f4359541ca164736f6c6343000810000a",
  "devdoc": {
    "kind": "dev",
    "methods": {
      "getRoleAdmin(bytes32)": {
        "details": "Returns the admin role that controls `role`. See {grantRole} and {revokeRole}. To change a role's admin, use {AccessControl-_setRoleAdmin}."
      },
      "grantRole(bytes32,address)": {
        "details": "Grants `role` to `account`. If `account` had not been already granted `role`, emits a {RoleGranted} event. Requirements: - the caller must have ``role``'s admin role."
      },
      "hasRole(bytes32,address)": {
        "details": "Returns `true` if `account` has been granted `role`."
      },
      "renounceRole(bytes32,address)": {
        "details": "Revokes `role` from the calling account. Roles are often managed via {grantRole} and {revokeRole}: this function's purpose is to provide a mechanism for accounts to lose their privileges if they are compromised (such as when a trusted device is misplaced). If the calling account had been granted `role`, emits a {RoleRevoked} event. Requirements: - the caller must be `account`."
      },
      "revokeRole(bytes32,address)": {
        "details": "Revokes `role` from `account`. If `account` had been granted `role`, emits a {RoleRevoked} event. Requirements: - the caller must have ``role``'s admin role."
      }
    },
    "version": 1
  },
  "userdoc": {
    "kind": "user",
    "methods": {},
    "version": 1
  },
  "storageLayout": {
    "storage": [],
    "types": null
  }
}