{
  "address": "0xCA74d55adeAC610Af1bef937A3952db6CB0bD22f",
  "abi": [
    {
      "anonymous": false,
      "inputs": [
        {
          "indexed": true,
          "internalType": "address",
          "name": "previousOwner",
          "type": "address"
        },
        {
          "indexed": true,
          "internalType": "address",
          "name": "newOwner",
          "type": "address"
        }
      ],
      "name": "OwnershipTransferred",
      "type": "event"
    },
    {
      "anonymous": false,
      "inputs": [
        {
          "indexed": true,
          "internalType": "bytes32",
          "name": "role",
          "type": "bytes32"
        },
        {
          "indexed": true,
          "internalType": "bytes32",
          "name": "previousAdminRole",
          "type": "bytes32"
        },
        {
          "indexed": true,
          "internalType": "bytes32",
          "name": "newAdminRole",
          "type": "bytes32"
        }
      ],
      "name": "RoleAdminChanged",
      "type": "event"
    },
    {
      "anonymous": false,
      "inputs": [
        {
          "indexed": true,
          "internalType": "bytes32",
          "name": "role",
          "type": "bytes32"
        },
        {
          "indexed": true,
          "internalType": "address",
          "name": "account",
          "type": "address"
        },
        {
          "indexed": true,
          "internalType": "address",
          "name": "sender",
          "type": "address"
        }
      ],
      "name": "RoleGranted",
      "type": "event"
    },
    {
      "anonymous": false,
      "inputs": [
        {
          "indexed": true,
          "internalType": "bytes32",
          "name": "role",
          "type": "bytes32"
        },
        {
          "indexed": true,
          "internalType": "address",
          "name": "account",
          "type": "address"
        },
        {
          "indexed": true,
          "internalType": "address",
          "name": "sender",
          "type": "address"
        }
      ],
      "name": "RoleRevoked",
      "type": "event"
    },
    {
      "inputs": [
        {
          "internalType": "address",
          "name": "admin",
          "type": "address"
        }
      ],
      "name": "grantAdminRole",
      "outputs": [],
      "stateMutability": "nonpayable",
      "type": "function"
    },
    {
      "inputs": [
        {
          "internalType": "address",
          "name": "emergency",
          "type": "address"
        }
      ],
      "name": "grantEmergencyRole",
      "outputs": [],
      "stateMutability": "nonpayable",
      "type": "function"
    },
    {
      "inputs": [
        {
          "internalType": "address",
          "name": "pauser",
          "type": "address"
        }
      ],
      "name": "grantPauserRole",
      "outputs": [],
      "stateMutability": "nonpayable",
      "type": "function"
    },
    {
      "inputs": [
        {
          "internalType": "address",
          "name": "collector",
          "type": "address"
        }
      ],
      "name": "grantRevenueRole",
      "outputs": [],
      "stateMutability": "nonpayable",
      "type": "function"
    }
  ],
  "transactionHash": "0x9c4097c08f286869650bf8b731e08f1f598a62fa9d5f47c670a290c154e66bf9",
  "args": [],
  "numDeployments": 1,
  "solcInputHash": "be9232a782139b4a70c2c17c27752f91",
  "bytecode": "0x6080806040523461001657610733908161001c8239f35b600080fdfe6040608081526004908136101561001557600080fd5b600091823560e01c80636c11c21c146102d75780637314eb0c14610257578063811a4c851461018a5763c634b78e1461004d57600080fd5b3461018657602090816003193601126101825780356001600160a01b03818116929183900361017e577fa7222481f8aff9c0b8c2a969dffbd3c91ebd3e9fb5b7b31128200b05480e8ab35416330361013b57507fa49807205ce4d355092ef5a8a18f56e8913cf4a201fbe287825b095693c2177591828552600080516020610707833981519152808252848620838752825260ff8587205416156100f057858551f35b83865281528385209082865252828420600160ff1982541617905533917f2f8788117e7eff1d82e926ec794901d17c78024a50270940304540a733656f0d858551a438808080858551f35b835162461bcd60e51b8152908101839052601d60248201527f4f776e61626c653a2073656e646572206d757374206265206f776e65720000006044820152606490fd5b8580fd5b8380fd5b8280fd5b503461018657602036600319011261018657356001600160a01b03811690819003610186576101b7610357565b7f0e35d4ae7570561654047f7701a60d89bc46c537e225bcb7df604095e67663f7908184526000805160206107078339815191528060205283852082865260205260ff84862054161561020b575b50505051f35b828552602052828420818552602052828420600160ff1982541617905533917f2f8788117e7eff1d82e926ec794901d17c78024a50270940304540a733656f0d858551a4388080610205565b503461018657602036600319011261018657356001600160a01b0381169081900361018657610284610357565b7fbf233dd2aafeb4d50879c4aa5c81e96d92f6e6945c906a58f9f2d1c1631b4b26908184526000805160206107078339815191528060205283852082865260205260ff84862054161561020b5750505051f35b503461018657602036600319011261018657356001600160a01b0381169081900361018657610304610357565b7f65d7a28e3265b37a6474929f336521b332c1681b933f6cb9f3376673440d862a908184526000805160206107078339815191528060205283852082865260205260ff84862054161561020b5750505051f35b3360009081527f179938346c9d0d47f15c493beff04da15f2603b3cb62e7f87fb5c030ea78941960209081526040808320549092917fa49807205ce4d355092ef5a8a18f56e8913cf4a201fbe287825b095693c217759160ff16156103bc5750505050565b835167ffffffffffffffff9390923360608501868111868210176106a8578752602a855283850191873684378551156106945760308353855191600192831015610680576078602188015360295b8381116106165750610540578751906080820182811089821117610602578952604282528582019260603685378251156105ee576030845382518110156105ee57607860218401536041905b80821161058257505061054057916104d5949391889360679899519687936104ab8886019a7f416363657373436f6e74726f6c3a206163636f756e74200000000000000000008c5251809260378801906106bc565b8401917001034b99036b4b9b9b4b733903937b6329607d1b603784015251809360488401906106bc565b0103602881018552601f1996879101168401968488109088111761052c57509261052360449593601f938880975262461bcd60e51b87526004870152518092816024880152878701906106bc565b01168101030190fd5b634e487b7160e01b81526041600452602490fd5b60648589519062461bcd60e51b825280600483015260248201527f537472696e67733a20686578206c656e67746820696e73756666696369656e746044820152fd5b9091600f811660108110156105da576f181899199a1a9b1b9c1cb0b131b232b360811b901a6105b184866106df565b5360041c9180156105c6576000190190610456565b634e487b7160e01b87526011600452602487fd5b634e487b7160e01b88526032600452602488fd5b634e487b7160e01b86526032600452602486fd5b634e487b7160e01b86526041600452602486fd5b90600f8116601081101561066c576f181899199a1a9b1b9c1cb0b131b232b360811b901a610644838a6106df565b5360041c908015610658576000190161040a565b634e487b7160e01b86526011600452602486fd5b634e487b7160e01b87526032600452602487fd5b634e487b7160e01b85526032600452602485fd5b634e487b7160e01b84526032600452602484fd5b634e487b7160e01b84526041600452602484fd5b60005b8381106106cf5750506000910152565b81810151838201526020016106bf565b9081518110156106f0570160200190565b634e487b7160e01b600052603260045260246000fdfeb0f718dd0461f98f79a268be163688a70a97977202fe15124bb3813f4359541ca164736f6c6343000810000a",
  "devdoc": {
    "kind": "dev",
    "methods": {},
    "version": 1
  },
  "userdoc": {
    "kind": "user",
    "methods": {},
    "version": 1
  },
  "storageLayout": {
    "storage": [],
    "types": null
  }
}