{
  "address": "0x95f2686240Ee996f8d5db5db67cee8d54f9707A7",
  "abi": [
    {
      "anonymous": false,
      "inputs": [
        {
          "indexed": false,
          "internalType": "uint256",
          "name": "timestamp",
          "type": "uint256"
        },
        {
          "indexed": false,
          "internalType": "uint256",
          "name": "amount",
          "type": "uint256"
        }
      ],
      "name": "CollectFees",
      "type": "event"
    },
    {
      "anonymous": false,
      "inputs": [
        {
          "indexed": true,
          "internalType": "bytes32",
          "name": "role",
          "type": "bytes32"
        },
        {
          "indexed": true,
          "internalType": "bytes32",
          "name": "previousAdminRole",
          "type": "bytes32"
        },
        {
          "indexed": true,
          "internalType": "bytes32",
          "name": "newAdminRole",
          "type": "bytes32"
        }
      ],
      "name": "RoleAdminChanged",
      "type": "event"
    },
    {
      "anonymous": false,
      "inputs": [
        {
          "indexed": true,
          "internalType": "bytes32",
          "name": "role",
          "type": "bytes32"
        },
        {
          "indexed": true,
          "internalType": "address",
          "name": "account",
          "type": "address"
        },
        {
          "indexed": true,
          "internalType": "address",
          "name": "sender",
          "type": "address"
        }
      ],
      "name": "RoleGranted",
      "type": "event"
    },
    {
      "anonymous": false,
      "inputs": [
        {
          "indexed": true,
          "internalType": "bytes32",
          "name": "role",
          "type": "bytes32"
        },
        {
          "indexed": true,
          "internalType": "address",
          "name": "account",
          "type": "address"
        },
        {
          "indexed": true,
          "internalType": "address",
          "name": "sender",
          "type": "address"
        }
      ],
      "name": "RoleRevoked",
      "type": "event"
    },
    {
      "inputs": [],
      "name": "collectFees",
      "outputs": [],
      "stateMutability": "nonpayable",
      "type": "function"
    }
  ],
  "transactionHash": "0x775bca20fe11ec1cc3dc2db0d200d08a62e2e0b6c0ead7bd91f62ff83c1a7dd3",
  "args": [],
  "numDeployments": 2,
  "solcInputHash": "fbc557821d286ff73a478d7cc25c408d",
  "bytecode": "0x60808060405234610016576105b7908161001c8239f35b600080fdfe608060408181526004918236101561001657600080fd5b600092833560e01c63c87965721461002d57600080fd5b346105245783600319360112610524577f0e35d4ae7570561654047f7701a60d89bc46c537e225bcb7df604095e67663f7918285526020927fb0f718dd0461f98f79a268be163688a70a97977202fe15124bb3813f4359541c8452848620338752845260ff8587205416156102125750503084527fdfc6b7cb23f07b62775a228b58db9a36de27f3d727948dc10389611c6fd1063e80835283852054919030865283528385208054908382039182116101ff57557f6153ab96f87058e42029646de88822d1a2d6637639f9e3da153f23d6da9f44af54845163a9059cbb60e01b8152338382015260248101849052908490829060449082908a906001600160a01b03165af19081156101f55786916101bb575b501561017857507f5393ab6ef9bb40d91d1b04bbbeb707fbf3d1eb73f46744e2d179e4996026283f918391825191428352820152a151f35b835162461bcd60e51b8152908101839052601d60248201527f4661696c656420746f20776974686472617720636f6c6c61746572616c0000006044820152606490fd5b90508381813d83116101ee575b6101d2818361054b565b810103126101ea575180151581036101ea5738610140565b8580fd5b503d6101c8565b85513d88823e3d90fd5b634e487b7160e01b875260118352602487fd5b859067ffffffffffffffff90336060850183811186821017610511578852602a855286850191883684378551156104fe57603083538551916001928310156104eb576078602188015360295b838111610484575061044357908851936080850190858210908211176104305789526042845287840194606036873784511561041d5760308653845182101561041d5790607860218601536041915b8183116103b2575050506103715795610341604887610363956103099561033260449b9c875198899586019b7f416363657373436f6e74726f6c3a206163636f756e74200000000000000000008d525180926037880190610528565b8401917001034b99036b4b9b9b4b733903937b6329607d1b603784015251809386840190610528565b0103602881018552018361054b565b5195869462461bcd60e51b865285015251809281602486015285850190610528565b601f01601f19168101030190fd5b60648587808a519262461bcd60e51b845283015260248201527f537472696e67733a20686578206c656e67746820696e73756666696369656e746044820152fd5b909192600f8116601081101561040a576f181899199a1a9b1b9c1cb0b131b232b360811b901a6103e28588610583565b53881c9280156103f7576000190191906102ad565b634e487b7160e01b825260118952602482fd5b634e487b7160e01b835260328a52602483fd5b634e487b7160e01b815260328852602490fd5b634e487b7160e01b865260418852602486fd5b60648789808c519262461bcd60e51b845283015260248201527f537472696e67733a20686578206c656e67746820696e73756666696369656e746044820152fd5b90600f811660108110156104d8576f181899199a1a9b1b9c1cb0b131b232b360811b901a6104b2838a610583565b53881c9080156104c5576000190161025e565b634e487b7160e01b875260118952602487fd5b634e487b7160e01b885260328a52602488fd5b634e487b7160e01b865260328852602486fd5b634e487b7160e01b855260328752602485fd5b634e487b7160e01b855260418752602485fd5b8380fd5b60005b83811061053b5750506000910152565b818101518382015260200161052b565b90601f8019910116810190811067ffffffffffffffff82111761056d57604052565b634e487b7160e01b600052604160045260246000fd5b908151811015610594570160200190565b634e487b7160e01b600052603260045260246000fdfea164736f6c6343000810000a",
  "devdoc": {
    "kind": "dev",
    "methods": {},
    "version": 1
  },
  "userdoc": {
    "kind": "user",
    "methods": {},
    "version": 1
  },
  "storageLayout": {
    "storage": [],
    "types": null
  }
}