{
  "address": "0xad9Eadc4850ec65463D0e26cF793Fc5dCc7BFcbC",
  "abi": [
    {
      "anonymous": false,
      "inputs": [
        {
          "indexed": true,
          "internalType": "address",
          "name": "party",
          "type": "address"
        },
        {
          "indexed": false,
          "internalType": "uint256",
          "name": "amount",
          "type": "uint256"
        }
      ],
      "name": "AddFreeMarginCross",
      "type": "event"
    },
    {
      "anonymous": false,
      "inputs": [
        {
          "indexed": true,
          "internalType": "address",
          "name": "party",
          "type": "address"
        },
        {
          "indexed": false,
          "internalType": "uint256",
          "name": "amount",
          "type": "uint256"
        },
        {
          "indexed": true,
          "internalType": "uint256",
          "name": "positionId",
          "type": "uint256"
        }
      ],
      "name": "AddFreeMarginIsolated",
      "type": "event"
    },
    {
      "anonymous": false,
      "inputs": [
        {
          "indexed": true,
          "internalType": "address",
          "name": "party",
          "type": "address"
        },
        {
          "indexed": false,
          "internalType": "uint256",
          "name": "amount",
          "type": "uint256"
        }
      ],
      "name": "Allocate",
      "type": "event"
    },
    {
      "anonymous": false,
      "inputs": [
        {
          "indexed": true,
          "internalType": "address",
          "name": "party",
          "type": "address"
        },
        {
          "indexed": false,
          "internalType": "uint256",
          "name": "amount",
          "type": "uint256"
        }
      ],
      "name": "Deallocate",
      "type": "event"
    },
    {
      "anonymous": false,
      "inputs": [
        {
          "indexed": true,
          "internalType": "address",
          "name": "party",
          "type": "address"
        },
        {
          "indexed": false,
          "internalType": "uint256",
          "name": "amount",
          "type": "uint256"
        }
      ],
      "name": "Deposit",
      "type": "event"
    },
    {
      "anonymous": false,
      "inputs": [
        {
          "indexed": true,
          "internalType": "address",
          "name": "party",
          "type": "address"
        },
        {
          "indexed": false,
          "internalType": "uint256",
          "name": "amount",
          "type": "uint256"
        }
      ],
      "name": "RemoveFreeMarginCross",
      "type": "event"
    },
    {
      "anonymous": false,
      "inputs": [
        {
          "indexed": true,
          "internalType": "address",
          "name": "party",
          "type": "address"
        },
        {
          "indexed": false,
          "internalType": "uint256",
          "name": "amount",
          "type": "uint256"
        }
      ],
      "name": "Withdraw",
      "type": "event"
    },
    {
      "inputs": [
        {
          "internalType": "uint256",
          "name": "amount",
          "type": "uint256"
        }
      ],
      "name": "addFreeMarginCross",
      "outputs": [],
      "stateMutability": "nonpayable",
      "type": "function"
    },
    {
      "inputs": [
        {
          "internalType": "uint256",
          "name": "amount",
          "type": "uint256"
        },
        {
          "internalType": "uint256",
          "name": "positionId",
          "type": "uint256"
        }
      ],
      "name": "addFreeMarginIsolated",
      "outputs": [],
      "stateMutability": "nonpayable",
      "type": "function"
    },
    {
      "inputs": [
        {
          "internalType": "uint256",
          "name": "amount",
          "type": "uint256"
        }
      ],
      "name": "allocate",
      "outputs": [],
      "stateMutability": "nonpayable",
      "type": "function"
    },
    {
      "inputs": [
        {
          "internalType": "uint256",
          "name": "amount",
          "type": "uint256"
        }
      ],
      "name": "deallocate",
      "outputs": [],
      "stateMutability": "nonpayable",
      "type": "function"
    },
    {
      "inputs": [
        {
          "internalType": "uint256",
          "name": "amount",
          "type": "uint256"
        }
      ],
      "name": "deallocateAndWithdraw",
      "outputs": [],
      "stateMutability": "nonpayable",
      "type": "function"
    },
    {
      "inputs": [
        {
          "internalType": "uint256",
          "name": "amount",
          "type": "uint256"
        }
      ],
      "name": "deposit",
      "outputs": [],
      "stateMutability": "nonpayable",
      "type": "function"
    },
    {
      "inputs": [
        {
          "internalType": "uint256",
          "name": "amount",
          "type": "uint256"
        }
      ],
      "name": "depositAndAllocate",
      "outputs": [],
      "stateMutability": "nonpayable",
      "type": "function"
    },
    {
      "inputs": [
        {
          "internalType": "address",
          "name": "party",
          "type": "address"
        }
      ],
      "name": "getAccountBalance",
      "outputs": [
        {
          "internalType": "uint256",
          "name": "",
          "type": "uint256"
        }
      ],
      "stateMutability": "view",
      "type": "function"
    },
    {
      "inputs": [
        {
          "internalType": "address",
          "name": "party",
          "type": "address"
        }
      ],
      "name": "getLockedMarginCross",
      "outputs": [
        {
          "internalType": "uint256",
          "name": "",
          "type": "uint256"
        }
      ],
      "stateMutability": "view",
      "type": "function"
    },
    {
      "inputs": [
        {
          "internalType": "address",
          "name": "party",
          "type": "address"
        },
        {
          "internalType": "uint256",
          "name": "positionId",
          "type": "uint256"
        }
      ],
      "name": "getLockedMarginIsolated",
      "outputs": [
        {
          "internalType": "uint256",
          "name": "",
          "type": "uint256"
        }
      ],
      "stateMutability": "view",
      "type": "function"
    },
    {
      "inputs": [
        {
          "internalType": "address",
          "name": "party",
          "type": "address"
        }
      ],
      "name": "getLockedMarginReserved",
      "outputs": [
        {
          "internalType": "uint256",
          "name": "",
          "type": "uint256"
        }
      ],
      "stateMutability": "view",
      "type": "function"
    },
    {
      "inputs": [
        {
          "internalType": "address",
          "name": "party",
          "type": "address"
        }
      ],
      "name": "getMarginBalance",
      "outputs": [
        {
          "internalType": "uint256",
          "name": "",
          "type": "uint256"
        }
      ],
      "stateMutability": "view",
      "type": "function"
    },
    {
      "inputs": [],
      "name": "removeFreeMarginCross",
      "outputs": [],
      "stateMutability": "nonpayable",
      "type": "function"
    },
    {
      "inputs": [
        {
          "internalType": "uint256",
          "name": "amount",
          "type": "uint256"
        }
      ],
      "name": "withdraw",
      "outputs": [],
      "stateMutability": "nonpayable",
      "type": "function"
    }
  ],
  "transactionHash": "0x1adc2b03fc24ad8869794b0f967badd6eb6f4cdc974949579494abec256d707b",
  "args": [],
  "numDeployments": 1,
  "solcInputHash": "d90b29cf48681035a62a283f3cda4c3c",
  "bytecode": "0x6080806040523461001657610dad908161001c8239f35b600080fdfe608060408181526004918236101561001657600080fd5b600092833560e01c918263091506981461074e575081632e1a7d4d146106dc5781636f6c441f14610690578163783bdd5e146105e95781638a7f1cda146105c357816390ca796b14610577578163918c59e6146104fc57816393423e9c146104b7578163b063a4cb14610419578163b6b55f25146103a7578163cc4a3685146102ac578163dd10ba721461019a578163ddabc862146100ef575063ef9f5785146100bf57600080fd5b346100eb5760203660031901126100eb576020906100e36100de6107a1565b610841565b549051908152f35b5080fd5b9050346101965760203660031901126101965760019035600080516020610d61833981519152906101246002835414156107bc565b600282556101328133610929565b61013c8133610c66565b83518181527fe1fffcc4923d04b559f4d29a8bfc6cda04eb5b0d3c460751c2402c5c5cc9109c60203392a283519081527f249d8eb76d5a22983620d741de2470148d1a9a26ab923aec4262770690d11ebc60203392a25551f35b8280fd5b9050346101965782600319360112610196573383527fdfc6b7cb23f07b62775a228b58db9a36de27f3d727948dc10389611c6fd1064860205281832054610279576101e433610808565b541561024457506101f433610808565b54826101ff33610808565b5561020933610841565b610214828254610906565b905581519081527f81f5a294f405837828aff0655910542d082c48d275856ce2eb82d9156f3a78ab60203392a251f35b6020606492519162461bcd60e51b8352820152601060248201526f2737903637b1b5b2b21036b0b933b4b760811b6044820152fd5b6020606492519162461bcd60e51b8352820152600e60248201526d14995b5bdd985b0819195b9a595960921b6044820152fd5b90503461019657816003193601126101965735602435908184527fdfc6b7cb23f07b62775a228b58db9a36de27f3d727948dc10389611c6fd10645602052828420610302826102fa33610841565b541015610cc4565b61030b33610841565b610316838254610b42565b905560058101546001600160a01b0390811633149061033e9082908115610397575b5061087a565b1561038257600701610351828254610906565b90555b82519081527f92e573965021fd1f0fa9bf5b3b34ef443dfe559d52c6fc359c31df2a3d6315e060203392a351f35b600801610390828254610906565b9055610354565b6006850154163314905038610338565b9050346101965760203660031901126101965760019035600080516020610d61833981519152906103dc6002835414156107bc565b600282556103ea8133610929565b83519081527fe1fffcc4923d04b559f4d29a8bfc6cda04eb5b0d3c460751c2402c5c5cc9109c60203392a25551f35b5050346100eb57806003193601126100eb576020916104366107a1565b60243582527fdfc6b7cb23f07b62775a228b58db9a36de27f3d727948dc10389611c6fd1064584528282209161048b60018060a01b03928380600587015416911680911490819482156104a7575b505061087a565b501561049d5760070154905b51908152f35b6008015490610497565b6006870154161490503880610484565b5050346100eb5760203660031901126100eb5760209181906001600160a01b036104df6107a1565b168152600080516020610d81833981519152845220549051908152f35b905034610196576020366003190112610196573561051d816102fa33610841565b61052633610841565b610531828254610b42565b905561053c33610808565b610547828254610906565b905581519081527feb6c272dce0c25208ae0b9e5bb7b8f0eb111c43e41a4fb9f6812ce8a1b0e7f2a60203392a251f35b90503461019657602036600319011261019657356105958133610c66565b81519081527f249d8eb76d5a22983620d741de2470148d1a9a26ab923aec4262770690d11ebc60203392a251f35b5050346100eb5760203660031901126100eb576020906100e36105e46107a1565b610808565b9050346101965760203660031901126101965760019035600080516020610d618339815191529061061e6002835414156107bc565b6002825561062c8133610d10565b6106368133610b4f565b83518181527fd338c9f6c5eed79757e45cc8cc8b14bce8f5413e34e2dbbe362bc914bf6c439b60203392a283519081527f884edad9ce6fa2440d8a54cc123490eb96d2768479d49ff9c7366125a942436460203392a25551f35b90503461019657602036600319011261019657356106ae8133610d10565b81519081527fd338c9f6c5eed79757e45cc8cc8b14bce8f5413e34e2dbbe362bc914bf6c439b60203392a251f35b9050346101965760203660031901126101965760019035600080516020610d61833981519152906107116002835414156107bc565b6002825561071f8133610b4f565b83519081527f884edad9ce6fa2440d8a54cc123490eb96d2768479d49ff9c7366125a942436460203392a25551f35b84908434610196576020366003190112610196576020926001600160a01b036107756107a1565b1681527fdfc6b7cb23f07b62775a228b58db9a36de27f3d727948dc10389611c6fd10641845220548152f35b600435906001600160a01b03821682036107b757565b600080fd5b156107c357565b60405162461bcd60e51b815260206004820152601f60248201527f5265656e7472616e637947756172643a207265656e7472616e742063616c6c006044820152606490fd5b6001600160a01b031660009081527fdfc6b7cb23f07b62775a228b58db9a36de27f3d727948dc10389611c6fd106406020526040902090565b6001600160a01b031660009081527fdfc6b7cb23f07b62775a228b58db9a36de27f3d727948dc10389611c6fd1063f6020526040902090565b1561088157565b60405162461bcd60e51b815260206004820152600d60248201526c496e76616c696420706172747960981b6044820152606490fd5b90601f8019910116810190811067ffffffffffffffff8211176108d857604052565b634e487b7160e01b600052604160045260246000fd5b908160209103126107b7575180151581036107b75790565b9190820180921161091357565b634e487b7160e01b600052601160045260246000fd5b7f6153ab96f87058e42029646de88822d1a2d6637639f9e3da153f23d6da9f44af54604080516370a0823160e01b81526001600160a01b0393841660048201819052919360209316908381602481855afa908115610aeb57908691600091610ab8575b5010610a74578260009160648651809481936323b872dd60e01b83528760048401523060248401528a60448401525af1908115610a6957600091610a3c575b50156109f9576109f59291600080516020610d818339815191529160005252600020918254610906565b9055565b50606491519062461bcd60e51b82526004820152601c60248201527f4661696c656420746f206465706f73697420636f6c6c61746572616c000000006044820152fd5b610a5c9150833d8511610a62575b610a5481836108b6565b8101906108ee565b386109cb565b503d610a4a565b84513d6000823e3d90fd5b835162461bcd60e51b815260048101849052601f60248201527f496e73756666696369656e7420636f6c6c61746572616c2062616c616e6365006044820152606490fd5b91508482813d8311610ae4575b610acf81836108b6565b81010312610ae157508590513861098c565b80fd5b503d610ac5565b85513d6000823e3d90fd5b15610afd57565b60405162461bcd60e51b815260206004820152601c60248201527f496e73756666696369656e74206163636f756e742062616c616e6365000000006044820152606490fd5b9190820391821161091357565b9060018060a01b03809216600091818352600080516020610d818339815191529060446020958387948552610b8a8460408920541015610af6565b858752845260408620610b9e848254610b42565b90557f6153ab96f87058e42029646de88822d1a2d6637639f9e3da153f23d6da9f44af54169385604051958694859363a9059cbb60e01b8552600485015260248401525af1918215610c5a5791610c3d575b5015610bf95750565b6064906040519062461bcd60e51b82526004820152601d60248201527f4661696c656420746f20776974686472617720636f6c6c61746572616c0000006044820152fd5b610c549150823d8411610a6257610a5481836108b6565b38610bf0565b604051903d90823e3d90fd5b610cbc6109f59160018060a01b03811680600052600080516020610d818339815191529081602052610c9f866040600020541015610af6565b6000526020526040600020610cb5858254610b42565b9055610841565b918254610906565b15610ccb57565b60405162461bcd60e51b815260206004820152601b60248201527f496e73756666696369656e74206d617267696e2062616c616e636500000000006044820152606490fd5b610d1d826102fa83610841565b610d2681610841565b610d31838254610b42565b905560018060a01b0316600052600080516020610d818339815191526020526109f5604060002091825461090656fe634f1ab318df227b41cf077c32da92a01d4f7007a23514871361a6aeab743bfddfc6b7cb23f07b62775a228b58db9a36de27f3d727948dc10389611c6fd1063ea164736f6c6343000810000a",
  "devdoc": {
    "kind": "dev",
    "methods": {},
    "version": 1
  },
  "userdoc": {
    "kind": "user",
    "methods": {},
    "version": 1
  },
  "storageLayout": {
    "storage": [],
    "types": null
  }
}