{
  "address": "0x42D7AD2dF001423D8eDFF3ddf123e9FD0B181d14",
  "abi": [
    {
      "anonymous": false,
      "inputs": [
        {
          "indexed": true,
          "internalType": "uint256",
          "name": "positionId",
          "type": "uint256"
        },
        {
          "indexed": false,
          "internalType": "address",
          "name": "partyA",
          "type": "address"
        },
        {
          "indexed": false,
          "internalType": "address",
          "name": "partyB",
          "type": "address"
        }
      ],
      "name": "CancelClosePosition",
      "type": "event"
    },
    {
      "anonymous": false,
      "inputs": [
        {
          "indexed": true,
          "internalType": "uint256",
          "name": "positionId",
          "type": "uint256"
        },
        {
          "indexed": false,
          "internalType": "address",
          "name": "partyA",
          "type": "address"
        },
        {
          "indexed": false,
          "internalType": "address",
          "name": "partyB",
          "type": "address"
        },
        {
          "indexed": false,
          "internalType": "uint256",
          "name": "amountUnits",
          "type": "uint256"
        },
        {
          "indexed": false,
          "internalType": "uint256",
          "name": "avgPriceUsd",
          "type": "uint256"
        }
      ],
      "name": "ClosePosition",
      "type": "event"
    },
    {
      "anonymous": false,
      "inputs": [
        {
          "indexed": true,
          "internalType": "uint256",
          "name": "positionId",
          "type": "uint256"
        },
        {
          "indexed": false,
          "internalType": "address",
          "name": "partyA",
          "type": "address"
        },
        {
          "indexed": false,
          "internalType": "address",
          "name": "partyB",
          "type": "address"
        }
      ],
      "name": "RequestClosePosition",
      "type": "event"
    },
    {
      "inputs": [
        {
          "internalType": "uint256",
          "name": "positionId",
          "type": "uint256"
        },
        {
          "internalType": "uint256",
          "name": "avgPriceUsd",
          "type": "uint256"
        }
      ],
      "name": "closePosition",
      "outputs": [],
      "stateMutability": "nonpayable",
      "type": "function"
    }
  ],
  "transactionHash": "0xa40bdf1acacf32f8f67ca30cb0b08c2dacdc8d40d316140527cf4c95a3881c5e",
  "args": [],
  "numDeployments": 2,
  "solcInputHash": "b2d820d028125f46e38854773365c4d5",
  "bytecode": "0x6080806040523461001657610cec908161001c8239f35b600080fdfe6080604052600436101561001257600080fd5b60003560e01c632d6ce61d1461002757600080fd5b346109e45760403660031901126109e457600435600052600080516020610cc0833981519152602052604060002061005d6109f3565b9080548252600181015460208301526002810154604083015260038101546001600160801b03198160801b16606084015260ff8160801c169060068210156106f85760ff91608085015260881c166100b4816109e9565b60a083810191909152600482015460c084015260058201546001600160a01b0390811660e08501526006830154908116610100850152901c60ff166100f8816109e9565b610120830152600781015461014083015260088101546101608301526009810154610180830152600a8101546101a0830152600b8101546101c0830152600c8101546101e0830152600d810154610200830152600e01546001600160a01b0316610220820152608081015160068110156106f85760010361099f576101008101516001600160a01b0316330361096a576040015160006040610198610a2a565b82815282602082015201526101ab610a2a565b818152602435806020830152604082015281600052600080516020610cc083398151915260205260406000209060ff600683015460a01c166101ec816109e9565b6109605760208101515b6002830154916040602082015191015183600052600080516020610cc083398151915260205260406000209161022a6109f3565b8354815260018401546020820152600284015460408201526003840154936001600160801b03198560801b166060830152600660ff8660801c1610156106f85760ff858161034c9760801c16608085015260881c16610288816109e9565b60a083810191909152600482015460c084015260058201546001600160a01b0390811660e08501526006830154908116610100850152901c60ff16916102cd836109e9565b82610120820152600782015461014082015260088201546101608201526009820154610180820152600a8201546101a0820152600b8201546101c0820152600c820154906101e08101918252610220600d840154936102008301948552600e60018060a01b0391015416910152610343836109e9565b51905191610b62565b509160ff600385015460881c16610362816109e9565b61070e57506002830154600052600080516020610cc0833981519152602052604060002061038e6109f3565b908054825260018101546020830152600281015460408301526003810154936001600160801b03198560801b166060840152600660ff8660801c1610156106f85760ff8581809760801c16608086015260881c166103eb816109e9565b60a084810191909152600483015460c085015260058301546001600160a01b0390811660e086015260068401549081166101008601908152911c8616610430816109e9565b61012085015260078301546101408501908152600884015461016086019081526009850154610180870152600a8501546101a0870152600b8501546101c0870152600c8501546101e0870152600d850154610200870152600e909401546001600160a01b031661022086015260a08501519092906104c0906104b1816109e9565b6104ba816109e9565b15610c6e565b600081126106b157835181106106755750506104e6610502926104fa9251905190610a4a565b60e0909301516001600160a01b0316610aa6565b918254610a4a565b90555b610518600a840154600b85015490610a4a565b6005840154610533906104fa906001600160a01b0316610aa6565b9055610548600a840154600b85015490610a4a565b6006840154610563906104fa906001600160a01b0316610aa6565b905560018060a01b03600584015416937fef840a96f8fa93fec64a62047a497404bc8379701ebd29bc40b4dd131fe4ec3f608060018060a01b03600687015416600c8701948554604051928a8452602084015260408301526060820152a26000600160821b8360801b1960038601541617918260038601555542600184015560881c166105ef816109e9565b61063b57600581015461062d925061060f906001600160a01b0316610adf565b6106198154610b18565b9055600601546001600160a01b0316610adf565b6106378154610b18565b9055005b61062d916000527fdfc6b7cb23f07b62775a228b58db9a36de27f3d727948dc10389611c6fd1064860205260406000206106198154610b18565b6106aa9361069a92956106926104fa6104e6856104fa9851610a4a565b905551610cb2565b92516001600160a01b0316610aa6565b9055610505565b6106bd90949194610b51565b825181106106db57505061069a6106aa926104fa9251905190610a4a565b6104fa926104e692956106926104fa61069a856106aa9951610a4a565b634e487b7160e01b600052602160045260246000fd5b600052600080516020610cc083398151915260205260406000206107306109f3565b908054825260018101546020830152600281015460408301526003810154936001600160801b03198560801b166060840152600660ff8660801c1610156106f85760ff8581809760801c16608086015261078e828260881c166109e9565b60881c1660a084810191909152600483015460c085015260058301546001600160a01b0390811660e08601526006840154908116610100860152901c85166107d5816109e9565b6101208401526007820154610140840152600882015461016084019081526009830154610180850152600a8301546101a0850152600b8301546101c0850152600c8301546101e0850152600d830154610200850152600e909201546001600160a01b031661022084015260a083015161086390600190610854816109e9565b61085d816109e9565b14610c6e565b60e08301516101008401516001600160a01b039182169116600083126108eb575050815181106108ab57505160e0909101516106aa906104fa906001600160a01b0316610aa6565b6108d66104fa916106aa936108cb60018060a01b0360e088015116610aa6565b610692838254610a4a565b610100909301516001600160a01b0316610aa6565b92916108f8919450610b51565b61090184610a6d565b54811061093f575091610939916109326104fa61092c60009661092386610a6d565b54905190610a4a565b92610aa6565b9055610a6d565b55610505565b926106aa926109326104fa61092c876109589651610a4a565b918254610cb2565b60408101516101f6565b60405162461bcd60e51b815260206004820152600d60248201526c496e76616c696420706172747960981b6044820152606490fd5b60405162461bcd60e51b815260206004820152601f60248201527f4f74686572206d6f646573206e6f7420696d706c656d656e74656420796574006044820152606490fd5b600080fd5b600211156106f857565b60405190610240820182811067ffffffffffffffff821117610a1457604052565b634e487b7160e01b600052604160045260246000fd5b604051906060820182811067ffffffffffffffff821117610a1457604052565b91908201809211610a5757565b634e487b7160e01b600052601160045260246000fd5b6001600160a01b031660009081527fdfc6b7cb23f07b62775a228b58db9a36de27f3d727948dc10389611c6fd106406020526040902090565b6001600160a01b031660009081527fdfc6b7cb23f07b62775a228b58db9a36de27f3d727948dc10389611c6fd1063f6020526040902090565b6001600160a01b031660009081527fdfc6b7cb23f07b62775a228b58db9a36de27f3d727948dc10389611c6fd106476020526040902090565b8015610a57576000190190565b8060001904821181151516610a57570290565b81810392916000138015828513169184121617610a5757565b600160ff1b8114610a575760000390565b9390939291928415610c6157610b77816109e9565b610bf157508015610bac57610b98670de0b6b3a764000091610b9e94610b25565b04610b38565b905b610ba982610b51565b90565b60405162461bcd60e51b815260206004820152601a60248201527f4f7261636c6520626964507269636520697320696e76616c69640000000000006044820152606490fd5b80915015610c1c57610c0f670de0b6b3a764000091610c1694610b25565b0490610b38565b90610ba0565b60405162461bcd60e51b815260206004820152601a60248201527f4f7261636c652061736b507269636520697320696e76616c69640000000000006044820152606490fd5b5050505050600090600090565b15610c7557565b60405162461bcd60e51b8152602060048201526015602482015274496e76616c696420706f736974696f6e207479706560581b6044820152606490fd5b91908203918211610a575756fedfc6b7cb23f07b62775a228b58db9a36de27f3d727948dc10389611c6fd10645a164736f6c6343000810000a",
  "devdoc": {
    "kind": "dev",
    "methods": {},
    "version": 1
  },
  "userdoc": {
    "kind": "user",
    "methods": {},
    "version": 1
  },
  "storageLayout": {
    "storage": [],
    "types": null
  }
}