{
  "address": "0xc28c8ee1407dD06887C3B4470425B521C2D9Df8b",
  "abi": [
    {
      "anonymous": false,
      "inputs": [
        {
          "indexed": true,
          "internalType": "uint256",
          "name": "positionId",
          "type": "uint256"
        },
        {
          "indexed": false,
          "internalType": "address",
          "name": "partyA",
          "type": "address"
        },
        {
          "indexed": false,
          "internalType": "address",
          "name": "partyB",
          "type": "address"
        }
      ],
      "name": "CancelCloseMarket",
      "type": "event"
    },
    {
      "anonymous": false,
      "inputs": [
        {
          "indexed": true,
          "internalType": "uint256",
          "name": "positionId",
          "type": "uint256"
        },
        {
          "indexed": false,
          "internalType": "address",
          "name": "partyA",
          "type": "address"
        },
        {
          "indexed": false,
          "internalType": "address",
          "name": "partyB",
          "type": "address"
        },
        {
          "indexed": false,
          "internalType": "uint256",
          "name": "amountUnits",
          "type": "uint256"
        },
        {
          "indexed": false,
          "internalType": "uint256",
          "name": "avgPriceUsd",
          "type": "uint256"
        }
      ],
      "name": "ClosePosition",
      "type": "event"
    },
    {
      "anonymous": false,
      "inputs": [
        {
          "indexed": true,
          "internalType": "uint256",
          "name": "positionId",
          "type": "uint256"
        },
        {
          "indexed": false,
          "internalType": "address",
          "name": "partyA",
          "type": "address"
        },
        {
          "indexed": false,
          "internalType": "address",
          "name": "partyB",
          "type": "address"
        }
      ],
      "name": "RequestCloseMarket",
      "type": "event"
    },
    {
      "anonymous": false,
      "inputs": [
        {
          "indexed": true,
          "internalType": "bytes32",
          "name": "role",
          "type": "bytes32"
        },
        {
          "indexed": true,
          "internalType": "bytes32",
          "name": "previousAdminRole",
          "type": "bytes32"
        },
        {
          "indexed": true,
          "internalType": "bytes32",
          "name": "newAdminRole",
          "type": "bytes32"
        }
      ],
      "name": "RoleAdminChanged",
      "type": "event"
    },
    {
      "anonymous": false,
      "inputs": [
        {
          "indexed": true,
          "internalType": "bytes32",
          "name": "role",
          "type": "bytes32"
        },
        {
          "indexed": true,
          "internalType": "address",
          "name": "account",
          "type": "address"
        },
        {
          "indexed": true,
          "internalType": "address",
          "name": "sender",
          "type": "address"
        }
      ],
      "name": "RoleGranted",
      "type": "event"
    },
    {
      "anonymous": false,
      "inputs": [
        {
          "indexed": true,
          "internalType": "bytes32",
          "name": "role",
          "type": "bytes32"
        },
        {
          "indexed": true,
          "internalType": "address",
          "name": "account",
          "type": "address"
        },
        {
          "indexed": true,
          "internalType": "address",
          "name": "sender",
          "type": "address"
        }
      ],
      "name": "RoleRevoked",
      "type": "event"
    },
    {
      "inputs": [
        {
          "internalType": "uint256",
          "name": "positionId",
          "type": "uint256"
        },
        {
          "internalType": "uint256",
          "name": "priceUsd",
          "type": "uint256"
        }
      ],
      "name": "emergencyClosePosition",
      "outputs": [],
      "stateMutability": "nonpayable",
      "type": "function"
    },
    {
      "inputs": [
        {
          "internalType": "uint256[]",
          "name": "positionIds",
          "type": "uint256[]"
        },
        {
          "internalType": "uint256[]",
          "name": "pricesUsd",
          "type": "uint256[]"
        }
      ],
      "name": "emergencyClosePositions",
      "outputs": [],
      "stateMutability": "nonpayable",
      "type": "function"
    }
  ],
  "transactionHash": "0xf3c43c60f5f12e0a3360303fc93b6636794c53addf6c5e8f21ebef7d59454063",
  "args": [],
  "numDeployments": 1,
  "solcInputHash": "d90b29cf48681035a62a283f3cda4c3c",
  "bytecode": "0x6080806040523461001657611a75908161001c8239f35b600080fdfe6080604052600436101561001257600080fd5b60003560e01c80634de9760b14610a995763ef443f321461003257600080fd5b34610a94576040366003190112610a945767ffffffffffffffff600435818111610a9457610064903690600401611396565b91602435908111610a945761007d903690600401611396565b929091610088611420565b60005b82811061009457005b61009f818484611a18565b356100ab828787611a18565b35906100b5611420565b600052600080516020611a2983398151915260205260406000206040516100db816113d1565b8154815260018201546020820152600282015460408201526003820154916001600160801b03198360801b166060830152600660ff8460801c1610156108165760ff838160409560801c166080850152610139828260881c166113c7565b60881c1660a0830152600481015460c083015260018060a01b0360058201541660e083015260ff600682015460018060a01b038116610100850152610182828260a01c166113c7565b60a01c16610120830152600781015461014083015260088101546101608301526009810154610180830152600a8101546101a0830152600b8101546101c0830152600c8101546101e0830152600d810154610200830152600e01546001600160a01b03166102208201520151604080519192916000919061020281611404565b82815282602082015201526040519061021a82611404565b828252806020830152604082015281600052600080516020611a2983398151915260205260406000209060ff600683015460a01c16610258816113c7565b610a89576020810151915b6002810154916040602082015191015183600052600080516020611a2983398151915260205260406000209160405161029b816113d1565b8354815260018401546020820152600284015460408201526003840154936001600160801b03198560801b166060830152600660ff8660801c1610156108165760ff85816103ce9760801c16608085015260881c166102f9816113c7565b60a0830152600481015460c083015260018060a01b0360058201541660e083015260ff60068201549260018060a01b03841661010082015261033f828560a01c166113c7565b60a084901c82166101208201819052600784015461014083015260088401546101608301526009840154610180830152600a8401546101a0830152600b8401546101c0830152600c8401546101e08301908152600d8501546102008401908152600e909501546001600160a01b0316610220909301929092526103c1906113c7565b5191519260a01c166118bb565b509160ff600383015460881c166103e4816113c7565b61082c57506002810154600052600080516020611a29833981519152602052604060002092604051610415816113d1565b8454815260018501546020820152600285015460408201526003850154936001600160801b03198560801b166060830152600660ff8660801c16101561081657600080516020611a498339815191529560ff8681608098891c1688860152610481828260881c166113c7565b60881c1660a084810191909152600482015460c085015260058201546001600160a01b0390811660e08601526006830154908116610100860152901c60ff166104c9816113c7565b610120840152600781015461014084015260088101546101608401526009810154610180840152600a8101546101a0840152600b8101546101c0840152600c8101546101e0840152600d810154610200840152600e01546001600160a01b031661022083015260a082015161055090610541816113c7565b61054a816113c7565b156119c7565b600081126107a3576101608201518110610746575061059c610594610580610140840151610160850151906117a5565b60e0909301516001600160a01b031661181f565b9182546117a5565b90555b6105b2600a830154600b840154906117a5565b60058301546105cd90610594906001600160a01b031661181f565b90556105e2600a830154600b840154906117a5565b60068301546105fd90610594906001600160a01b031661181f565b9055600160821b60ff841b196003840154161780600384015560ff600c8401916000835542600186015560881c16610634816113c7565b6106d757600583015461064f906001600160a01b0316611858565b61065981546117d9565b90556006830154610672906001600160a01b0316611858565b61067c81546117d9565b90555b60058301546006909301549054604080516001600160a01b039586168152949092166020850152908301526060820152a260001981146106c15760010161008b565b634e487b7160e01b600052601160045260246000fd5b60058301546001600160a01b031660009081527fdfc6b7cb23f07b62775a228b58db9a36de27f3d727948dc10389611c6fd106486020526040902061071c81546117d9565b90556006830154610735906001600160a01b0316611858565b61073f81546117d9565b905561067f565b6105946107878261075f61079c946101408701516117a5565b60e086015161077a90610594906001600160a01b031661181f565b9055610160850151611a0b565b610100909301516001600160a01b031661181f565b905561059f565b6107ac906118aa565b61014082015181106107d4575061079c610594610787610140840151610160850151906117a5565b610594610580826107ed61079c946101608701516117a5565b61010086015161080990610594906001600160a01b031661181f565b9055610140850151611a0b565b634e487b7160e01b600052602160045260246000fd5b600052600080516020611a29833981519152602052604060002092604051610853816113d1565b8454815260018501546020820152600285015460408201526003850154936001600160801b03198560801b166060830152600660ff8660801c16101561081657600080516020611a498339815191529560ff8681608098891c16888601526108bf828260881c166113c7565b60881c1660a084810191909152600482015460c085015260058201546001600160a01b0390811660e08601526006830154908116610100860152901c60ff16610907816113c7565b610120840152600781015461014084015260088101546101608401526009810154610180840152600a8101546101a0840152600b8101546101c0840152600c8101546101e0840152600d810154610200840152600e01546001600160a01b031661022083015260a082015161099190600190610982816113c7565b61098b816113c7565b146119c7565b60e08201516101008301516001600160a01b03918216911660008312610a0c57505061016082015181106109e2575061016081015160e09091015161079c90610594906001600160a01b031661181f565b61059461078761079c92610a0160018060a01b0360e08701511661181f565b61077a8282546117a5565b91610a19909391936118aa565b610a22846117e6565b548110610a64575091610a5e91610a57610594610a51600096610160610a47876117e6565b54910151906117a5565b9261181f565b90556117e6565b5561059f565b9261079c92610a57610594610a5187610160610a819701516117a5565b918254611a0b565b604081015191610263565b600080fd5b34610a94576040366003190112610a9457610ab2611420565b600435600052600080516020611a298339815191526020526040600020604051610adb816113d1565b8154815260018201546020820152600282015460408201526003820154916001600160801b03198360801b16606083015260ff8360801c1660068110156108165760409360ff916080850152610b35828260881c166113c7565b60881c1660a083810191909152600482015460c084015260058201546001600160a01b0390811660e08501526006830154908116610100850152901c60ff16610b7d816113c7565b610120830152600781015461014083015260088101546101608301526009810154610180830152600a8101546101a0830152600b8101546101c0830152600c8101546101e0830152600d810154610200830152600e01546001600160a01b031661022082015201516040805160009190610bf681611404565b8281528260208201520152604051610c0d81611404565b818152602435806020830152604082015281600052600080516020611a29833981519152602052604060002060ff600682015460a01c16610c4d816113c7565b61138b576020820151905b6002810154926040602082015191015184600052600080516020611a29833981519152602052604060002091604051610c90816113d1565b8354815260018401546020820152600284015460408201526003840154936001600160801b03198560801b166060830152600660ff8660801c1610156108165760ff8581610db29760801c16608085015260881c16610cee816113c7565b60a083810191909152600482015460c084015260058201546001600160a01b0390811660e08501526006830154908116610100850152901c60ff1691610d33836113c7565b82610120820152600782015461014082015260088201546101608201526009820154610180820152600a8201546101a0820152600b8201546101c0820152600c820154906101e08101918252610220600d840154936102008301948552600e60018060a01b0391015416910152610da9836113c7565b519051916118bb565b509260ff600383015460881c16610dc8816113c7565b61115e57506002810154600052600080516020611a29833981519152602052604060002091604051610df9816113d1565b8354815260018401546020820152600284015460408201526003840154936001600160801b03198560801b166060830152600660ff8660801c16101561081657600080516020611a498339815191529560ff8681608098891c1688860152610e65828260881c166113c7565b60881c1660a084810191909152600483015460c085015260058301546001600160a01b0390811660e086015260068401549081166101008601908152911c60ff16610eaf816113c7565b61012085015260078301546101408501908152600884015461016086019081526009850154610180870152600a8501546101a0870152600b8501546101c0870152600c8501546101e0870152600d850154610200870152600e909401546001600160a01b031661022086015260a0850151909290610f3090610541816113c7565b6000811261111757835181106110db575050610580610f569261059492519051906117a5565b90555b610f6c600a830154600b840154906117a5565b6005830154610f8790610594906001600160a01b031661181f565b9055610f9c600a830154600b840154906117a5565b6006830154610fb790610594906001600160a01b031661181f565b9055600160821b60ff841b196003840154161780600384015560ff600c8401916000835542600186015560881c16610fee816113c7565b61106c576005830154611009906001600160a01b0316611858565b61101381546117d9565b9055600683015461102c906001600160a01b0316611858565b61103681546117d9565b90555b60058301546006909301549054604080516001600160a01b039586168152949092166020850152908301526060820152a2005b60058301546001600160a01b031660009081527fdfc6b7cb23f07b62775a228b58db9a36de27f3d727948dc10389611c6fd10648602052604090206110b181546117d9565b905560068301546110ca906001600160a01b0316611858565b6110d481546117d9565b9055611039565b6111109361110092956110f86105946105808561059498516117a5565b905551611a0b565b92516001600160a01b031661181f565b9055610f59565b611123909491946118aa565b825181106111415750506111006111109261059492519051906117a5565b6105949261058092956110f86105946111008561111099516117a5565b600052600080516020611a29833981519152602052604060002091604051611185816113d1565b8354815260018401546020820152600284015460408201526003840154936001600160801b03198560801b166060830152600660ff8660801c16101561081657600080516020611a498339815191529560ff8681608098891c16888601526111f1828260881c166113c7565b60881c1660a084810191909152600483015460c085015260058301546001600160a01b0390811660e08601526006840154908116610100860152901c60ff16611239816113c7565b6101208401526007820154610140840152600882015461016084019081526009830154610180850152600a8301546101a0850152600b8301546101c0850152600c8301546101e0850152600d830154610200850152600e909201546001600160a01b031661022084015260a08301516112b890600190610982816113c7565b60e08301516101008401516001600160a01b0391821691166000831261132b5750508151811061130057505160e09091015161111090610594906001600160a01b031661181f565b610787610594916111109361132060018060a01b0360e08801511661181f565b6110f88382546117a5565b92916113389194506118aa565b611341846117e6565b54811061137257509161136c91610a57610594610a51600096611363866117e6565b549051906117a5565b55610f59565b9261111092610a57610594610a5187610a8196516117a5565b604082015190610c58565b9181601f84011215610a945782359167ffffffffffffffff8311610a94576020808501948460051b010111610a9457565b6002111561081657565b610240810190811067ffffffffffffffff8211176113ee57604052565b634e487b7160e01b600052604160045260246000fd5b6060810190811067ffffffffffffffff8211176113ee57604052565b3360009081527fc24b0380516e2bbd2e80d00074986e40adf2f5e008ba2089e0b5fc722e3f86b960209081526040808320549092917fbf233dd2aafeb4d50879c4aa5c81e96d92f6e6945c906a58f9f2d1c1631b4b269160ff16156114855750505050565b339284519261149384611404565b602a8452828401908636833784511561175b5760308253845195600196871015611747576078602187015360295b87811161170557506116c357865167ffffffffffffffff969160808201888111838210176116af5789526042825285820192606036853782511561169b5760308453825181101561169b57607860218401536041905b80821161164357505061160157916115969493918893606798995196879361156c8886019a7f416363657373436f6e74726f6c3a206163636f756e74200000000000000000008c52518092603788019061176f565b8401917001034b99036b4b9b9b4b733903937b6329607d1b6037840152518093604884019061176f565b0103602881018552601f199687910116840196848810908811176115ed5750926115e460449593601f938880975262461bcd60e51b875260048701525180928160248801528787019061176f565b01168101030190fd5b634e487b7160e01b81526041600452602490fd5b60648589519062461bcd60e51b825280600483015260248201527f537472696e67733a20686578206c656e67746820696e73756666696369656e746044820152fd5b9091600f811660108110156116875761168191906f181899199a1a9b1b9c1cb0b131b232b360811b901a61167785876117b2565b5360041c926117d9565b90611517565b634e487b7160e01b88526032600452602488fd5b634e487b7160e01b86526032600452602486fd5b634e487b7160e01b86526041600452602486fd5b60648488519062461bcd60e51b825280600483015260248201527f537472696e67733a20686578206c656e67746820696e73756666696369656e746044820152fd5b90600f8116601081101561169b5761174291906f181899199a1a9b1b9c1cb0b131b232b360811b901a611738848a6117b2565b5360041c916117d9565b6114c1565b634e487b7160e01b84526032600452602484fd5b634e487b7160e01b83526032600452602483fd5b60005b8381106117825750506000910152565b8181015183820152602001611772565b80600019048211811515166106c1570290565b919082018092116106c157565b9081518110156117c3570160200190565b634e487b7160e01b600052603260045260246000fd5b80156106c1576000190190565b6001600160a01b031660009081527fdfc6b7cb23f07b62775a228b58db9a36de27f3d727948dc10389611c6fd106406020526040902090565b6001600160a01b031660009081527fdfc6b7cb23f07b62775a228b58db9a36de27f3d727948dc10389611c6fd1063f6020526040902090565b6001600160a01b031660009081527fdfc6b7cb23f07b62775a228b58db9a36de27f3d727948dc10389611c6fd106476020526040902090565b818103929160001380158285131691841216176106c157565b600160ff1b81146106c15760000390565b93909392919284156119ba576118d0816113c7565b61194a57508015611905576118f1670de0b6b3a7640000916118f794611792565b04611891565b905b611902826118aa565b90565b60405162461bcd60e51b815260206004820152601a60248201527f4f7261636c6520626964507269636520697320696e76616c69640000000000006044820152606490fd5b8091501561197557611968670de0b6b3a76400009161196f94611792565b0490611891565b906118f9565b60405162461bcd60e51b815260206004820152601a60248201527f4f7261636c652061736b507269636520697320696e76616c69640000000000006044820152606490fd5b5050505050600090600090565b156119ce57565b60405162461bcd60e51b8152602060048201526015602482015274496e76616c696420706f736974696f6e207479706560581b6044820152606490fd5b919082039182116106c157565b91908110156117c35760051b019056fedfc6b7cb23f07b62775a228b58db9a36de27f3d727948dc10389611c6fd10645ef840a96f8fa93fec64a62047a497404bc8379701ebd29bc40b4dd131fe4ec3fa164736f6c6343000810000a",
  "devdoc": {
    "kind": "dev",
    "methods": {},
    "version": 1
  },
  "userdoc": {
    "kind": "user",
    "methods": {},
    "version": 1
  },
  "storageLayout": {
    "storage": [],
    "types": null
  }
}