{
  "address": "0x3Ca5498dc3E7BF81b07961a5B84Cb5a9298e26fE",
  "abi": [
    {
      "anonymous": false,
      "inputs": [
        {
          "indexed": true,
          "internalType": "uint256",
          "name": "positionId",
          "type": "uint256"
        },
        {
          "indexed": false,
          "internalType": "address",
          "name": "partyA",
          "type": "address"
        },
        {
          "indexed": false,
          "internalType": "address",
          "name": "partyB",
          "type": "address"
        }
      ],
      "name": "CancelClosePosition",
      "type": "event"
    },
    {
      "anonymous": false,
      "inputs": [
        {
          "indexed": true,
          "internalType": "uint256",
          "name": "positionId",
          "type": "uint256"
        },
        {
          "indexed": false,
          "internalType": "address",
          "name": "partyA",
          "type": "address"
        },
        {
          "indexed": false,
          "internalType": "address",
          "name": "partyB",
          "type": "address"
        },
        {
          "indexed": false,
          "internalType": "uint256",
          "name": "amountUnits",
          "type": "uint256"
        },
        {
          "indexed": false,
          "internalType": "uint256",
          "name": "avgPriceUsd",
          "type": "uint256"
        }
      ],
      "name": "ClosePosition",
      "type": "event"
    },
    {
      "anonymous": false,
      "inputs": [
        {
          "indexed": true,
          "internalType": "uint256",
          "name": "positionId",
          "type": "uint256"
        },
        {
          "indexed": false,
          "internalType": "address",
          "name": "partyA",
          "type": "address"
        },
        {
          "indexed": false,
          "internalType": "address",
          "name": "partyB",
          "type": "address"
        }
      ],
      "name": "RequestClosePosition",
      "type": "event"
    },
    {
      "inputs": [
        {
          "internalType": "uint256",
          "name": "positionId",
          "type": "uint256"
        }
      ],
      "name": "cancelCloseMarket",
      "outputs": [],
      "stateMutability": "nonpayable",
      "type": "function"
    },
    {
      "inputs": [
        {
          "internalType": "uint256",
          "name": "positionId",
          "type": "uint256"
        }
      ],
      "name": "requestCloseMarket",
      "outputs": [],
      "stateMutability": "nonpayable",
      "type": "function"
    },
    {
      "inputs": [
        {
          "internalType": "uint256[]",
          "name": "positionIds",
          "type": "uint256[]"
        }
      ],
      "name": "requestCloseMarketAll",
      "outputs": [],
      "stateMutability": "nonpayable",
      "type": "function"
    }
  ],
  "transactionHash": "0x1f9b4e5328d294694b6e547548a9fcd90f11b10b24b8cfac9918c2592435dfcf",
  "args": [],
  "numDeployments": 2,
  "solcInputHash": "b4117a041158fa318d5755e4dfb2e9a9",
  "bytecode": "0x6080806040523461001657610470908161001c8239f35b600080fdfe6040608081526004908136101561001557600080fd5b600091823560e01c80630130cf25146100fb57806385b59566146100dc5763f0acde871461004257600080fd5b346100d85760203660031901126100d85780359067ffffffffffffffff908183116100d457366023840112156100d457828101359182116100d4576024926005368585831b840101116100d057865b84811061009d57878751f35b6100ad8682841b85010135610309565b60001981146100be57600101610091565b634e487b7160e01b8852601184528588fd5b8680fd5b8480fd5b8280fd5b50346100d85760203660031901126100d8576100f89035610309565b51f35b50346100d85760203660031901126100d85780358084527fdfc6b7cb23f07b62775a228b58db9a36de27f3d727948dc10389611c6fd10645602052828420600581015491926001600160a01b03926101569084163314610227565b6003820180549160ff8360801c169060068210156102145750927fbb8393addc1cadc2462ed38e7745e4d18e2eb854ba7e7087a2b94c3edf3faff294926006926101a5600161020e9714610263565b60018301916101e16101da84547f6153ab96f87058e42029646de88822d1a2d6637639f9e3da153f23d6da9f44b354906102a8565b42116102cb565b60ff60801b191690554290550154855133815291166001600160a01b031660208201529081906040820190565b0390a251f35b634e487b7160e01b895260219052602488fd5b1561022e57565b60405162461bcd60e51b815260206004820152600d60248201526c496e76616c696420706172747960981b6044820152606490fd5b1561026a57565b60405162461bcd60e51b8152602060048201526016602482015275496e76616c696420706f736974696f6e20737461746560501b6044820152606490fd5b919082018092116102b557565b634e487b7160e01b600052601160045260246000fd5b156102d257565b60405162461bcd60e51b815260206004820152600f60248201526e14995c5d595cdd08151a5b595bdd5d608a1b6044820152606490fd5b60008181527fdfc6b7cb23f07b62775a228b58db9a36de27f3d727948dc10389611c6fd106456020526040812060058101546001600160a01b0392906103529084163314610227565b600382019081549060ff8260801c169060068210158061044f5782158015610442575b61037e90610263565b61042e5750927f86ef0f1ebb24f464ad20b501fa68f347518798b7f26773bee446446194e632c2949260069260016103f196146103f6575b60ff60801b1916600160801b1790554260018201550154604080513381526001600160a01b0393909216929092166020820152918291820190565b0390a2565b6104296101da60018501547f6153ab96f87058e42029646de88822d1a2d6637639f9e3da153f23d6da9f44b354906102a8565b6103b6565b634e487b7160e01b81526021600452602490fd5b5081905060018314610375565b634e487b7160e01b82526021600452602482fdfea164736f6c6343000810000a",
  "devdoc": {
    "kind": "dev",
    "methods": {},
    "version": 1
  },
  "userdoc": {
    "kind": "user",
    "methods": {},
    "version": 1
  },
  "storageLayout": {
    "storage": [],
    "types": null
  }
}