{
  "address": "0x07A450f557803d3159Bf60908f18279D367DCCbB",
  "abi": [
    {
      "anonymous": false,
      "inputs": [
        {
          "indexed": true,
          "internalType": "bytes32",
          "name": "role",
          "type": "bytes32"
        },
        {
          "indexed": true,
          "internalType": "bytes32",
          "name": "previousAdminRole",
          "type": "bytes32"
        },
        {
          "indexed": true,
          "internalType": "bytes32",
          "name": "newAdminRole",
          "type": "bytes32"
        }
      ],
      "name": "RoleAdminChanged",
      "type": "event"
    },
    {
      "anonymous": false,
      "inputs": [
        {
          "indexed": true,
          "internalType": "bytes32",
          "name": "role",
          "type": "bytes32"
        },
        {
          "indexed": true,
          "internalType": "address",
          "name": "account",
          "type": "address"
        },
        {
          "indexed": true,
          "internalType": "address",
          "name": "sender",
          "type": "address"
        }
      ],
      "name": "RoleGranted",
      "type": "event"
    },
    {
      "anonymous": false,
      "inputs": [
        {
          "indexed": true,
          "internalType": "bytes32",
          "name": "role",
          "type": "bytes32"
        },
        {
          "indexed": true,
          "internalType": "address",
          "name": "account",
          "type": "address"
        },
        {
          "indexed": true,
          "internalType": "address",
          "name": "sender",
          "type": "address"
        }
      ],
      "name": "RoleRevoked",
      "type": "event"
    },
    {
      "anonymous": false,
      "inputs": [
        {
          "indexed": false,
          "internalType": "uint256",
          "name": "oldCVA",
          "type": "uint256"
        },
        {
          "indexed": false,
          "internalType": "uint256",
          "name": "newCVA",
          "type": "uint256"
        }
      ],
      "name": "SetCVA",
      "type": "event"
    },
    {
      "anonymous": false,
      "inputs": [
        {
          "indexed": false,
          "internalType": "address",
          "name": "oldAddress",
          "type": "address"
        },
        {
          "indexed": false,
          "internalType": "address",
          "name": "newAddress",
          "type": "address"
        }
      ],
      "name": "SetCollateral",
      "type": "event"
    },
    {
      "anonymous": false,
      "inputs": [
        {
          "indexed": false,
          "internalType": "uint256",
          "name": "oldFee",
          "type": "uint256"
        },
        {
          "indexed": false,
          "internalType": "uint256",
          "name": "newFee",
          "type": "uint256"
        }
      ],
      "name": "SetLiquidationFee",
      "type": "event"
    },
    {
      "anonymous": false,
      "inputs": [
        {
          "indexed": false,
          "internalType": "uint256",
          "name": "oldMax",
          "type": "uint256"
        },
        {
          "indexed": false,
          "internalType": "uint256",
          "name": "newMax",
          "type": "uint256"
        }
      ],
      "name": "SetMaxOpenPositionsCross",
      "type": "event"
    },
    {
      "anonymous": false,
      "inputs": [
        {
          "indexed": false,
          "internalType": "uint256",
          "name": "oldShare",
          "type": "uint256"
        },
        {
          "indexed": false,
          "internalType": "uint256",
          "name": "newShare",
          "type": "uint256"
        }
      ],
      "name": "SetProtocolLiquidationShare",
      "type": "event"
    },
    {
      "anonymous": false,
      "inputs": [
        {
          "indexed": false,
          "internalType": "uint256",
          "name": "oldTimeout",
          "type": "uint256"
        },
        {
          "indexed": false,
          "internalType": "uint256",
          "name": "newTimeout",
          "type": "uint256"
        }
      ],
      "name": "SetRequestTimeout",
      "type": "event"
    },
    {
      "inputs": [
        {
          "internalType": "uint256",
          "name": "cva",
          "type": "uint256"
        }
      ],
      "name": "setCVA",
      "outputs": [],
      "stateMutability": "nonpayable",
      "type": "function"
    },
    {
      "inputs": [
        {
          "internalType": "address",
          "name": "collateral",
          "type": "address"
        }
      ],
      "name": "setCollateral",
      "outputs": [],
      "stateMutability": "nonpayable",
      "type": "function"
    },
    {
      "inputs": [
        {
          "internalType": "uint256",
          "name": "liquidationFee",
          "type": "uint256"
        }
      ],
      "name": "setLiquidationFee",
      "outputs": [],
      "stateMutability": "nonpayable",
      "type": "function"
    },
    {
      "inputs": [
        {
          "internalType": "uint256",
          "name": "maxOpenPositionsCross",
          "type": "uint256"
        }
      ],
      "name": "setMaxOpenPositionsCross",
      "outputs": [],
      "stateMutability": "nonpayable",
      "type": "function"
    },
    {
      "inputs": [
        {
          "internalType": "uint256",
          "name": "protocolLiquidationShare",
          "type": "uint256"
        }
      ],
      "name": "setProtocolLiquidationShare",
      "outputs": [],
      "stateMutability": "nonpayable",
      "type": "function"
    },
    {
      "inputs": [
        {
          "internalType": "uint256",
          "name": "requestTimeout",
          "type": "uint256"
        }
      ],
      "name": "setRequestTimeout",
      "outputs": [],
      "stateMutability": "nonpayable",
      "type": "function"
    }
  ],
  "transactionHash": "0xfb268e5713b35169f4291aeaff1dd997401f36cbd1b2a36f9c69bc38c5c546da",
  "args": [],
  "numDeployments": 1,
  "solcInputHash": "be9232a782139b4a70c2c17c27752f91",
  "bytecode": "0x608080604052346100165761078e908161001c8239f35b600080fdfe6040608081526004908136101561001557600080fd5b600091823560e01c806311ece8be146102d95780634c01def91461026957806355d11bbd146101f4578063622b6af414610184578063886abef5146100ec5763fef0bec81461006357600080fd5b346100e85760203660031901126100e8573561007d61034e565b828251610089816106d6565b527f6153ab96f87058e42029646de88822d1a2d6637639f9e3da153f23d6da9f44b07f2269fe6da82c5d2558278b4a621b780489253dc5525f8018d88ca2cbe7525243836100d7835461072f565b518151908152846020820152a15551f35b8280fd5b50346100e85760203660031901126100e8576001600160a01b039035818116908190036101805761011b61034e565b7f6153ab96f87058e42029646de88822d1a2d6637639f9e3da153f23d6da9f44af917fc014372ec26955520fec1ee7ca4daa1932b4516e76358e128bf235fa087a78f28484549281519084168152846020820152a16001600160a01b03191617905551f35b8380fd5b50346100e85760203660031901126100e8573561019f61034e565b7f6153ab96f87058e42029646de88822d1a2d6637639f9e3da153f23d6da9f44b37fc238b3188780f23508db2203b892569346b3f5d1d48b79701991b7644fce92708382548151908152846020820152a15551f35b50346100e85760203660031901126100e8573561020f61034e565b82825161021b816106d6565b527f6153ab96f87058e42029646de88822d1a2d6637639f9e3da153f23d6da9f44b17f0dfd0d552136df32fadfceba8123828ca23fd143c9044a7c69e9dcc6fd64b6dd836100d7835461072f565b50346100e85760203660031901126100e8573561028461034e565b7f6153ab96f87058e42029646de88822d1a2d6637639f9e3da153f23d6da9f44b47f3bff72adfba809e062b1243f2f2b725f68fad80fce020e393d373d2283b240a28382548151908152846020820152a15551f35b50346100e85760203660031901126100e857356102f461034e565b828251610300816106d6565b527f6153ab96f87058e42029646de88822d1a2d6637639f9e3da153f23d6da9f44b27ffa1ec327fe9fa3b30e2ef00d043642fe30fcdbde549663b2e7b7864a72bb7474836100d7835461072f565b3360009081527f179938346c9d0d47f15c493beff04da15f2603b3cb62e7f87fb5c030ea78941960209081526040808320549092917fa49807205ce4d355092ef5a8a18f56e8913cf4a201fbe287825b095693c217759160ff16156103b35750505050565b835167ffffffffffffffff93909233606085018681118682101761069f578752602a8552838501918736843785511561068b5760308353855191600192831015610677576078602188015360295b83811161060d57506105375787519060808201828110898211176105f9578952604282528582019260603685378251156105e5576030845382518110156105e557607860218401536041905b80821161057957505061053757916104cc949391889360679899519687936104a28886019a7f416363657373436f6e74726f6c3a206163636f756e74200000000000000000008c5251809260378801906106b3565b8401917001034b99036b4b9b9b4b733903937b6329607d1b603784015251809360488401906106b3565b0103602881018552601f1996879101168401968488109088111761052357509261051a60449593601f938880975262461bcd60e51b87526004870152518092816024880152878701906106b3565b01168101030190fd5b634e487b7160e01b81526041600452602490fd5b60648589519062461bcd60e51b825280600483015260248201527f537472696e67733a20686578206c656e67746820696e73756666696369656e746044820152fd5b9091600f811660108110156105d1576f181899199a1a9b1b9c1cb0b131b232b360811b901a6105a88486610708565b5360041c9180156105bd57600019019061044d565b634e487b7160e01b87526011600452602487fd5b634e487b7160e01b88526032600452602488fd5b634e487b7160e01b86526032600452602486fd5b634e487b7160e01b86526041600452602486fd5b90600f81166010811015610663576f181899199a1a9b1b9c1cb0b131b232b360811b901a61063b838a610708565b5360041c90801561064f5760001901610401565b634e487b7160e01b86526011600452602486fd5b634e487b7160e01b87526032600452602487fd5b634e487b7160e01b85526032600452602485fd5b634e487b7160e01b84526032600452602484fd5b634e487b7160e01b84526041600452602484fd5b60005b8381106106c65750506000910152565b81810151838201526020016106b6565b6020810190811067ffffffffffffffff8211176106f257604052565b634e487b7160e01b600052604160045260246000fd5b908151811015610719570160200190565b634e487b7160e01b600052603260045260246000fd5b600060405161073d816106d6565b52670de0b6b3a7640000816000190481118215151661076b578060405192610764846106d6565b0204815290565b634e487b7160e01b600052601160045260246000fdfea164736f6c6343000810000a",
  "devdoc": {
    "kind": "dev",
    "methods": {},
    "version": 1
  },
  "userdoc": {
    "kind": "user",
    "methods": {},
    "version": 1
  },
  "storageLayout": {
    "storage": [],
    "types": null
  }
}