{
  "address": "0x6cCdf66FB3E35563683eDFCb37Af7776320EbBe3",
  "abi": [
    {
      "inputs": [],
      "name": "getCVA",
      "outputs": [
        {
          "internalType": "uint256",
          "name": "",
          "type": "uint256"
        }
      ],
      "stateMutability": "view",
      "type": "function"
    },
    {
      "inputs": [],
      "name": "getCollateral",
      "outputs": [
        {
          "internalType": "address",
          "name": "",
          "type": "address"
        }
      ],
      "stateMutability": "view",
      "type": "function"
    },
    {
      "inputs": [],
      "name": "getLiquidationFee",
      "outputs": [
        {
          "internalType": "uint256",
          "name": "",
          "type": "uint256"
        }
      ],
      "stateMutability": "view",
      "type": "function"
    },
    {
      "inputs": [],
      "name": "getMaxOpenPositionsCross",
      "outputs": [
        {
          "internalType": "uint256",
          "name": "",
          "type": "uint256"
        }
      ],
      "stateMutability": "view",
      "type": "function"
    },
    {
      "inputs": [],
      "name": "getPercentBase",
      "outputs": [
        {
          "internalType": "uint256",
          "name": "",
          "type": "uint256"
        }
      ],
      "stateMutability": "pure",
      "type": "function"
    },
    {
      "inputs": [],
      "name": "getPrecision",
      "outputs": [
        {
          "internalType": "uint256",
          "name": "",
          "type": "uint256"
        }
      ],
      "stateMutability": "pure",
      "type": "function"
    },
    {
      "inputs": [],
      "name": "getProtocolLiquidationShare",
      "outputs": [
        {
          "internalType": "uint256",
          "name": "",
          "type": "uint256"
        }
      ],
      "stateMutability": "view",
      "type": "function"
    },
    {
      "inputs": [],
      "name": "getRequestTimeout",
      "outputs": [
        {
          "internalType": "uint256",
          "name": "",
          "type": "uint256"
        }
      ],
      "stateMutability": "view",
      "type": "function"
    }
  ],
  "transactionHash": "0x66b73e1372d58c9c300c7c532e3918268850e6205832820e3f608af5080698d0",
  "args": [],
  "numDeployments": 1,
  "solcInputHash": "be9232a782139b4a70c2c17c27752f91",
  "bytecode": "0x60808060405234610016576102c7908161001c8239f35b600080fdfe604060808152600436101561001357600080fd5b600090813560e01c80630c6ec6d9146101f35780632e4cd05a146101b657806355192dac146100c95780635c1548fb1461016f578063670f90e41461013257806386111fae146100eb5780639670c0bc146100c95763fbf419841461007757600080fd5b346100c557816003193601126100c55760209161009261023a565b526100bd7f6153ab96f87058e42029646de88822d1a2d6637639f9e3da153f23d6da9f44b054610270565b519051908152f35b5080fd5b50346100c557816003193601126100c55760209051670de0b6b3a76400008152f35b50346100c557816003193601126100c55760209161010761023a565b526100bd7f6153ab96f87058e42029646de88822d1a2d6637639f9e3da153f23d6da9f44b154610270565b50346100c557816003193601126100c5576020907f6153ab96f87058e42029646de88822d1a2d6637639f9e3da153f23d6da9f44b4549051908152f35b50346100c557816003193601126100c5577f6153ab96f87058e42029646de88822d1a2d6637639f9e3da153f23d6da9f44af5490516001600160a01b039091168152602090f35b50346100c557816003193601126100c5576020907f6153ab96f87058e42029646de88822d1a2d6637639f9e3da153f23d6da9f44b3549051908152f35b50346100c557816003193601126100c55760209161020f61023a565b526100bd7f6153ab96f87058e42029646de88822d1a2d6637639f9e3da153f23d6da9f44b254610270565b604051906020820182811067ffffffffffffffff82111761025a57604052565b634e487b7160e01b600052604160045260246000fd5b600061027a61023a565b52670de0b6b3a764000081600019048111821515166102a4578061029c61023a565b920204815290565b634e487b7160e01b600052601160045260246000fdfea164736f6c6343000810000a",
  "devdoc": {
    "kind": "dev",
    "methods": {},
    "version": 1
  },
  "userdoc": {
    "kind": "user",
    "methods": {},
    "version": 1
  },
  "storageLayout": {
    "storage": [],
    "types": null
  }
}