{
  "address": "0xa1fDC6f05dcde5d3F4A0f2AB19b6AD3B21690889",
  "abi": [
    {
      "anonymous": false,
      "inputs": [
        {
          "indexed": true,
          "internalType": "bytes32",
          "name": "role",
          "type": "bytes32"
        },
        {
          "indexed": true,
          "internalType": "bytes32",
          "name": "previousAdminRole",
          "type": "bytes32"
        },
        {
          "indexed": true,
          "internalType": "bytes32",
          "name": "newAdminRole",
          "type": "bytes32"
        }
      ],
      "name": "RoleAdminChanged",
      "type": "event"
    },
    {
      "anonymous": false,
      "inputs": [
        {
          "indexed": true,
          "internalType": "bytes32",
          "name": "role",
          "type": "bytes32"
        },
        {
          "indexed": true,
          "internalType": "address",
          "name": "account",
          "type": "address"
        },
        {
          "indexed": true,
          "internalType": "address",
          "name": "sender",
          "type": "address"
        }
      ],
      "name": "RoleGranted",
      "type": "event"
    },
    {
      "anonymous": false,
      "inputs": [
        {
          "indexed": true,
          "internalType": "bytes32",
          "name": "role",
          "type": "bytes32"
        },
        {
          "indexed": true,
          "internalType": "address",
          "name": "account",
          "type": "address"
        },
        {
          "indexed": true,
          "internalType": "address",
          "name": "sender",
          "type": "address"
        }
      ],
      "name": "RoleRevoked",
      "type": "event"
    },
    {
      "inputs": [
        {
          "internalType": "address",
          "name": "targetMasterAgreement",
          "type": "address"
        },
        {
          "internalType": "bytes",
          "name": "data",
          "type": "bytes"
        }
      ],
      "name": "callMasterAgreementSigner",
      "outputs": [],
      "stateMutability": "payable",
      "type": "function"
    }
  ],
  "transactionHash": "0x6d6254c76ea358fc541d11b0c88145b60a1c5b1d4352c96dcbb2f539380feaa1",
  "args": [],
  "numDeployments": 1,
  "solcInputHash": "5cc730696c04a8345c5cf355cd485c4c",
  "bytecode": "0x6080806040523461001657610636908161001c8239f35b600080fdfe6080604052600436101561001257600080fd5b6000803560e01c63918e72831461002857600080fd5b6040366003190112610099576004356001600160a01b0381168103610095576024359067ffffffffffffffff90818311610091573660238401121561009157826004013591821161009157366024838501011161009157602461008c93019061009c565b604051f35b8380fd5b5080fd5b80fd5b9291906100a761052e565b6001600160a01b031660008181527f0bb6a6ade9086eeae1e10e5fabfdef9f509adafcabde3305cdbbeb44e2ec1703602052604090205490949060ff16156100f6576100f49394506104cf565b565b846100ff610327565b90603061010b83610379565b5360786101178361038f565b5360295b600181116101c9576101c56101826101ad8561013786156103e2565b61019f61014261042d565b61017c60405195869461017c602087016017907f416363657373436f6e74726f6c3a206163636f756e742000000000000000000081520190565b9061023b565b7001034b99036b4b9b9b4b733903937b6329607d1b815260110190565b03601f1981018352826102ae565b60405162461bcd60e51b8152918291600483016102d0565b0390fd5b9080600f6102069216601081101561020b575b6f181899199a1a9b1b9c1cb0b131b232b360811b901a6101fc84866103a0565b5360041c916103bf565b61011b565b610213610362565b6101dc565b60005b83811061022b5750506000910152565b818101518382015260200161021b565b9061024e60209282815194859201610218565b0190565b50634e487b7160e01b600052604160045260246000fd5b6040810190811067ffffffffffffffff82111761028557604052565b61028d610252565b604052565b6080810190811067ffffffffffffffff82111761028557604052565b90601f8019910116810190811067ffffffffffffffff82111761028557604052565b604091602082526102f08151809281602086015260208686019101610218565b601f01601f1916010190565b60209067ffffffffffffffff811161031a575b601f01601f19160190565b610322610252565b61030f565b604051906060820182811067ffffffffffffffff821117610355575b604052602a8252604082602036910137565b61035d610252565b610343565b50634e487b7160e01b600052603260045260246000fd5b602090805115610387570190565b61024e610362565b602190805160011015610387570190565b9060209180518210156103b257010190565b6103ba610362565b010190565b80156103cc576000190190565b634e487b7160e01b600052601160045260246000fd5b156103e957565b606460405162461bcd60e51b815260206004820152602060248201527f537472696e67733a20686578206c656e67746820696e73756666696369656e746044820152fd5b6040517fe2f4eaae4a9751e85a3e4a7b9587827a877f29914755229b07a7b2da98285f7061045a82610292565b604282526060366020840137603061047183610379565b53607861047d8361038f565b536041905b60018211610498576104959150156103e2565b90565b80600f6104c99216601081101561020b576f181899199a1a9b1b9c1cb0b131b232b360811b901a6101fc84866103a0565b90610482565b60009283928160405192839283378101848152039134905af13d15610526573d906104f9826102fc565b9161050760405193846102ae565b82523d6000602084013e5b1561051a5750565b6101ad6101c59161056f565b606090610512565b7f019ba45a7698f35665571a35d6bdeafc28bded06b4f8713bcdd23743873f3ebe546001600160a01b0316330361056b5736601319013560601c90565b3390565b60448151106105ef576004810151810190602081602484019303126105ea5760248101519067ffffffffffffffff82116105ea5701816043820112156105ea5760248101516105bd816102fc565b926105cb60405194856102ae565b818452604482840101116105ea57610495916044602085019101610218565b600080fd5b506040516105fc81610269565b601d81527f5472616e73616374696f6e2072657665727465642073696c656e746c7900000060208201529056fea164736f6c6343000810000a",
  "devdoc": {
    "kind": "dev",
    "methods": {},
    "version": 1
  },
  "userdoc": {
    "kind": "user",
    "methods": {},
    "version": 1
  },
  "storageLayout": {
    "storage": [],
    "types": null
  }
}