{
  "address": "0x6ef32D75E85e32e176A3FC87d6b04E8FBC79b7f7",
  "abi": [
    {
      "anonymous": false,
      "inputs": [
        {
          "indexed": true,
          "internalType": "address",
          "name": "hedger",
          "type": "address"
        },
        {
          "indexed": false,
          "internalType": "uint256",
          "name": "timestamp",
          "type": "uint256"
        }
      ],
      "name": "Enlist",
      "type": "event"
    },
    {
      "inputs": [],
      "name": "enlist",
      "outputs": [
        {
          "components": [
            {
              "internalType": "address",
              "name": "addr",
              "type": "address"
            }
          ],
          "internalType": "struct Hedger",
          "name": "hedger",
          "type": "tuple"
        }
      ],
      "stateMutability": "nonpayable",
      "type": "function"
    },
    {
      "inputs": [
        {
          "internalType": "address",
          "name": "_hedger",
          "type": "address"
        }
      ],
      "name": "getHedgerByAddress",
      "outputs": [
        {
          "internalType": "bool",
          "name": "success",
          "type": "bool"
        },
        {
          "components": [
            {
              "internalType": "address",
              "name": "addr",
              "type": "address"
            }
          ],
          "internalType": "struct Hedger",
          "name": "hedger",
          "type": "tuple"
        }
      ],
      "stateMutability": "view",
      "type": "function"
    },
    {
      "inputs": [],
      "name": "getHedgers",
      "outputs": [
        {
          "components": [
            {
              "internalType": "address",
              "name": "addr",
              "type": "address"
            }
          ],
          "internalType": "struct Hedger[]",
          "name": "hedgerList",
          "type": "tuple[]"
        }
      ],
      "stateMutability": "view",
      "type": "function"
    },
    {
      "inputs": [],
      "name": "getHedgersLength",
      "outputs": [
        {
          "internalType": "uint256",
          "name": "length",
          "type": "uint256"
        }
      ],
      "stateMutability": "view",
      "type": "function"
    }
  ],
  "transactionHash": "0xd73016411c926ae704d6c415bff8c6369537085597d139d1339c80041323ec84",
  "args": [],
  "numDeployments": 1,
  "solcInputHash": "be9232a782139b4a70c2c17c27752f91",
  "bytecode": "0x608080604052346100165761048c908161001c8239f35b600080fdfe6040608081526004908136101561001557600080fd5b600091823560e01c9081631a120481146102495781638b9bf154146101d25781638e17e6721461008f575063abac43ac1461004f57600080fd5b3461008b578160031936011261008b576020907f384062a99499d8d9927d649ae9d11b36f5aa216d4c273609f3156fb5f5cfdc09549051908152f35b5080fd5b8391503461008b578160031936011261008b577f384062a99499d8d9927d649ae9d11b36f5aa216d4c273609f3156fb5f5cfdc099182549067ffffffffffffffff8083116101bf57855193600584901b603f01601f19168501918211858310176101ac5750855281835292835260209392848301929091827ff970b6702c63c22f8bbcf706780454e4c039fcdc4515bd56dc14c1a9fe61dfa3855b83831061017a575050505083519485948186019282875251809352850193925b82811061015957505050500390f35b8351516001600160a01b03168552869550938101939281019260010161014a565b600189819261018d9b9897999a9b610410565b838060a01b03865416815281520192019201919097969593949761012a565b634e487b7160e01b835260419052602482fd5b634e487b7160e01b825260418452602482fd5b8391503461008b57602036600319011261008b576001600160a01b0390358181168103610245576102169083610206610410565b5283610210610410565b52610446565b9181610220610410565b93541680845261023c57915b8351921515835251166020820152f35b5060019161022c565b8280fd5b83833461008b578160031936011261008b5781610264610410565b5233156103dc576001600160a01b0390338261027f82610446565b5416146103a25761028e610410565b923384526102be8461029f33610446565b905181546001600160a01b0319166001600160a01b0391909116179055565b7f384062a99499d8d9927d649ae9d11b36f5aa216d4c273609f3156fb5f5cfdc098054916801000000000000000083101561038f576001830180835583101561037c575283517ff970b6702c63c22f8bbcf706780454e4c039fcdc4515bd56dc14c1a9fe61dfa390910180546001600160a01b0319166001600160a01b03929092169190911790556020935080514281527fda14b6ae972704c02b82267def02d758f6bcd90cc58ff960966dbe77831e1351853392a2519151168152f35b634e487b7160e01b815260328752602490fd5b634e487b7160e01b815260418752602490fd5b5162461bcd60e51b8152602081850152601560248201527448656467657220616c72656164792065786973747360581b6044820152606490fd5b5162461bcd60e51b8152602081840152600f60248201526e496e76616c6964206164647265737360881b6044820152606490fd5b604051906020820182811067ffffffffffffffff82111761043057604052565b634e487b7160e01b600052604160045260246000fd5b6001600160a01b031660009081527f384062a99499d8d9927d649ae9d11b36f5aa216d4c273609f3156fb5f5cfdc08602052604090209056fea164736f6c6343000810000a",
  "devdoc": {
    "kind": "dev",
    "methods": {},
    "version": 1
  },
  "userdoc": {
    "kind": "user",
    "methods": {},
    "version": 1
  },
  "storageLayout": {
    "storage": [],
    "types": null
  }
}