{
  "address": "0x3399857619e8EDc256B6Dd8d161737E2CDf0c32a",
  "abi": [
    {
      "anonymous": false,
      "inputs": [
        {
          "indexed": true,
          "internalType": "address",
          "name": "previousOwner",
          "type": "address"
        },
        {
          "indexed": true,
          "internalType": "address",
          "name": "newOwner",
          "type": "address"
        }
      ],
      "name": "OwnershipTransferred",
      "type": "event"
    },
    {
      "inputs": [
        {
          "internalType": "address",
          "name": "masterAgreement",
          "type": "address"
        },
        {
          "internalType": "address",
          "name": "collateral",
          "type": "address"
        }
      ],
      "name": "addMasterAgreement",
      "outputs": [],
      "stateMutability": "nonpayable",
      "type": "function"
    },
    {
      "inputs": [
        {
          "internalType": "address",
          "name": "masterAgreement",
          "type": "address"
        },
        {
          "internalType": "uint256",
          "name": "amount",
          "type": "uint256"
        }
      ],
      "name": "allocate",
      "outputs": [],
      "stateMutability": "nonpayable",
      "type": "function"
    },
    {
      "inputs": [
        {
          "internalType": "address",
          "name": "targetMasterAgreement",
          "type": "address"
        },
        {
          "internalType": "bytes",
          "name": "data",
          "type": "bytes"
        }
      ],
      "name": "callMasterAgreementOwner",
      "outputs": [],
      "stateMutability": "payable",
      "type": "function"
    },
    {
      "inputs": [
        {
          "internalType": "address",
          "name": "masterAgreement",
          "type": "address"
        },
        {
          "internalType": "uint256",
          "name": "amount",
          "type": "uint256"
        }
      ],
      "name": "deallocate",
      "outputs": [],
      "stateMutability": "nonpayable",
      "type": "function"
    },
    {
      "inputs": [
        {
          "internalType": "address",
          "name": "masterAgreement",
          "type": "address"
        },
        {
          "internalType": "uint256",
          "name": "amount",
          "type": "uint256"
        }
      ],
      "name": "deallocateAndWithdraw",
      "outputs": [],
      "stateMutability": "nonpayable",
      "type": "function"
    },
    {
      "inputs": [
        {
          "internalType": "address",
          "name": "masterAgreement",
          "type": "address"
        },
        {
          "internalType": "uint256",
          "name": "amount",
          "type": "uint256"
        }
      ],
      "name": "deposit",
      "outputs": [],
      "stateMutability": "nonpayable",
      "type": "function"
    },
    {
      "inputs": [
        {
          "internalType": "address",
          "name": "masterAgreement",
          "type": "address"
        },
        {
          "internalType": "uint256",
          "name": "amount",
          "type": "uint256"
        }
      ],
      "name": "depositAndAllocate",
      "outputs": [],
      "stateMutability": "nonpayable",
      "type": "function"
    },
    {
      "inputs": [
        {
          "internalType": "address",
          "name": "masterAgreement",
          "type": "address"
        }
      ],
      "name": "getCollateral",
      "outputs": [
        {
          "internalType": "address",
          "name": "",
          "type": "address"
        }
      ],
      "stateMutability": "view",
      "type": "function"
    },
    {
      "inputs": [
        {
          "internalType": "address",
          "name": "masterAgreement",
          "type": "address"
        }
      ],
      "name": "isMasterAgreement",
      "outputs": [
        {
          "internalType": "bool",
          "name": "",
          "type": "bool"
        }
      ],
      "stateMutability": "view",
      "type": "function"
    },
    {
      "inputs": [
        {
          "internalType": "address",
          "name": "masterAgreement",
          "type": "address"
        },
        {
          "internalType": "address",
          "name": "collateral",
          "type": "address"
        }
      ],
      "name": "updateCollateral",
      "outputs": [],
      "stateMutability": "nonpayable",
      "type": "function"
    },
    {
      "inputs": [
        {
          "internalType": "address",
          "name": "masterAgreement",
          "type": "address"
        },
        {
          "internalType": "uint256",
          "name": "amount",
          "type": "uint256"
        }
      ],
      "name": "withdraw",
      "outputs": [],
      "stateMutability": "nonpayable",
      "type": "function"
    },
    {
      "inputs": [],
      "name": "withdrawETH",
      "outputs": [],
      "stateMutability": "nonpayable",
      "type": "function"
    }
  ],
  "transactionHash": "0x094ec5219f37ee1709ef5fe0745d96796ef617430b108eead18db93e67fabca4",
  "args": [],
  "numDeployments": 1,
  "solcInputHash": "5cc730696c04a8345c5cf355cd485c4c",
  "bytecode": "0x6080806040523461001657610f01908161001c8239f35b600080fdfe60806040526004361015610013575b600080fd5b60003560e01c80631173d7ce14610103578063196bcfc0146100fa57806329ff1308146100f157806330efbe20146100e857806347e7ef24146100df57806359db9eb0146100d65780639b56d6c9146100cd578063b78b52df146100c4578063cd3d8f01146100bb578063d9a9accb146100b2578063e086e5ec146100a95763f3fef3a3146100a157600080fd5b61000e61071d565b5061000e610687565b5061000e61060b565b5061000e610542565b5061000e6104d1565b5061000e61049b565b5061000e61042a565b5061000e6103b9565b5061000e610326565b5061000e61022d565b5061000e61016a565b5061000e610138565b600435906001600160a01b038216820361000e57565b602435906001600160a01b038216820361000e57565b503461000e57602036600319011261000e57602060ff61015e61015961010c565b61078e565b54166040519015158152f35b50604036600319011261000e5761017f61010c565b60243567ffffffffffffffff9182821161000e573660238301121561000e57816004013592831161000e57366024848401011161000e5760246000939284936101e060018060a01b03600080516020610ed583398151915254163314610800565b806040519384930183378101848152039134905af16101fd610b3c565b901561020557005b61021161022991610e1f565b60405162461bcd60e51b815291829160048301610c45565b0390fd5b503461000e57604036600319011261000e5761024761010c565b61024f610122565b9061027260018060a01b03600080516020610ed583398151915254163314610800565b60ff61027d8261078e565b5416156102bb57816102b46102b993610295846107c7565b80546001600160a01b0319166001600160a01b03909216919091179055565b61084c565b005b60405162461bcd60e51b815260206004820152601e60248201527f4d617374657241677265656d656e7420646f6573206e6f7420657869737400006044820152606490fd5b604090600319011261000e576004356001600160a01b038116810361000e579060243590565b503461000e5761033536610300565b600080516020610ed5833981519152546000928392916001600160a01b0391906103629083163314610800565b16803b156103b557602483926040519485938492633c1deeaf60e11b845260048401525af180156103a8575b610399575b50604051f35b6103a29061093d565b38610393565b6103b06109ab565b61038e565b5050fd5b503461000e576103c836610300565b600080516020610ed5833981519152546000928392916001600160a01b0391906103f59083163314610800565b16803b156103b55760248392604051948593849263b6b55f2560e01b845260048401525af180156103a8576103995750604051f35b503461000e5761043936610300565b600080516020610ed5833981519152546000928392916001600160a01b0391906104669083163314610800565b16803b156103b557602483926040519485938492636f6c441f60e01b845260048401525af180156103a8576103995750604051f35b503461000e57602036600319011261000e5760206001600160a01b036104c76104c261010c565b6107c7565b5416604051908152f35b503461000e576104e036610300565b600080516020610ed5833981519152546000928392916001600160a01b03919061050d9083163314610800565b16803b156103b5576024839260405194859384926390ca796b60e01b845260048401525af180156103a8576103995750604051f35b503461000e57604036600319011261000e5761055c61010c565b610564610122565b9061058760018060a01b03600080516020610ed583398151915254163314610800565b60ff6105928261078e565b54166105c6576105c1816102b9936105a98261078e565b805460ff191660011790556102b481610295846107c7565b610d2b565b60405162461bcd60e51b815260206004820152601e60248201527f4d617374657241677265656d656e7420616c72656164792065786973747300006044820152606490fd5b503461000e5761061a36610300565b600080516020610ed5833981519152546000928392916001600160a01b0391906106479083163314610800565b16803b156103b557602483926040519485938492636ed5e43160e11b845260048401525af180156103a8576103995750604051f35b600091031261000e57565b503461000e5760008060031936011261071a57600080516020610ed5833981519152548190819081906001600160a01b03166106c4338214610800565b47604051915af16106d3610b3c565b50156106de57604051f35b60405162461bcd60e51b81526020600482015260146024820152732330b4b632b2103a379039b2b7321022ba3432b960611b6044820152606490fd5b80fd5b503461000e5761072c36610300565b600080516020610ed5833981519152546000928392916001600160a01b0391906107599083163314610800565b16803b156103b557602483926040519485938492632e1a7d4d60e01b845260048401525af180156103a8576103995750604051f35b6001600160a01b031660009081527f56864fc417ad9d57bfe3d7eb59ef81d3a7990ac33d9fb0584608b9f930c45b6c6020526040902090565b6001600160a01b031660009081527f56864fc417ad9d57bfe3d7eb59ef81d3a7990ac33d9fb0584608b9f930c45b6d6020526040902090565b1561080757565b60405162461bcd60e51b815260206004820152601d60248201527f4f776e61626c653a2073656e646572206d757374206265206f776e65720000006044820152606490fd5b604051636eb1769f60e11b81523060048201526001600160a01b0383811660248301526108e9936108d693909116916108e491906108a490602081604481885afa908115610919575b6000916108eb575b50156109b8565b60405163095ea7b360e01b60208201526001600160a01b03909116602482015260001960448201529283906064820190565b03601f19810184528361097a565b610a4e565b565b61090c915060203d8111610912575b610904818361097a565b81019061099c565b3861089d565b503d6108fa565b6109216109ab565b610895565b50634e487b7160e01b600052604160045260246000fd5b67ffffffffffffffff811161095157604052565b610959610926565b604052565b6040810190811067ffffffffffffffff82111761095157604052565b90601f8019910116810190811067ffffffffffffffff82111761095157604052565b9081602091031261000e575190565b506040513d6000823e3d90fd5b156109bf57565b60405162461bcd60e51b815260206004820152603660248201527f5361666545524332303a20617070726f76652066726f6d206e6f6e2d7a65726f60448201527520746f206e6f6e2d7a65726f20616c6c6f77616e636560501b6064820152608490fd5b60209067ffffffffffffffff8111610a41575b601f01601f19160190565b610a49610926565b610a36565b60018060a01b031690610aad604051610a668161095e565b6020938482527f5361666545524332303a206c6f772d6c6576656c2063616c6c206661696c6564858301526000808587829751910182855af1610aa7610b3c565b91610b6c565b805180610abb575b50505050565b81849181010312610b38578201519081159182150361071a5750610ae157808080610ab5565b6084906040519062461bcd60e51b82526004820152602a60248201527f5361666545524332303a204552433230206f7065726174696f6e20646964206e6044820152691bdd081cdd58d8d9595960b21b6064820152fd5b5080fd5b3d15610b67573d90610b4d82610a23565b91610b5b604051938461097a565b82523d6000602084013e565b606090565b91929015610bce5750815115610b80575090565b3b15610b895790565b60405162461bcd60e51b815260206004820152601d60248201527f416464726573733a2063616c6c20746f206e6f6e2d636f6e74726163740000006044820152606490fd5b825190915015610be15750805190602001fd5b60405162461bcd60e51b81529081906102299060048301610c45565b60005b838110610c105750506000910152565b8181015183820152602001610c00565b90602091610c3981518092818552858086019101610bfd565b601f01601f1916010190565b906020610c56928181520190610c20565b90565b604051610c658161095e565b600181528060005b602080821015610c8857906060602092828501015201610c6d565b50505090565b805115610c9b5760200190565b634e487b7160e01b600052603260045260246000fd5b90815180825260208092019182818360051b85019501936000915b848310610cdc5750505050505090565b9091929394958480610cf683856001950387528a51610c20565b9801930193019194939290610ccc565b9091610d1d610c5693604084526040840190610cb1565b916020818403910152610cb1565b610d33610c59565b610d3b610c59565b91604051610d488161095e565b601081526f7773733a2f2f6865646765722e636f6d60801b6020820152610d6e83610c8e565b52610d7882610c8e565b50604051610d858161095e565b601281527168747470733a2f2f6865646765722e636f6d60701b6020820152610dad84610c8e565b52610db783610c8e565b506001600160a01b031691823b1561000e57610ded9260009283604051809681958294632bc5b33160e01b845260048401610d06565b03925af18015610e12575b610dff5750565b80610e0c6108e99261093d565b8061067c565b610e1a6109ab565b610df8565b6044815110610e9a5760048101518101906020816024840193031261000e5760248101519067ffffffffffffffff821161000e57018160438201121561000e576024810151610e6d81610a23565b92610e7b604051948561097a565b8184526044828401011161000e57610c56916044602085019101610bfd565b50604051610ea78161095e565b601d81527f5472616e73616374696f6e2072657665727465642073696c656e746c7900000060208201529056fea7222481f8aff9c0b8c2a969dffbd3c91ebd3e9fb5b7b31128200b05480e8ab3a164736f6c6343000810000a",
  "devdoc": {
    "kind": "dev",
    "methods": {},
    "version": 1
  },
  "userdoc": {
    "kind": "user",
    "methods": {},
    "version": 1
  },
  "storageLayout": {
    "storage": [],
    "types": null
  }
}