{
  "address": "0xDa42494F33AA4F2dda3f2F433A03b2D23D84c59B",
  "abi": [
    {
      "anonymous": false,
      "inputs": [
        {
          "indexed": true,
          "internalType": "uint256",
          "name": "positionId",
          "type": "uint256"
        },
        {
          "indexed": false,
          "internalType": "address",
          "name": "partyA",
          "type": "address"
        },
        {
          "indexed": false,
          "internalType": "address",
          "name": "partyB",
          "type": "address"
        },
        {
          "indexed": false,
          "internalType": "address",
          "name": "targetParty",
          "type": "address"
        },
        {
          "indexed": false,
          "internalType": "uint256",
          "name": "amountUnits",
          "type": "uint256"
        },
        {
          "indexed": false,
          "internalType": "uint256",
          "name": "priceUsd",
          "type": "uint256"
        }
      ],
      "name": "Liquidate",
      "type": "event"
    },
    {
      "inputs": [
        {
          "internalType": "address",
          "name": "partyA",
          "type": "address"
        },
        {
          "internalType": "uint256[]",
          "name": "positionIds",
          "type": "uint256[]"
        },
        {
          "internalType": "uint256[]",
          "name": "bidPrices",
          "type": "uint256[]"
        },
        {
          "internalType": "uint256[]",
          "name": "askPrices",
          "type": "uint256[]"
        },
        {
          "internalType": "uint256",
          "name": "timestamp",
          "type": "uint256"
        },
        {
          "internalType": "bytes",
          "name": "reqId",
          "type": "bytes"
        },
        {
          "components": [
            {
              "internalType": "uint256",
              "name": "signature",
              "type": "uint256"
            },
            {
              "internalType": "address",
              "name": "owner",
              "type": "address"
            },
            {
              "internalType": "address",
              "name": "nonce",
              "type": "address"
            }
          ],
          "internalType": "struct SchnorrSign",
          "name": "sign",
          "type": "tuple"
        },
        {
          "internalType": "bytes",
          "name": "gatewaySignature",
          "type": "bytes"
        }
      ],
      "name": "liquidatePartyCross",
      "outputs": [],
      "stateMutability": "nonpayable",
      "type": "function"
    },
    {
      "inputs": [
        {
          "internalType": "uint256",
          "name": "positionId",
          "type": "uint256"
        },
        {
          "internalType": "uint256",
          "name": "bidPrice",
          "type": "uint256"
        },
        {
          "internalType": "uint256",
          "name": "askPrice",
          "type": "uint256"
        },
        {
          "internalType": "uint256",
          "name": "timestamp",
          "type": "uint256"
        },
        {
          "internalType": "bytes",
          "name": "reqId",
          "type": "bytes"
        },
        {
          "components": [
            {
              "internalType": "uint256",
              "name": "signature",
              "type": "uint256"
            },
            {
              "internalType": "address",
              "name": "owner",
              "type": "address"
            },
            {
              "internalType": "address",
              "name": "nonce",
              "type": "address"
            }
          ],
          "internalType": "struct SchnorrSign",
          "name": "sign",
          "type": "tuple"
        },
        {
          "internalType": "bytes",
          "name": "gatewaySignature",
          "type": "bytes"
        }
      ],
      "name": "liquidatePositionIsolated",
      "outputs": [],
      "stateMutability": "nonpayable",
      "type": "function"
    },
    {
      "inputs": [
        {
          "internalType": "address",
          "name": "party",
          "type": "address"
        },
        {
          "internalType": "int256",
          "name": "uPnLCross",
          "type": "int256"
        }
      ],
      "name": "partyShouldBeLiquidatedCross",
      "outputs": [
        {
          "internalType": "bool",
          "name": "",
          "type": "bool"
        }
      ],
      "stateMutability": "view",
      "type": "function"
    },
    {
      "inputs": [
        {
          "internalType": "uint256",
          "name": "positionId",
          "type": "uint256"
        },
        {
          "internalType": "uint256",
          "name": "bidPrice",
          "type": "uint256"
        },
        {
          "internalType": "uint256",
          "name": "askPrice",
          "type": "uint256"
        }
      ],
      "name": "positionShouldBeLiquidatedIsolated",
      "outputs": [
        {
          "internalType": "bool",
          "name": "shouldBeLiquidated",
          "type": "bool"
        },
        {
          "internalType": "int256",
          "name": "uPnLA",
          "type": "int256"
        },
        {
          "internalType": "int256",
          "name": "uPnLB",
          "type": "int256"
        }
      ],
      "stateMutability": "view",
      "type": "function"
    }
  ],
  "transactionHash": "0x93f6f9440ecfa11dc3b3acf3b86a906f3a150e80ab4710bce77231a957492045",
  "args": [],
  "numDeployments": 4,
  "solcInputHash": "1e89384f44005dac78c985f61fa16f60",
  "bytecode": "0x6080806040523461001657612a7a908161001c8239f35b600080fdfe6080604052600436101561001257600080fd5b60003560e01c806303d32372146112ff5780634267fa77146112ce5780634c01482d146112955763d55f69941461004857600080fd5b346111435761014036600319011261114357610062611afd565b6024356001600160401b03811161114357610081903690600401611b13565b91906044356001600160401b038111611143576100a2903690600401611b13565b93906064356001600160401b038111611143576100c3903690600401611b13565b93909160a4356001600160401b038111611143576100e5903690600401611ad0565b60603660c3190112611143576001600160401b036101243511611143576101123660046101243501611ad0565b929091610120368988611e8e565b9161012c368d88611e8e565b610137368c8b611e8e565b9061014061286e565b50507fa16e4f0250703b8e2fb958c977e0b2739a569e1a37698e6fb31e0c101f74309d5491969161017390608435611cac565b42111561017f906125fe565b8560405196879660208801998a5260408801378501604001600081526101a49161263e565b6101ad91612841565b6101b691612841565b6101bf91612841565b6084358152038082526020016101d59082611bba565b519020906101e161286e565b94925090506040516101f281611b69565b60c435815260e4356001600160a01b03811690036111435760e4356020820152610104356001600160a01b03811690036111435760406101043591015260ff60208251920151166fa2a8918ca85bafe22016d0b997e4df5f600160ff1b038210156112575770014551231950b75fc4402da1732fc9bebe1960c435101561120757610104356001600160a01b03161515806111fe575b806111f3575b806111ea575b156111ac5760405160208101906bffffffffffffffffffffffff196101043560601b168252846034820152603481526102cc81611b69565b5190209170014551231950b75fc4402da1732fc9bebe198060c435830970014551231950b75fc4402da1732fc9bebe1903116106f0576020926000926111a257610376601b5b6040519384938170014551231950b75fc4402da1732fc9bebe1991099170014551231950b75fc4402da1732fc9bebe1960c435830970014551231950b75fc4402da1732fc9bebe1903855260ff166020850152604084015260608301526080820190565b838052039060015afa15611196576000516001600160a01b03908116610104359091160361115e5760405160208101917f19457468657265756d205369676e6564204d6573736167653a0a3332000000008352603c820152603c81526103db81611b69565b5190206001600160401b0384116111485760405190610404601f8601601f191660200183611bba565b84825236858401116111435760006020866104329761042a96838701378401015261276d565b929092612669565b6001600160a01b039081169116036111055761044d86611d64565b5484036110c05761046661046e92610476953691611e8e565b963691611e8e565b923691611e8e565b83518251811490816110b5575b50156110705783519361049585611e77565b946104a36040519687611bba565b8086526104b2601f1991611e77565b0160005b81811061104457505060005b815181101561052a57806104d96105259284611eeb565b516104e48287611eeb565b516104ef8387611eeb565b5190604051926104fe84611b69565b8352602083015260408201526105148289611eeb565b5261051f8188611eeb565b50611edc565b6104c2565b60008686825b8251841015610757576105438484611eeb565b515160206105518686611eeb565b5101519060406105618787611eeb565b51015190600052600080516020612a4e8339815191526020526040600020916040519261058d84611b4d565b80548452600181015460208501526002810154604085015260038101546001600160801b03198160801b166060860152600660ff8260801c161015610741578060ff809260801c16608087015260881c16906105e882611b43565b60a085810192909252600481015460c086015260058101546001600160a01b0390811660e087019081526006830154918216610100880152921c60ff1661062e81611b43565b610120860152600781015461014086015260088101546101608601526009810154610180860152600a8101546101a0860152600b8101546101c0860152600c8101546101e0860152600d810154610200860152600e01546001600160a01b039081166102208601529051868216911603610706576101208301516106c7936106b582611b43565b6102006101e082015191015191611f3f565b5090600082820192831291129080158216911516176106f0576106ea9093611edc565b92610530565b634e487b7160e01b600052601160045260246000fd5b60405162461bcd60e51b81526020600482015260136024820152720a0dee6d2e8d2dedc92c840dad2e6dac2e8c6d606b1b6044820152606490fd5b634e487b7160e01b600052602160045260246000fd5b61076c61076584928461252b565b5115611bdb565b60009182808080805b8651851015610a96576107888588611eeb565b51908151600052600080516020612a4e833981519152602052604060002091604051926107b484611b4d565b80548452600181015460208501526002810154604085015260038101546001600160801b03198160801b166060860152600660ff8260801c161015610741578060ff809260801c16608087015260881c1661080e81611b43565b60a085810191909152600482015460c086015260058201546001600160a01b0390811660e08701526006830154908116610100870152901c60ff1661085281611b43565b610120850152600781015461014085015260088101546101608501526009810154610180850152600a8101546101a0850152600b8101546101c0850152600c8101546101e0850152600d810154610200850152600e01546001600160a01b031661022084015260808301516006811015610741576005141580610a7e575b6108d990611c1a565b60e08301516001600160a01b03898116911603610a4957600160a084015161090081611b43565b61090981611b43565b03610a0c5761092890604084015190604060208201519101519161204b565b506109696101a0840151926109416101c0860151611c66565b94600084126109f75761016001518084106109ed57610963905b600092611cac565b96611cac565b9987610999575b50916109836109899261098f9495611cac565b95611cac565b94611edc565b9392909691610775565b819391136109a857918a610970565b60405162461bcd60e51b815260206004820152601f60248201527f504e4c206d75737420626520696e2064657363656e64696e67206f72646572006044820152606490fd5b506109638361095b565b506109636000610a0685611f2e565b92611cac565b60405162461bcd60e51b8152602060048201526015602482015274496e76616c696420706f736974696f6e207479706560581b6044820152606490fd5b60405162461bcd60e51b815260206004820152600d60248201526c496e76616c696420706172747960981b6044820152606490fd5b506080830151600681101561074157600414156108d0565b90959350610aad610aa686611cb9565b5482611cac565b8210610fff57610ac0610ad09183611d9d565b610ac986611cb9565b5490611d9d565b9082821015610db9575090610ae8610aed9282611d9d565b611e0e565b9260005b8251811015610d2c57610b048184611eeb565b51908151600052600080516020612a4e83398151915260205260406000209160405190610b3082611b4d565b8354825260018401546020830152600284015460408301526003840154936001600160801b03198560801b166060840152600660ff8660801c16101561074157610c8660ff8681610ced9860801c16608087015260881c1693610b9285611b43565b60a081810195909552600483015460c082015260058301546001600160a01b0390811660e083015260068401549081166101008301908152951c60ff16610bd881611b43565b6101208201526007830154610140820152670de0b6b3a7640000610c7c610c76610c6e600887015497610160860198895260098801546101808701526040600a890154966101a08101978852600b8a0154996101c082019a8b52600c8101546101e0830152600d810154610200830152600e60018060a01b0391015416610220820152015190604060208201519101519161204b565b509551611c66565b8d611e50565b5104905190611cac565b9160008212610d005751610cc592610cbd92610cad9290818110610cf25750506000611cac565b92516001600160a01b0316611cf2565b918254611cac565b90555b610ce8610cd58286611eeb565b5151610ce18387611eeb565b5190612196565b611edc565b610af1565b610cfb91611d9d565b611cac565b610cad90610d1d610d2594610d17610cbd95611f2e565b90611cac565b905190611cac565b9055610cc8565b50925050610d3b600091611cb9565b55610d62670de0b6b3a7640000610d5983610d54611daa565b611e50565b51048092611d9d565b336000527fdfc6b7cb23f07b62775a228b58db9a36de27f3d727948dc10389611c6fd1063e9081602052610d9c6040600020918254611cac565b905530600052602052610db56040600020918254611cac565b9055005b91610dc691959395611d9d565b90808210610fec5750506000604051610dde81611b84565b52604051610deb81611b84565b60008152905b60005b8451811015610d2c57610e078186611eeb565b51908151600052600080516020612a4e83398151915260205260406000209160405192610e3384611b4d565b8054845260018101546020850152600281015460408501526003810154936001600160801b03198560801b166060820152600660ff8660801c16101561074157610f5c60ff8681610fa49860801c16608085015260881c1693610e9585611b43565b60a083810195909552600484015460c084015260058401546001600160a01b0390811660e085015260068501549081166101008501908152951c60ff16610edb81611b43565b6101208401526007840154610140840152604060088501549361016081019485526009860154610180820152600a860154956101a08201968752600b8101546101c0830152600c8101546101e0830152600d810154610200830152600e60018060a01b0391015416610220820152015190604060208201519101519161204b565b509060008212610fb85751610f8892610cbd92610cad9290818110610fa95750506000905b5190611cac565b90555b610ce8610f988288611eeb565b5151610ce18389611eeb565b610df4565b610fb291611d9d565b90610f81565b610fe592610d1d610cbd93670de0b6b3a7640000610fdd610c76610cad965193611f2e565b510490611cac565b9055610f8b565b610ae8610ff99282611d9d565b90610df1565b60405162461bcd60e51b815260206004820152601e60248201527f5061727479412073686f756c642068617665206d6f72652063726564697400006044820152606490fd5b60209060405161105381611b69565b600081526000838201526000604082015282828a010152016104b6565b60405162461bcd60e51b815260206004820152601760248201527f496e76616c696420706f736974696f6e207072696365730000000000000000006044820152606490fd5b905081511438610483565b60405162461bcd60e51b815260206004820152601a60248201527f496e76616c696420706f736974696f6e496473206c656e6774680000000000006044820152606490fd5b60405162461bcd60e51b815260206004820152601660248201527524b73b30b634b21033b0ba32bbb0bc9039b4b3b732b960511b6044820152606490fd5b600080fd5b634e487b7160e01b600052604160045260246000fd5b60405162461bcd60e51b815260206004820152601060248201526f1514d4c81b9bdd081d995c9a599a595960821b6044820152606490fd5b6040513d6000823e3d90fd5b610376601c610312565b60405162461bcd60e51b81526020600482015260166024820152751b9bc81e995c9bc81a5b9c1d5d1cc8185b1b1bddd95960521b6044820152606490fd5b50821515610294565b5060c435151561028e565b50811515610288565b60405162461bcd60e51b815260206004820152602260248201527f7369676e6174757265206d7573742062652072656475636564206d6f64756c6f604482015261205160f01b6064820152608490fd5b60405162461bcd60e51b81526020600482015260166024820152755075626c69632d6b65792078203e3d2048414c465f5160501b6044820152606490fd5b346111435760603660031901126111435760606112b96044356024356004356123c8565b90604051921515835260208301526040820152f35b346111435760403660031901126111435760206112f56112ec611afd565b6024359061252b565b5115604051908152f35b3461114357610120366003190112611143576084356001600160401b03811161114357611330903690600401611ad0565b60603660a319011261114357610104356001600160401b0381116111435761135c903690600401611ad0565b929091600435600052600080516020612a4e8339815191526020526040600020906113876080611b4d565b81546080908152600183015460a052600283015460c052600383015480821b6fffffffffffffffffffffffffffffffff191660e052919060069083901c60ff161015610741576115159260ff8381608095861c16856080015260881c166113ed81611b43565b6101205260048101546101405260058101546001600160a01b039081166101605260068201549081166101805260ff9061142c60a082901c8316611b43565b60a01c166101a05260078101546101c05260088101546101e052600981015461020052600a81015461022052600b81015461024052600c81015461026052600d81015461028052600e01546001600160a01b03166102a0526114ea604061149161286e565b50509190936114ce6114c67fa16e4f0250703b8e2fb958c977e0b2739a569e1a37698e6fb31e0c101f74309d54606435611cac565b4211156125fe565b808251988996602088015283870137840101906000825261263e565b6004358152602435602082015260443560408201526064356060820152036060810184520182611bba565b602081519101209061152561286e565b949250905060405161153681611b69565b60a435815260c4356001600160a01b03811690036111435760c435602082015260e4356001600160a01b038116900361114357604060e43591015260ff60208251920151166fa2a8918ca85bafe22016d0b997e4df5f600160ff1b038210156112575770014551231950b75fc4402da1732fc9bebe1960a43510156112075760e4356001600160a01b0316151580611ac7575b80611abc575b80611ab3575b156111ac5760405160208101906bffffffffffffffffffffffff1960e43560601b1682528460348201526034815261160c81611b69565b5190209170014551231950b75fc4402da1732fc9bebe198060a435830970014551231950b75fc4402da1732fc9bebe1903116106f057602092600092611aa9576116b6601b5b6040519384938170014551231950b75fc4402da1732fc9bebe1991099170014551231950b75fc4402da1732fc9bebe1960a435830970014551231950b75fc4402da1732fc9bebe1903855260ff166020850152604084015260608301526080820190565b838052039060015afa15611196576000516001600160a01b0390811660e4359091160361115e5760405160208101917f19457468657265756d205369676e6564204d6573736167653a0a3332000000008352603c820152603c815261171a81611b69565b5190206001600160401b0384116111485760405190611743601f8601601f191660200183611bba565b84825236858401116111435760006020866117699761042a96838701378401015261276d565b6001600160a01b039081169116036111055761179761178f6044356024356004356123c8565b509190611bdb565b610100516006811015610741576005141580611a92575b6117b790611c1a565b610120516117c481611b43565b6117cd81611b43565b6119fe5760006118076117fd6117f0610140608001516101606080015190611cac565b61024051610d1790611c66565b6102205190611cac565b91126119d0576101605161182790610cbd906001600160a01b0316611cf2565b9055610180516001600160a01b03165b670de0b6b3a764000061185561184b611daa565b6102205190611e50565b5104611867816101a060800151611d9d565b3360009081527fdfc6b7cb23f07b62775a228b58db9a36de27f3d727948dc10389611c6fd1063e6020526040902061189e90610cbd565b90553060009081527fdfc6b7cb23f07b62775a228b58db9a36de27f3d727948dc10389611c6fd1063e602052604090206118d790610cbd565b90556101605161018051610260516101a0516001600160a01b03938416947fcae3a66fc80d5413ca860cb12031da45159ec6c44bc86eb8e47d71bc4d5c472a94909316916119769161192881611b43565b61193181611b43565b6119c757602435905b604051948594600435988691608093969594919660a084019760018060a01b039283809216865216602085015216604083015260608201520152565b0390a260c0516119859061238a565b6101605161199b906001600160a01b0316611d2b565b6119a58154612189565b9055610180516119bd906001600160a01b0316611d2b565b610db58154612189565b6044359061193a565b610180516119ea90610cbd906001600160a01b0316611cf2565b9055610160516001600160a01b0316611837565b610180516001600160a01b031690600013611a4d576101e05161024051611a2c916117fd91610d1790611c66565b61016051611a4690610cbd906001600160a01b0316611cb9565b9055611837565b60405162461bcd60e51b815260206004820152601b60248201527f5061727479412073686f756c642062652070726f66697461626c6500000000006044820152606490fd5b5061010051600681101561074157600414156117ae565b6116b6601c611652565b508215156115d5565b5060a43515156115cf565b508115156115c9565b9181601f84011215611143578235916001600160401b038311611143576020838186019501011161114357565b600435906001600160a01b038216820361114357565b9181601f84011215611143578235916001600160401b038311611143576020808501948460051b01011161114357565b6002111561074157565b61024081019081106001600160401b0382111761114857604052565b606081019081106001600160401b0382111761114857604052565b602081019081106001600160401b0382111761114857604052565b604081019081106001600160401b0382111761114857604052565b90601f801991011681019081106001600160401b0382111761114857604052565b15611be257565b60405162461bcd60e51b815260206004820152601060248201526f4e6f74206c6971756964617461626c6560801b6044820152606490fd5b15611c2157565b60405162461bcd60e51b815260206004820152601760248201527f506f736974696f6e20616c726561647920636c6f7365640000000000000000006044820152606490fd5b8060001904600211811515166106f05760011b90565b670de0b6b3a76400009080600019048211811515166106f0570290565b80600019048211811515166106f0570290565b919082018092116106f057565b6001600160a01b031660009081527fdfc6b7cb23f07b62775a228b58db9a36de27f3d727948dc10389611c6fd106406020526040902090565b6001600160a01b031660009081527fdfc6b7cb23f07b62775a228b58db9a36de27f3d727948dc10389611c6fd1063f6020526040902090565b6001600160a01b031660009081527fdfc6b7cb23f07b62775a228b58db9a36de27f3d727948dc10389611c6fd106476020526040902090565b6001600160a01b031660009081527fdfc6b7cb23f07b62775a228b58db9a36de27f3d727948dc10389611c6fd106486020526040902090565b919082039182116106f057565b6000604051611db881611b84565b52670de0b6b3a7640000611dfb7f6153ab96f87058e42029646de88822d1a2d6637639f9e3da153f23d6da9f44b1546000604051611df581611b84565b52611c7c565b0460405190611e0982611b84565b815290565b611e20906000604051611df581611b84565b908015611e3a5760405191611e3483611b84565b04815290565b634e487b7160e01b600052601260045260246000fd5b90611e6a916000604051611e6381611b84565b5251611c99565b60405190611e0982611b84565b6001600160401b0381116111485760051b60200190565b9291611e9982611e77565b91611ea76040519384611bba565b829481845260208094019160051b810192831161114357905b828210611ecd5750505050565b81358152908301908301611ec0565b60001981146106f05760010190565b8051821015611eff5760209160051b010190565b634e487b7160e01b600052603260045260246000fd5b818103929160001380158285131691841216176106f057565b600160ff1b81146106f05760000390565b939093929192841561203e57611f5481611b43565b611fce57508015611f8957611f75670de0b6b3a764000091611f7b94611c99565b04611f15565b905b611f8682611f2e565b90565b60405162461bcd60e51b815260206004820152601a60248201527f4f7261636c6520626964507269636520697320696e76616c69640000000000006044820152606490fd5b80915015611ff957611fec670de0b6b3a764000091611ff394611c99565b0490611f15565b90611f7d565b60405162461bcd60e51b815260206004820152601a60248201527f4f7261636c652061736b507269636520697320696e76616c69640000000000006044820152606490fd5b5050505050600090600090565b919091600052600080516020612a4e83398151915260205260406000209160405161207581611b4d565b8354815260018401546020820152600284015460408201526003840154936001600160801b03198560801b16606083015260ff8560801c1660068110156107415760808301526121859460881c60ff166120ce81611b43565b60a0830152600481015460c083015260018060a01b038060058301541660e084015260ff600683015482811661010086015260a01c169261210e84611b43565b83610120820152600783015461014082015260088301546101608201526009830154610180820152600a8301546101a0820152600b8301546101c0820152610220600c840154926101e08301938452600e600d86015495610200850196875201541691015261217c83611b43565b51905191611f3f565b9091565b80156106f0576000190190565b80600052600080516020612a4e83398151915260205260406000206040516121bd81611b4d565b8154815260018201546020820152600282015460408201526003820154936001600160801b03198560801b16606083015260ff8560801c16916006831015610741576123587fcae3a66fc80d5413ca860cb12031da45159ec6c44bc86eb8e47d71bc4d5c472a9560ff6123729861235f96608086015260881c1661224081611b43565b60a0840152600486015460c08401528060018060a01b039788958660058a0154169560e0810196875261235060068b01549a60ff61010084019c8d8c8216905260a01c169261228e84611b43565b83610120820152600782015461014082015260088201546101608201526009820154610180820152600a8201546101a0820152600b8201546101c08201526102208b600e600c85015494856101e0860152600d81015461020086015201541691015289895116938a8d51169361230381611b43565b61230c81611b43565b6123805760200151905b604080516001600160a01b0396871680825295909616602087015285019390935260608401929092526080830191909152819060a0820190565b0390a261238a565b5116611d64565b6123698154612189565b90555116611d2b565b61237c8154612189565b9055565b6040015190612316565b600052600080516020612a4e833981519152602052604060002060038101600560801b60ff60801b198254161790556000600c820155600142910155565b600092818452600080516020612a4e8339815191526020526040842092604051926123f284611b4d565b84548452600185015460208501526002850154604085015260038501546001600160801b03198160801b16606086015260ff8160801c1660068110156125175760808601526124f69392919060881c60ff1661244d81611b43565b60a0860152600486015460c086015260018060a01b03948560058801541660e082015260ff600688015487811661010084015260a01c1661248d81611b43565b6101208201526102206007880154966101408301978852600e60088a01549961016085019a8b526009810154610180860152600a8101546101a0860152600b8101546101c0860152600c8101546101e0860152600d81015461020086015201541691015261204b565b91908293819582131560001461250e57505051111592565b51111594915050565b634e487b7160e01b88526021600452602488fd5b60409182519061253a82611b84565b600080925261255261254b84611cb9565b5493611d64565b548315809181926125f5575b501561258c5750509050815161257381611b84565b525161257e81611b84565b670de0b6b3a7640000815290565b6125e557818112156125d5576125a190611f2e565b92828410156125b9575050610ae8611f869282611d9d565b819350809250516125c981611b84565b525190611e0982611b84565b611f869350610ae8915082611cac565b508281939250516125c981611b84565b9050153861255e565b1561260557565b60405162461bcd60e51b815260206004820152601160248201527014da59db985d1d5c9948195e1c1a5c9959607a1b6044820152606490fd5b9081519160005b838110612656575050016000815290565b8060208092840101518185015201612645565b6005811015610741578061267a5750565b600181036126c75760405162461bcd60e51b815260206004820152601860248201527f45434453413a20696e76616c6964207369676e617475726500000000000000006044820152606490fd5b600281036127145760405162461bcd60e51b815260206004820152601f60248201527f45434453413a20696e76616c6964207369676e6174757265206c656e677468006044820152606490fd5b60031461271d57565b60405162461bcd60e51b815260206004820152602260248201527f45434453413a20696e76616c6964207369676e6174757265202773272076616c604482015261756560f01b6064820152608490fd5b90604181511460001461279757612185916020820151906060604084015193015160001a906127a1565b5050600090600290565b939291907f7fffffffffffffffffffffffffffffff5d576e7357a4501ddfe92f46681b20a0831161283457916127f89160209360405196879094939260ff6060936080840197845216602083015260408201520152565b836000948592838052039060015afa156128275781516001600160a01b03811615612821579190565b50600190565b50604051903d90823e3d90fd5b5050509050600090600390565b805160208092019160005b82811061285a575050505090565b83518552938101939281019260010161284c565b60405161287a81611b9f565b600091828252826020809301527fa16e4f0250703b8e2fb958c977e0b2739a569e1a37698e6fb31e0c101f743098549060405193807fa16e4f0250703b8e2fb958c977e0b2739a569e1a37698e6fb31e0c101f7430999081549160019083821c938281168015612a43575b8986108114612a2f57858b528a949392918a908215612a0d5750506001146129b4575b505061291692500386611bba565b8360405161292381611b9f565b82815201526040519261293584611b9f565b7fa16e4f0250703b8e2fb958c977e0b2739a569e1a37698e6fb31e0c101f74309a5484527fa16e4f0250703b8e2fb958c977e0b2739a569e1a37698e6fb31e0c101f74309b5460ff16908401527fa16e4f0250703b8e2fb958c977e0b2739a569e1a37698e6fb31e0c101f74309c54919392916001600160a01b031690565b855287915084907f2dba82561a470ee7e5f92ef2928634d782dd29b247d775b38c944adcfb3498105b8583106129f557505061291693508201013880612908565b8054838c018501528a945089939092019181016129dd565b925093505061291694915060ff191682840152151560051b8201013880612908565b634e487b7160e01b87526022600452602487fd5b94607f16946128e556fedfc6b7cb23f07b62775a228b58db9a36de27f3d727948dc10389611c6fd10645a164736f6c6343000810000a",
  "devdoc": {
    "kind": "dev",
    "methods": {
      "liquidatePositionIsolated(uint256,uint256,uint256,uint256,bytes,(uint256,address,address),bytes)": {
        "details": "Unlike a cross liquidation, we don't check for major deficits here.      Counterparties should put limit sell orders at the liquidation price      of the user, in order to mitigate the deficit. Failure to do so      would result in the counterParty paying for the deficit.The above describes 'major' deficits. There's always a deficit,      however the CVA aims to cover that.Cross positions are ALLOWED in order to liquidate partyB."
      }
    },
    "version": 1
  },
  "userdoc": {
    "kind": "user",
    "methods": {},
    "version": 1
  },
  "storageLayout": {
    "storage": [],
    "types": null
  }
}