{
  "address": "0x15C8dCdEC7e7efe1F5Dc0865DcAfDfD458750B8B",
  "abi": [
    {
      "inputs": [
        {
          "internalType": "uint256",
          "name": "marketId",
          "type": "uint256"
        }
      ],
      "name": "getMarketById",
      "outputs": [
        {
          "components": [
            {
              "internalType": "uint256",
              "name": "marketId",
              "type": "uint256"
            },
            {
              "internalType": "string",
              "name": "identifier",
              "type": "string"
            },
            {
              "internalType": "enum MarketType",
              "name": "marketType",
              "type": "uint8"
            },
            {
              "internalType": "bool",
              "name": "active",
              "type": "bool"
            },
            {
              "internalType": "string",
              "name": "baseCurrency",
              "type": "string"
            },
            {
              "internalType": "string",
              "name": "quoteCurrency",
              "type": "string"
            },
            {
              "internalType": "string",
              "name": "symbol",
              "type": "string"
            },
            {
              "internalType": "bytes32",
              "name": "muonPriceFeedId",
              "type": "bytes32"
            },
            {
              "internalType": "bytes32",
              "name": "fundingRateId",
              "type": "bytes32"
            },
            {
              "internalType": "uint256",
              "name": "protocolFee",
              "type": "uint256"
            }
          ],
          "internalType": "struct Market",
          "name": "market",
          "type": "tuple"
        }
      ],
      "stateMutability": "view",
      "type": "function"
    },
    {
      "inputs": [
        {
          "internalType": "uint256",
          "name": "positionId",
          "type": "uint256"
        }
      ],
      "name": "getMarketFromPositionId",
      "outputs": [
        {
          "components": [
            {
              "internalType": "uint256",
              "name": "marketId",
              "type": "uint256"
            },
            {
              "internalType": "string",
              "name": "identifier",
              "type": "string"
            },
            {
              "internalType": "enum MarketType",
              "name": "marketType",
              "type": "uint8"
            },
            {
              "internalType": "bool",
              "name": "active",
              "type": "bool"
            },
            {
              "internalType": "string",
              "name": "baseCurrency",
              "type": "string"
            },
            {
              "internalType": "string",
              "name": "quoteCurrency",
              "type": "string"
            },
            {
              "internalType": "string",
              "name": "symbol",
              "type": "string"
            },
            {
              "internalType": "bytes32",
              "name": "muonPriceFeedId",
              "type": "bytes32"
            },
            {
              "internalType": "bytes32",
              "name": "fundingRateId",
              "type": "bytes32"
            },
            {
              "internalType": "uint256",
              "name": "protocolFee",
              "type": "uint256"
            }
          ],
          "internalType": "struct Market",
          "name": "market",
          "type": "tuple"
        }
      ],
      "stateMutability": "view",
      "type": "function"
    },
    {
      "inputs": [
        {
          "internalType": "uint256",
          "name": "marketId",
          "type": "uint256"
        }
      ],
      "name": "getMarketProtocolFee",
      "outputs": [
        {
          "internalType": "uint256",
          "name": "",
          "type": "uint256"
        }
      ],
      "stateMutability": "view",
      "type": "function"
    },
    {
      "inputs": [],
      "name": "getMarkets",
      "outputs": [
        {
          "components": [
            {
              "internalType": "uint256",
              "name": "marketId",
              "type": "uint256"
            },
            {
              "internalType": "string",
              "name": "identifier",
              "type": "string"
            },
            {
              "internalType": "enum MarketType",
              "name": "marketType",
              "type": "uint8"
            },
            {
              "internalType": "bool",
              "name": "active",
              "type": "bool"
            },
            {
              "internalType": "string",
              "name": "baseCurrency",
              "type": "string"
            },
            {
              "internalType": "string",
              "name": "quoteCurrency",
              "type": "string"
            },
            {
              "internalType": "string",
              "name": "symbol",
              "type": "string"
            },
            {
              "internalType": "bytes32",
              "name": "muonPriceFeedId",
              "type": "bytes32"
            },
            {
              "internalType": "bytes32",
              "name": "fundingRateId",
              "type": "bytes32"
            },
            {
              "internalType": "uint256",
              "name": "protocolFee",
              "type": "uint256"
            }
          ],
          "internalType": "struct Market[]",
          "name": "markets",
          "type": "tuple[]"
        }
      ],
      "stateMutability": "view",
      "type": "function"
    },
    {
      "inputs": [
        {
          "internalType": "uint256[]",
          "name": "marketIds",
          "type": "uint256[]"
        }
      ],
      "name": "getMarketsByIds",
      "outputs": [
        {
          "components": [
            {
              "internalType": "uint256",
              "name": "marketId",
              "type": "uint256"
            },
            {
              "internalType": "string",
              "name": "identifier",
              "type": "string"
            },
            {
              "internalType": "enum MarketType",
              "name": "marketType",
              "type": "uint8"
            },
            {
              "internalType": "bool",
              "name": "active",
              "type": "bool"
            },
            {
              "internalType": "string",
              "name": "baseCurrency",
              "type": "string"
            },
            {
              "internalType": "string",
              "name": "quoteCurrency",
              "type": "string"
            },
            {
              "internalType": "string",
              "name": "symbol",
              "type": "string"
            },
            {
              "internalType": "bytes32",
              "name": "muonPriceFeedId",
              "type": "bytes32"
            },
            {
              "internalType": "bytes32",
              "name": "fundingRateId",
              "type": "bytes32"
            },
            {
              "internalType": "uint256",
              "name": "protocolFee",
              "type": "uint256"
            }
          ],
          "internalType": "struct Market[]",
          "name": "markets",
          "type": "tuple[]"
        }
      ],
      "stateMutability": "view",
      "type": "function"
    },
    {
      "inputs": [
        {
          "internalType": "uint256[]",
          "name": "positionIds",
          "type": "uint256[]"
        }
      ],
      "name": "getMarketsFromPositionIds",
      "outputs": [
        {
          "components": [
            {
              "internalType": "uint256",
              "name": "marketId",
              "type": "uint256"
            },
            {
              "internalType": "string",
              "name": "identifier",
              "type": "string"
            },
            {
              "internalType": "enum MarketType",
              "name": "marketType",
              "type": "uint8"
            },
            {
              "internalType": "bool",
              "name": "active",
              "type": "bool"
            },
            {
              "internalType": "string",
              "name": "baseCurrency",
              "type": "string"
            },
            {
              "internalType": "string",
              "name": "quoteCurrency",
              "type": "string"
            },
            {
              "internalType": "string",
              "name": "symbol",
              "type": "string"
            },
            {
              "internalType": "bytes32",
              "name": "muonPriceFeedId",
              "type": "bytes32"
            },
            {
              "internalType": "bytes32",
              "name": "fundingRateId",
              "type": "bytes32"
            },
            {
              "internalType": "uint256",
              "name": "protocolFee",
              "type": "uint256"
            }
          ],
          "internalType": "struct Market[]",
          "name": "markets",
          "type": "tuple[]"
        }
      ],
      "stateMutability": "view",
      "type": "function"
    },
    {
      "inputs": [
        {
          "internalType": "uint256",
          "name": "start",
          "type": "uint256"
        },
        {
          "internalType": "uint256",
          "name": "end",
          "type": "uint256"
        }
      ],
      "name": "getMarketsInRange",
      "outputs": [
        {
          "components": [
            {
              "internalType": "uint256",
              "name": "marketId",
              "type": "uint256"
            },
            {
              "internalType": "string",
              "name": "identifier",
              "type": "string"
            },
            {
              "internalType": "enum MarketType",
              "name": "marketType",
              "type": "uint8"
            },
            {
              "internalType": "bool",
              "name": "active",
              "type": "bool"
            },
            {
              "internalType": "string",
              "name": "baseCurrency",
              "type": "string"
            },
            {
              "internalType": "string",
              "name": "quoteCurrency",
              "type": "string"
            },
            {
              "internalType": "string",
              "name": "symbol",
              "type": "string"
            },
            {
              "internalType": "bytes32",
              "name": "muonPriceFeedId",
              "type": "bytes32"
            },
            {
              "internalType": "bytes32",
              "name": "fundingRateId",
              "type": "bytes32"
            },
            {
              "internalType": "uint256",
              "name": "protocolFee",
              "type": "uint256"
            }
          ],
          "internalType": "struct Market[]",
          "name": "markets",
          "type": "tuple[]"
        }
      ],
      "stateMutability": "view",
      "type": "function"
    },
    {
      "inputs": [],
      "name": "getMarketsLength",
      "outputs": [
        {
          "internalType": "uint256",
          "name": "length",
          "type": "uint256"
        }
      ],
      "stateMutability": "view",
      "type": "function"
    },
    {
      "inputs": [
        {
          "internalType": "uint256",
          "name": "marketId",
          "type": "uint256"
        }
      ],
      "name": "isActiveMarket",
      "outputs": [
        {
          "internalType": "bool",
          "name": "",
          "type": "bool"
        }
      ],
      "stateMutability": "view",
      "type": "function"
    },
    {
      "inputs": [
        {
          "internalType": "uint256",
          "name": "marketId",
          "type": "uint256"
        }
      ],
      "name": "isValidMarketId",
      "outputs": [
        {
          "internalType": "bool",
          "name": "",
          "type": "bool"
        }
      ],
      "stateMutability": "pure",
      "type": "function"
    }
  ],
  "transactionHash": "0x61b1f8d5d8489e83de9fee396d653a12e05799aee8b7d0e128f983a168c168c2",
  "args": [],
  "numDeployments": 3,
  "solcInputHash": "a81a9d46ae1752736f260cebd8193c8d",
  "bytecode": "0x6080806040523461001657610d9f908161001c8239f35b600080fdfe60806040908082526004918236101561001757600080fd5b60009160e0908335821c9081630d64cdbd14610991575080632a6969fc146108305780633df1c4101461079d57806344c70b851461067357806355e27ecf146106525780636e048ae9146104c557806392ef292c14610483578063a239675314610383578063dae87fba146102115763ec2c90161461009557600080fd5b3461020d578260031936011261020d577f35cc72510b152d9944ca07ae5bfb481ff4b7afbbbd870172068c721dd022931f5490816000198101116101fa576100dc82610cd3565b93805b8381106100f7578451806100f38882610b50565b0390f35b60018181018082116101e75783526020600080516020610d7383398151915281528684209061013688519361012b856109cf565b835485528301610c02565b9083015260028101549060ff80831660098110156101d45789850152600892831c16151560608401526101cf9392919061017260038201610c02565b60808401526101828b8201610c02565b60a084015261019360058201610c02565b60c0840152600681015487840152600781015461010084015201546101208201526101be8289610d48565b526101c98188610d48565b50610d23565b6100df565b634e487b7160e01b875260218c52602487fd5b634e487b7160e01b845260118952602484fd5b634e487b7160e01b845260118552602484fd5b8280fd5b5083903461037f578260031936011261037f5781359360249182359386850394851161036e5760019384860180961161035d5761024d86610cd3565b97845b878110610264578851806100f38c82610b50565b80820180831161034b5786526020600080516020610d7383398151915281528987208a5191610292836109cf565b815483526102a18a8301610c02565b9083015260028101549060ff8083166009811015610339578d850152600892831c1615156060840152610334939291906102dd60038201610c02565b60808401526102ed888201610c02565b60a08401526102fe60058201610c02565b60c084015260068101548984015260078101546101008401520154610120820152610329828d610d48565b526101c9818c610d48565b610250565b634e487b7160e01b8b5260218952878bfd5b634e487b7160e01b8752601185528387fd5b634e487b7160e01b84526011825283fd5b634e487b7160e01b83526011905250fd5b8380fd5b503461020d57602036600319011261020d5761039d610bb2565b506103a6610bb2565b5083358352600080516020610d73833981519152602052818320908251936103cd856109cf565b825485526103dd60018401610c02565b602086015260028301549060ff821690600982101561047057506100f39660ff600895949361042c93888a0152861c161515606088015261042060038501610c02565b60808801528301610c02565b60a086015261043d60058301610c02565b60c08601526006820154908501526007810154610100850152015461012083015251918291602083526020830190610a98565b634e487b7160e01b815260218852602490fd5b5050346104c157816003193601126104c1576020907f35cc72510b152d9944ca07ae5bfb481ff4b7afbbbd870172068c721dd022931f549051908152f35b5080fd5b509290913461064f576020908160031936011261064f5782359467ffffffffffffffff9384871161020d573660238801121561020d578681013594851161020d5760059060243687841b8a0182011161064b5761052187610cd3565b98855b888110610538578951806100f38d82610b50565b8281861b8301013587527fdfc6b7cb23f07b62775a228b58db9a36de27f3d727948dc10389611c6fd106458852838a882001548752600080516020610d7383398151915288528987208a519061058d826109cf565b8054825261059d60018201610c02565b8a83015260028101549060ff8083166009811015610639578f90938f9387969593610634989461062996880152600892831c16151560608701526105e360038201610c02565b60808701526105f38b8201610c02565b60a08701526106038c8201610c02565b60c087015260068101548d87015260078101546101008701520154610120850152610d48565b526101c9818d610d48565b610524565b634e487b7160e01b8c5260218952878cfd5b8480fd5b80fd5b8385843461020d57602036600319011261020d576020925051903515158152f35b50903461020d576020918260031936011261037f57610690610bb2565b50610699610bb2565b50843584527fdfc6b7cb23f07b62775a228b58db9a36de27f3d727948dc10389611c6fd1064583528482852001548452600080516020610d738339815191528352818420908251946106ea866109cf565b825486526106fa60018401610c02565b8587015260028301549060ff821690600982101561078a5750916107498860ff8796946008966100f3998c0152861c16151560608a015261073d60038501610c02565b60808a01528301610c02565b60a088015261075a60058301610c02565b60c08801526006820154908701526007810154610100870152015461012085015251928284938452830190610a98565b634e487b7160e01b815260218952602490fd5b5050903461064f57602036600319011261064f578082516107bd81610a02565b5282358152600080516020610d73833981519152602052600882822001548183516107e781610a02565b52670de0b6b3a764000091816000190483118215151661081d5760208484808502049081815161081681610a02565b5251908152f35b634e487b7160e01b815260118552602490fd5b50929190346104c1576020918260031936011261064f5783359467ffffffffffffffff86116104c157366023870112156104c1578585013561087181610a40565b9561087e85519788610a1e565b8187528587019760249889600594851b8301019136831161098d578a899101915b83831061097d57505050506108b48751610cd3565b97845b8851811015610970576108ca818a610d48565b518652600080516020610d7383398151915288528686208751906108ed826109cf565b805482526108fd60018201610c02565b8a83015260028101549060ff808316600981101561095e578b850152600892831c16151560608401526109599392919061093960038201610c02565b6080840152610949878201610c02565b60a08401526102fe888201610c02565b6108b7565b634e487b7160e01b8b5260218852868bfd5b8651806100f38c82610b50565b823581529181019189910161089f565b8680fd5b849084873461037f57602036600319011261037f57358352600080516020610d73833981519152602090815292206002015460081c60ff1615158152f35b610140810190811067ffffffffffffffff8211176109ec57604052565b634e487b7160e01b600052604160045260246000fd5b6020810190811067ffffffffffffffff8211176109ec57604052565b90601f8019910116810190811067ffffffffffffffff8211176109ec57604052565b67ffffffffffffffff81116109ec5760051b60200190565b919082519283825260005b848110610a84575050826000602080949584010152601f8019910116010190565b602081830181015184830182015201610a63565b9081518152610ab66020830151610140806020850152830190610a58565b6040830151906009821015610b3a57610af3610b0591610b1793604086015260608601511515606086015260808601518582036080870152610a58565b60a085015184820360a0860152610a58565b60c084015183820360c0850152610a58565b9160e081015160e083015261010080820151908301526101208091015191015290565b634e487b7160e01b600052602160045260246000fd5b602080820190808352835180925260408301928160408460051b8301019501936000915b848310610b845750505050505090565b9091929394958480610ba2600193603f198682030187528a51610a98565b9801930193019194939290610b74565b60405190610bbf826109cf565b816101206000918281526060602082015282604082015282606082015260606080820152606060a0820152606060c08201528260e0820152826101008201520152565b90604051906000835490600182811c90808416968715610cc9575b6020948584108914610cb55787988489979899529081600014610c935750600114610c54575b505050610c5292500383610a1e565b565b600090815285812095935091905b818310610c7b575050610c529350820101388080610c43565b85548884018501529485019487945091830191610c62565b92505050610c5294925060ff191682840152151560051b820101388080610c43565b634e487b7160e01b85526022600452602485fd5b91607f1691610c1d565b90610cdd82610a40565b610cea6040519182610a1e565b8281528092610cfb601f1991610a40565b019060005b828110610d0c57505050565b602090610d17610bb2565b82828501015201610d00565b6000198114610d325760010190565b634e487b7160e01b600052601160045260246000fd5b8051821015610d5c5760209160051b010190565b634e487b7160e01b600052603260045260246000fdfe35cc72510b152d9944ca07ae5bfb481ff4b7afbbbd870172068c721dd022931ea164736f6c6343000810000a",
  "devdoc": {
    "kind": "dev",
    "methods": {},
    "version": 1
  },
  "userdoc": {
    "kind": "user",
    "methods": {},
    "version": 1
  },
  "storageLayout": {
    "storage": [],
    "types": null
  }
}