{
  "address": "0xb610d34f196c88FBaB6768e3d38646E1227c5FcD",
  "abi": [
    {
      "anonymous": false,
      "inputs": [
        {
          "indexed": true,
          "internalType": "uint256",
          "name": "marketId",
          "type": "uint256"
        },
        {
          "indexed": false,
          "internalType": "uint256",
          "name": "timestamp",
          "type": "uint256"
        }
      ],
      "name": "CreateMarket",
      "type": "event"
    },
    {
      "anonymous": false,
      "inputs": [
        {
          "indexed": true,
          "internalType": "bytes32",
          "name": "role",
          "type": "bytes32"
        },
        {
          "indexed": true,
          "internalType": "bytes32",
          "name": "previousAdminRole",
          "type": "bytes32"
        },
        {
          "indexed": true,
          "internalType": "bytes32",
          "name": "newAdminRole",
          "type": "bytes32"
        }
      ],
      "name": "RoleAdminChanged",
      "type": "event"
    },
    {
      "anonymous": false,
      "inputs": [
        {
          "indexed": true,
          "internalType": "bytes32",
          "name": "role",
          "type": "bytes32"
        },
        {
          "indexed": true,
          "internalType": "address",
          "name": "account",
          "type": "address"
        },
        {
          "indexed": true,
          "internalType": "address",
          "name": "sender",
          "type": "address"
        }
      ],
      "name": "RoleGranted",
      "type": "event"
    },
    {
      "anonymous": false,
      "inputs": [
        {
          "indexed": true,
          "internalType": "bytes32",
          "name": "role",
          "type": "bytes32"
        },
        {
          "indexed": true,
          "internalType": "address",
          "name": "account",
          "type": "address"
        },
        {
          "indexed": true,
          "internalType": "address",
          "name": "sender",
          "type": "address"
        }
      ],
      "name": "RoleRevoked",
      "type": "event"
    },
    {
      "anonymous": false,
      "inputs": [
        {
          "indexed": true,
          "internalType": "uint256",
          "name": "marketId",
          "type": "uint256"
        },
        {
          "indexed": false,
          "internalType": "bool",
          "name": "oldStatus",
          "type": "bool"
        },
        {
          "indexed": false,
          "internalType": "bool",
          "name": "newStatus",
          "type": "bool"
        }
      ],
      "name": "UpdateMarketActive",
      "type": "event"
    },
    {
      "anonymous": false,
      "inputs": [
        {
          "indexed": true,
          "internalType": "uint256",
          "name": "marketId",
          "type": "uint256"
        },
        {
          "indexed": false,
          "internalType": "bytes32",
          "name": "oldFundingRateId",
          "type": "bytes32"
        },
        {
          "indexed": false,
          "internalType": "bytes32",
          "name": "newFundingRateId",
          "type": "bytes32"
        }
      ],
      "name": "UpdateMarketFundingRateId",
      "type": "event"
    },
    {
      "anonymous": false,
      "inputs": [
        {
          "indexed": true,
          "internalType": "uint256",
          "name": "marketId",
          "type": "uint256"
        },
        {
          "indexed": false,
          "internalType": "string",
          "name": "oldIdentifier",
          "type": "string"
        },
        {
          "indexed": false,
          "internalType": "string",
          "name": "newIdentifier",
          "type": "string"
        }
      ],
      "name": "UpdateMarketIdentifier",
      "type": "event"
    },
    {
      "anonymous": false,
      "inputs": [
        {
          "indexed": true,
          "internalType": "uint256",
          "name": "marketId",
          "type": "uint256"
        },
        {
          "indexed": false,
          "internalType": "bytes32",
          "name": "oldMuonPriceFeedId",
          "type": "bytes32"
        },
        {
          "indexed": false,
          "internalType": "bytes32",
          "name": "newMuonPriceFeedId",
          "type": "bytes32"
        }
      ],
      "name": "UpdateMarketMuonPriceFeedId",
      "type": "event"
    },
    {
      "anonymous": false,
      "inputs": [
        {
          "indexed": true,
          "internalType": "uint256",
          "name": "marketId",
          "type": "uint256"
        },
        {
          "indexed": false,
          "internalType": "string",
          "name": "oldSymbol",
          "type": "string"
        },
        {
          "indexed": false,
          "internalType": "string",
          "name": "newSymbol",
          "type": "string"
        }
      ],
      "name": "UpdateMarketSymbol",
      "type": "event"
    },
    {
      "anonymous": false,
      "inputs": [
        {
          "indexed": true,
          "internalType": "uint256",
          "name": "marketId",
          "type": "uint256"
        },
        {
          "indexed": false,
          "internalType": "uint256",
          "name": "oldProtocolFee",
          "type": "uint256"
        },
        {
          "indexed": false,
          "internalType": "uint256",
          "name": "newProtocolFee",
          "type": "uint256"
        }
      ],
      "name": "UpdateProtocolFee",
      "type": "event"
    },
    {
      "inputs": [
        {
          "internalType": "string",
          "name": "identifier",
          "type": "string"
        },
        {
          "internalType": "enum MarketType",
          "name": "marketType",
          "type": "uint8"
        },
        {
          "internalType": "bool",
          "name": "active",
          "type": "bool"
        },
        {
          "internalType": "string",
          "name": "baseCurrency",
          "type": "string"
        },
        {
          "internalType": "string",
          "name": "quoteCurrency",
          "type": "string"
        },
        {
          "internalType": "string",
          "name": "symbol",
          "type": "string"
        },
        {
          "internalType": "bytes32",
          "name": "muonPriceFeedId",
          "type": "bytes32"
        },
        {
          "internalType": "bytes32",
          "name": "fundingRateId",
          "type": "bytes32"
        },
        {
          "internalType": "uint256",
          "name": "protocolFee",
          "type": "uint256"
        }
      ],
      "name": "createMarket",
      "outputs": [
        {
          "components": [
            {
              "internalType": "uint256",
              "name": "marketId",
              "type": "uint256"
            },
            {
              "internalType": "string",
              "name": "identifier",
              "type": "string"
            },
            {
              "internalType": "enum MarketType",
              "name": "marketType",
              "type": "uint8"
            },
            {
              "internalType": "bool",
              "name": "active",
              "type": "bool"
            },
            {
              "internalType": "string",
              "name": "baseCurrency",
              "type": "string"
            },
            {
              "internalType": "string",
              "name": "quoteCurrency",
              "type": "string"
            },
            {
              "internalType": "string",
              "name": "symbol",
              "type": "string"
            },
            {
              "internalType": "bytes32",
              "name": "muonPriceFeedId",
              "type": "bytes32"
            },
            {
              "internalType": "bytes32",
              "name": "fundingRateId",
              "type": "bytes32"
            },
            {
              "internalType": "uint256",
              "name": "protocolFee",
              "type": "uint256"
            }
          ],
          "internalType": "struct Market",
          "name": "market",
          "type": "tuple"
        }
      ],
      "stateMutability": "nonpayable",
      "type": "function"
    },
    {
      "inputs": [
        {
          "internalType": "uint256",
          "name": "marketId",
          "type": "uint256"
        },
        {
          "internalType": "bool",
          "name": "active",
          "type": "bool"
        }
      ],
      "name": "updateMarketActive",
      "outputs": [],
      "stateMutability": "nonpayable",
      "type": "function"
    },
    {
      "inputs": [
        {
          "internalType": "uint256",
          "name": "marketId",
          "type": "uint256"
        },
        {
          "internalType": "bytes32",
          "name": "fundingRateId",
          "type": "bytes32"
        }
      ],
      "name": "updateMarketFundingRateId",
      "outputs": [],
      "stateMutability": "nonpayable",
      "type": "function"
    },
    {
      "inputs": [
        {
          "internalType": "uint256",
          "name": "marketId",
          "type": "uint256"
        },
        {
          "internalType": "string",
          "name": "identifier",
          "type": "string"
        }
      ],
      "name": "updateMarketIdentifier",
      "outputs": [],
      "stateMutability": "nonpayable",
      "type": "function"
    },
    {
      "inputs": [
        {
          "internalType": "uint256",
          "name": "marketId",
          "type": "uint256"
        },
        {
          "internalType": "bytes32",
          "name": "muonPriceFeedId",
          "type": "bytes32"
        }
      ],
      "name": "updateMarketMuonPriceFeedId",
      "outputs": [],
      "stateMutability": "nonpayable",
      "type": "function"
    },
    {
      "inputs": [
        {
          "internalType": "uint256",
          "name": "marketId",
          "type": "uint256"
        },
        {
          "internalType": "uint256",
          "name": "protocolFee",
          "type": "uint256"
        }
      ],
      "name": "updateMarketProtocolFee",
      "outputs": [],
      "stateMutability": "nonpayable",
      "type": "function"
    },
    {
      "inputs": [
        {
          "internalType": "uint256",
          "name": "marketId",
          "type": "uint256"
        },
        {
          "internalType": "string",
          "name": "symbol",
          "type": "string"
        }
      ],
      "name": "updateMarketSymbol",
      "outputs": [],
      "stateMutability": "nonpayable",
      "type": "function"
    }
  ],
  "transactionHash": "0xcd085c4dad09976ab99ad91394eaefd6e0bbb9430b87b029739679b7e1fb4e31",
  "args": [],
  "numDeployments": 2,
  "solcInputHash": "a6925ff196b2b2a0d54518a7efb46fd5",
  "bytecode": "0x60808060405234610016576112fe908161001c8239f35b600080fdfe6080604052600436101561001257600080fd5b60003560e01c806310a07016146109425780634f2e5f49146108d15780636ef2d16a14610573578063963f8af9146103a4578063c66473441461032d578063c6b51ff8146101125763d7c957e11461006957600080fd5b3461010d57604036600319011261010d5760043560243580151580820361010d577fc47d7fc0207cc383fd148db1590be3c88e086e7be48df0da828cea0950aa06ff916040916100b7610ef5565b846000526000805160206112b28339815191526020526100fe60ff600285600020015460081c1692600285600020019061ff00825491151560081b169061ff001916179055565b825191151582526020820152a2005b600080fd5b3461010d5761012036610a3f565b919061012a610ef5565b816000526000805160206112b283398151915260208181526005604060002001604051926000918481549361015e85610af9565b9283835260019587878216918260001461030d5750506001146102cc575b5061018992500385610a90565b85600052825260056040600020019167ffffffffffffffff87116102b6576101bb876101b58554610af9565b85610b33565b600090601f881160011461022a57509186807f3f1cfc37383a6c040592e31f3ca21caabb37626b809c02ac098bef078abc626497989361021a9560009361021f575b501b906000198460031b1c19161790555b60405193849384611276565b0390a2005b88013592508a6101fd565b90601f1988168460005282600020926000905b82821061029f575050918893917f3f1cfc37383a6c040592e31f3ca21caabb37626b809c02ac098bef078abc6264989961021a969410610285575b505082811b01905561020e565b870135600019600386901b60f8161c191690558880610278565b808685968294968c0135815501950193019061023d565b634e487b7160e01b600052604160045260246000fd5b915050600052848480600020856000915b8583106102f457505061018993508201018a61017c565b80919294505483858b01015201910185908588936102dd565b60ff19168582015261018995151560051b85010192508c915061017c9050565b3461010d57604036600319011261010d576004357fb03cba1fd26bee931da9fac9c0a6b1ec951fa21622fb17480acb831a2a83ed6d604060243561036f610ef5565b836000526000805160206112b283398151915260205260088260002001549080600884600020015582519182526020820152a2005b3461010d576103b236610a3f565b91906103bc610ef5565b816000526000805160206112b2833981519152602081815260018060406000200192604051938460008254926103f184610af9565b93848452878782169182600014610553575050600114610512575b5061041992500385610a90565b856000528252806040600020019167ffffffffffffffff87116102b657610444876101b58554610af9565b600090601f88116001146104a157509186807f9c03a6328d629f71172140597db1ffd5a40f57775041acf95d3166bde24d470897989361021a9560009361021f57501b906000198460031b1c191617905560405193849384611276565b90601f1988168460005282600020926000905b8282106104fb575050918893917f9c03a6328d629f71172140597db1ffd5a40f57775041acf95d3166bde24d4708989961021a96941061028557505082811b01905561020e565b808685968294968c013581550195019301906104b4565b915050600052848480600020856000915b85831061053a57505061041993508201018a61040c565b80919294505483858b0101520191018590858893610523565b60ff19168582015261041995151560051b85010192508c915061040c9050565b3461010d5761012036600319011261010d5767ffffffffffffffff60043581811161010d576105a69036906004016109c9565b916009602435101561010d5760443590811515820361010d5760643581811161010d576105d79036906004016109c9565b919060843582811161010d576105f19036906004016109c9565b91909260a43590811161010d5761060c9036906004016109c9565b949095600061012060405161062081610a73565b8281526060602082015282604082015282606082015260606080820152606060a0820152606060c08201528260e0820152826101008201520152610662610ef5565b6000805160206112d283398151915254976001890189116108bb576040519961068a8b610a73565b60018a018b52369061069b92610ab2565b60208a015260243560408a01521515606089015236906106ba92610ab2565b608087015236906106ca92610ab2565b60a085015236906106da92610ab2565b60c083015260c43560e083015260e43561010083015261010435610120830152600181016000526000805160206112b28339815191526020528160406000209061072391610b87565b6000805160206112d283398151915254680100000000000000008110156102b65760018101806000805160206112d2833981519152558110156108a5578260096107a1926000805160206112d2833981519152600052027feb21176ac14497952fa1c3562b72ff4d112b01e8e843fa616cbfb607b14d529901610b87565b7f3e2e072ef21daabbedc368a9324906dd19c6af3ae6342fc9dc775643134e2d1c60206001604051934285520192a26040519060208252805160208301526020810151906107fd61014092836040860152610160850190610a1a565b91604082015192600984101561088f5761086f610120918695606087015260608501511515608087015261085a610846608087015192601f1993848a83030160a08b0152610a1a565b60a0870151838983030160c08a0152610a1a565b9060c0860151908783030160e0880152610a1a565b9260e0810151610100860152610100810151828601520151908301520390f35b634e487b7160e01b600052602160045260246000fd5b634e487b7160e01b600052603260045260246000fd5b634e487b7160e01b600052601160045260246000fd5b3461010d5760407f2794f30f33f94b4afa0127a2678849ece3366233aabb816d910f55ff0723eb6a610902366109b3565b61090d939193610ef5565b836000526000805160206112b283398151915260205260078260002001549080600784600020015582519182526020820152a2005b3461010d5760407fe84cbed4a32641f1259eae04f63540988c6dc276f2f522482d82b6acc5980521610973366109b3565b61097e939193610ef5565b836000526000805160206112b283398151915260205260068260002001549080600684600020015582519182526020820152a2005b604090600319011261010d576004359060243590565b9181601f8401121561010d5782359167ffffffffffffffff831161010d576020838186019501011161010d57565b60005b838110610a0a5750506000910152565b81810151838201526020016109fa565b90602091610a33815180928185528580860191016109f7565b601f01601f1916010190565b90604060031983011261010d57600435916024359067ffffffffffffffff821161010d57610a6f916004016109c9565b9091565b610140810190811067ffffffffffffffff8211176102b657604052565b90601f8019910116810190811067ffffffffffffffff8211176102b657604052565b92919267ffffffffffffffff82116102b65760405191610adc601f8201601f191660200184610a90565b82948184528183011161010d578281602093846000960137010152565b90600182811c92168015610b29575b6020831014610b1357565b634e487b7160e01b600052602260045260246000fd5b91607f1691610b08565b90601f8111610b4157505050565b600091825260208220906020601f850160051c83019410610b7d575b601f0160051c01915b828110610b7257505050565b818155600101610b66565b9092508290610b5d565b908051825560018083016020918284015191825167ffffffffffffffff938482116102b6578190610bc282610bbc8654610af9565b86610b33565b8690601f8311600114610e9257600092610e87575b5050600019600383901b1c191690831b1790555b604084015160028601600982101561088f578054606087015161ff0090151560081b1660ff9390931661ffff199091161791909117905560039081860160808601518051908582116102b6578190610c4782610bbc8654610af9565b8790601f8311600114610e2557600092610e1a575b505060001982861b1c191690831b1790555b6004860160a08601518051908582116102b6578190610c9182610bbc8654610af9565b8790601f8311600114610db857600092610dad575b505060001982861b1c191690831b1790555b600586019360c086015180519485116102b657610cdf85610cd98854610af9565b88610b33565b81601f8611600114610d3957509284809360089896936101209896600095610d2e575b50501b92600019911b1c19161790555b60e0810151600685015561010081015160078501550151910155565b015193503880610d02565b9294939190601f1985168760005284600020946000905b828210610d9657505091859391610120989660089a98969410610d7c575b50505050811b019055610d12565b01519060f884600019921b161c1916905538808080610d6e565b808986988294978701518155019701940190610d50565b015190503880610ca6565b90859350601f1983169185600052896000209260005b8b828210610e045750508411610dec575b505050811b019055610cb8565b015160001983881b60f8161c19169055388080610ddf565b8385015186558997909501949384019301610dce565b015190503880610c5c565b90859350601f1983169185600052896000209260005b8b828210610e715750508411610e59575b505050811b019055610c6e565b015160001983881b60f8161c19169055388080610e4c565b8385015186558997909501949384019301610e3b565b015190503880610bd7565b90859350601f1983169185600052886000209260005b8a828210610edf5750508411610ec6575b505050811b019055610beb565b015160001960f88460031b161c19169055388080610eb9565b8385015186558997909501949384019301610ea8565b3360009081527f179938346c9d0d47f15c493beff04da15f2603b3cb62e7f87fb5c030ea789419602090815260408083205490927fa49807205ce4d355092ef5a8a18f56e8913cf4a201fbe287825b095693c217759160ff1615610f595750505050565b83519167ffffffffffffffff90336060850183811186821017611251578752602a8552858501918736843785511561123d5760308353855191600192831015611229576078602188015360295b8381116111bf575061117d579087519360808501908582109082111761116957885260428452868401946060368737845115611155576030865384518210156111555790607860218601536041915b8183116110e7575050506110a5576110a19386936110859361107660489461104d9a519a8b957f416363657373436f6e74726f6c3a206163636f756e74200000000000000000008c88015251809260378801906109f7565b8401917001034b99036b4b9b9b4b733903937b6329607d1b6037840152518093868401906109f7565b01036028810187520185610a90565b5192839262461bcd60e51b845260048401526024830190610a1a565b0390fd5b60648587519062461bcd60e51b825280600483015260248201527f537472696e67733a20686578206c656e67746820696e73756666696369656e746044820152fd5b909192600f81166010811015611141576f181899199a1a9b1b9c1cb0b131b232b360811b901a6111178588611265565b5360041c92801561112d57600019019190610ff5565b634e487b7160e01b82526011600452602482fd5b634e487b7160e01b83526032600452602483fd5b634e487b7160e01b81526032600452602490fd5b634e487b7160e01b86526041600452602486fd5b60648789519062461bcd60e51b825280600483015260248201527f537472696e67733a20686578206c656e67746820696e73756666696369656e746044820152fd5b90600f81166010811015611215576f181899199a1a9b1b9c1cb0b131b232b360811b901a6111ed838a611265565b5360041c9080156112015760001901610fa6565b634e487b7160e01b87526011600452602487fd5b634e487b7160e01b88526032600452602488fd5b634e487b7160e01b86526032600452602486fd5b634e487b7160e01b85526032600452602485fd5b634e487b7160e01b85526041600452602485fd5b9081518110156108a5570160200190565b919260209361128e8293604086526040860190610a1a565b9385818603910152818452848401376000828201840152601f01601f191601019056fe35cc72510b152d9944ca07ae5bfb481ff4b7afbbbd870172068c721dd022931e35cc72510b152d9944ca07ae5bfb481ff4b7afbbbd870172068c721dd022931fa164736f6c6343000810000a",
  "devdoc": {
    "kind": "dev",
    "methods": {},
    "version": 1
  },
  "userdoc": {
    "kind": "user",
    "methods": {},
    "version": 1
  },
  "storageLayout": {
    "storage": [],
    "types": null
  }
}