{
  "address": "0xD5284E3Ff7272164178997725BF099B219294167",
  "abi": [
    {
      "anonymous": false,
      "inputs": [
        {
          "indexed": true,
          "internalType": "uint256",
          "name": "marketId",
          "type": "uint256"
        },
        {
          "indexed": false,
          "internalType": "uint256",
          "name": "timestamp",
          "type": "uint256"
        }
      ],
      "name": "CreateMarket",
      "type": "event"
    },
    {
      "anonymous": false,
      "inputs": [
        {
          "indexed": true,
          "internalType": "bytes32",
          "name": "role",
          "type": "bytes32"
        },
        {
          "indexed": true,
          "internalType": "bytes32",
          "name": "previousAdminRole",
          "type": "bytes32"
        },
        {
          "indexed": true,
          "internalType": "bytes32",
          "name": "newAdminRole",
          "type": "bytes32"
        }
      ],
      "name": "RoleAdminChanged",
      "type": "event"
    },
    {
      "anonymous": false,
      "inputs": [
        {
          "indexed": true,
          "internalType": "bytes32",
          "name": "role",
          "type": "bytes32"
        },
        {
          "indexed": true,
          "internalType": "address",
          "name": "account",
          "type": "address"
        },
        {
          "indexed": true,
          "internalType": "address",
          "name": "sender",
          "type": "address"
        }
      ],
      "name": "RoleGranted",
      "type": "event"
    },
    {
      "anonymous": false,
      "inputs": [
        {
          "indexed": true,
          "internalType": "bytes32",
          "name": "role",
          "type": "bytes32"
        },
        {
          "indexed": true,
          "internalType": "address",
          "name": "account",
          "type": "address"
        },
        {
          "indexed": true,
          "internalType": "address",
          "name": "sender",
          "type": "address"
        }
      ],
      "name": "RoleRevoked",
      "type": "event"
    },
    {
      "anonymous": false,
      "inputs": [
        {
          "indexed": true,
          "internalType": "uint256",
          "name": "marketId",
          "type": "uint256"
        },
        {
          "indexed": false,
          "internalType": "bool",
          "name": "oldStatus",
          "type": "bool"
        },
        {
          "indexed": false,
          "internalType": "bool",
          "name": "newStatus",
          "type": "bool"
        }
      ],
      "name": "UpdateMarketActive",
      "type": "event"
    },
    {
      "anonymous": false,
      "inputs": [
        {
          "indexed": true,
          "internalType": "uint256",
          "name": "marketId",
          "type": "uint256"
        },
        {
          "indexed": false,
          "internalType": "bytes32",
          "name": "oldFundingRateId",
          "type": "bytes32"
        },
        {
          "indexed": false,
          "internalType": "bytes32",
          "name": "newFundingRateId",
          "type": "bytes32"
        }
      ],
      "name": "UpdateMarketFundingRateId",
      "type": "event"
    },
    {
      "anonymous": false,
      "inputs": [
        {
          "indexed": true,
          "internalType": "uint256",
          "name": "marketId",
          "type": "uint256"
        },
        {
          "indexed": false,
          "internalType": "string",
          "name": "oldIdentifier",
          "type": "string"
        },
        {
          "indexed": false,
          "internalType": "string",
          "name": "newIdentifier",
          "type": "string"
        }
      ],
      "name": "UpdateMarketIdentifier",
      "type": "event"
    },
    {
      "anonymous": false,
      "inputs": [
        {
          "indexed": true,
          "internalType": "uint256",
          "name": "marketId",
          "type": "uint256"
        },
        {
          "indexed": false,
          "internalType": "bytes32",
          "name": "oldMuonPriceFeedId",
          "type": "bytes32"
        },
        {
          "indexed": false,
          "internalType": "bytes32",
          "name": "newMuonPriceFeedId",
          "type": "bytes32"
        }
      ],
      "name": "UpdateMarketMuonPriceFeedId",
      "type": "event"
    },
    {
      "anonymous": false,
      "inputs": [
        {
          "indexed": true,
          "internalType": "uint256",
          "name": "marketId",
          "type": "uint256"
        },
        {
          "indexed": false,
          "internalType": "uint256",
          "name": "oldProtocolFee",
          "type": "uint256"
        },
        {
          "indexed": false,
          "internalType": "uint256",
          "name": "newProtocolFee",
          "type": "uint256"
        }
      ],
      "name": "UpdateProtocolFee",
      "type": "event"
    },
    {
      "inputs": [
        {
          "internalType": "string",
          "name": "identifier",
          "type": "string"
        },
        {
          "internalType": "enum MarketType",
          "name": "marketType",
          "type": "uint8"
        },
        {
          "internalType": "bool",
          "name": "active",
          "type": "bool"
        },
        {
          "internalType": "string",
          "name": "baseCurrency",
          "type": "string"
        },
        {
          "internalType": "string",
          "name": "quoteCurrency",
          "type": "string"
        },
        {
          "internalType": "string",
          "name": "symbol",
          "type": "string"
        },
        {
          "internalType": "bytes32",
          "name": "muonPriceFeedId",
          "type": "bytes32"
        },
        {
          "internalType": "bytes32",
          "name": "fundingRateId",
          "type": "bytes32"
        },
        {
          "internalType": "uint256",
          "name": "protocolFee",
          "type": "uint256"
        }
      ],
      "name": "createMarket",
      "outputs": [
        {
          "components": [
            {
              "internalType": "uint256",
              "name": "marketId",
              "type": "uint256"
            },
            {
              "internalType": "string",
              "name": "identifier",
              "type": "string"
            },
            {
              "internalType": "enum MarketType",
              "name": "marketType",
              "type": "uint8"
            },
            {
              "internalType": "bool",
              "name": "active",
              "type": "bool"
            },
            {
              "internalType": "string",
              "name": "baseCurrency",
              "type": "string"
            },
            {
              "internalType": "string",
              "name": "quoteCurrency",
              "type": "string"
            },
            {
              "internalType": "string",
              "name": "symbol",
              "type": "string"
            },
            {
              "internalType": "bytes32",
              "name": "muonPriceFeedId",
              "type": "bytes32"
            },
            {
              "internalType": "bytes32",
              "name": "fundingRateId",
              "type": "bytes32"
            },
            {
              "internalType": "uint256",
              "name": "protocolFee",
              "type": "uint256"
            }
          ],
          "internalType": "struct Market",
          "name": "market",
          "type": "tuple"
        }
      ],
      "stateMutability": "nonpayable",
      "type": "function"
    },
    {
      "inputs": [
        {
          "internalType": "uint256",
          "name": "marketId",
          "type": "uint256"
        },
        {
          "internalType": "bool",
          "name": "active",
          "type": "bool"
        }
      ],
      "name": "updateMarketActive",
      "outputs": [],
      "stateMutability": "nonpayable",
      "type": "function"
    },
    {
      "inputs": [
        {
          "internalType": "uint256",
          "name": "marketId",
          "type": "uint256"
        },
        {
          "internalType": "bytes32",
          "name": "fundingRateId",
          "type": "bytes32"
        }
      ],
      "name": "updateMarketFundingRateId",
      "outputs": [],
      "stateMutability": "nonpayable",
      "type": "function"
    },
    {
      "inputs": [
        {
          "internalType": "uint256",
          "name": "marketId",
          "type": "uint256"
        },
        {
          "internalType": "string",
          "name": "identifier",
          "type": "string"
        }
      ],
      "name": "updateMarketIdentifier",
      "outputs": [],
      "stateMutability": "nonpayable",
      "type": "function"
    },
    {
      "inputs": [
        {
          "internalType": "uint256",
          "name": "marketId",
          "type": "uint256"
        },
        {
          "internalType": "bytes32",
          "name": "muonPriceFeedId",
          "type": "bytes32"
        }
      ],
      "name": "updateMarketMuonPriceFeedId",
      "outputs": [],
      "stateMutability": "nonpayable",
      "type": "function"
    },
    {
      "inputs": [
        {
          "internalType": "uint256",
          "name": "marketId",
          "type": "uint256"
        },
        {
          "internalType": "uint256",
          "name": "protocolFee",
          "type": "uint256"
        }
      ],
      "name": "updateMarketProtocolFee",
      "outputs": [],
      "stateMutability": "nonpayable",
      "type": "function"
    }
  ],
  "transactionHash": "0xeada877fac3fcdb86f6b5a6f4c943f2458c5eccbd0371105ad7280d984d05d71",
  "args": [],
  "numDeployments": 1,
  "solcInputHash": "be9232a782139b4a70c2c17c27752f91",
  "bytecode": "0x60808060405234610016576110fc908161001c8239f35b600080fdfe6080604052600436101561001257600080fd5b60003560e01c806310a07016146107af5780634f2e5f491461073e5780636ef2d16a146103e0578063963f8af91461017e578063c6647344146101075763d7c957e11461005e57600080fd5b3461010257604036600319011261010257600435602435801515808203610102577fc47d7fc0207cc383fd148db1590be3c88e086e7be48df0da828cea0950aa06ff916040916100ac610d2e565b846000526000805160206110b08339815191526020526100f360ff600285600020015460081c1692600285600020019061ff00825491151560081b169061ff001916179055565b825191151582526020820152a2005b600080fd5b34610102576040366003190112610102576004357fb03cba1fd26bee931da9fac9c0a6b1ec951fa21622fb17480acb831a2a83ed6d6040602435610149610d2e565b836000526000805160206110b083398151915260205260088260002001549080600884600020015582519182526020820152a2005b346101025760403660031901126101025767ffffffffffffffff600435602435828111610102576101b3903690600401610836565b6101be939193610d2e565b826000526000805160206110b08339815191529060209282845260018060406000200193604051948560008254926101f584610932565b938484528a87821691826000146103c057505060011461037f575b5061021d925003866108c9565b86600052855280604060002001918311610369576102458361023f8454610932565b8461096c565b6000601f84116001146102de579183806102ae979695937f9c03a6328d629f71172140597db1ffd5a40f57775041acf95d3166bde24d4708999a956000936102d3575b501b906000198460031b1c19161790555b80604051958694604086526040860190610887565b9284840386860152818452858401376000828201850152601f01601f191601030190a2005b86013592508b610288565b601f1984169083600052866000209160005b8181106103545750918593916102ae9897967f9c03a6328d629f71172140597db1ffd5a40f57775041acf95d3166bde24d47089a9b96941061033a575b505082811b019055610299565b850135600019600386901b60f8161c19169055898061032d565b8a8301358455928401929188019188016102f0565b634e487b7160e01b600052604160045260246000fd5b915050600052858780600020856000915b8583106103a757505061021d93508201018b610210565b80919294505483858c0101520191018890858993610390565b60ff19168582015261021d95151560051b85010192508d91506102109050565b34610102576101203660031901126101025767ffffffffffffffff60043581811161010257610413903690600401610836565b9160096024351015610102576044359081151582036101025760643581811161010257610444903690600401610836565b91906084358281116101025761045e903690600401610836565b91909260a43590811161010257610479903690600401610836565b949095600061012060405161048d816108ac565b8281526060602082015282604082015282606082015260606080820152606060a0820152606060c08201528260e08201528261010082015201526104cf610d2e565b6000805160206110d0833981519152549760018901891161072857604051996104f78b6108ac565b60018a018b523690610508926108eb565b60208a015260243560408a0152151560608901523690610527926108eb565b60808701523690610537926108eb565b60a08501523690610547926108eb565b60c083015260c43560e083015260e43561010083015261010435610120830152600181016000526000805160206110b083398151915260205281604060002090610590916109c0565b6000805160206110d083398151915254680100000000000000008110156103695760018101806000805160206110d0833981519152558110156107125782600961060e926000805160206110d0833981519152600052027feb21176ac14497952fa1c3562b72ff4d112b01e8e843fa616cbfb607b14d5299016109c0565b7f3e2e072ef21daabbedc368a9324906dd19c6af3ae6342fc9dc775643134e2d1c60206001604051934285520192a260405190602082528051602083015260208101519061066a61014092836040860152610160850190610887565b9160408201519260098410156106fc576106dc61012091869560608701526060850151151560808701526106c76106b3608087015192601f1993848a83030160a08b0152610887565b60a0870151838983030160c08a0152610887565b9060c0860151908783030160e0880152610887565b9260e0810151610100860152610100810151828601520151908301520390f35b634e487b7160e01b600052602160045260246000fd5b634e487b7160e01b600052603260045260246000fd5b634e487b7160e01b600052601160045260246000fd5b346101025760407f2794f30f33f94b4afa0127a2678849ece3366233aabb816d910f55ff0723eb6a61076f36610820565b61077a939193610d2e565b836000526000805160206110b083398151915260205260078260002001549080600784600020015582519182526020820152a2005b346101025760407fe84cbed4a32641f1259eae04f63540988c6dc276f2f522482d82b6acc59805216107e036610820565b6107eb939193610d2e565b836000526000805160206110b083398151915260205260068260002001549080600684600020015582519182526020820152a2005b6040906003190112610102576004359060243590565b9181601f840112156101025782359167ffffffffffffffff8311610102576020838186019501011161010257565b60005b8381106108775750506000910152565b8181015183820152602001610867565b906020916108a081518092818552858086019101610864565b601f01601f1916010190565b610140810190811067ffffffffffffffff82111761036957604052565b90601f8019910116810190811067ffffffffffffffff82111761036957604052565b92919267ffffffffffffffff82116103695760405191610915601f8201601f1916602001846108c9565b829481845281830111610102578281602093846000960137010152565b90600182811c92168015610962575b602083101461094c57565b634e487b7160e01b600052602260045260246000fd5b91607f1691610941565b90601f811161097a57505050565b600091825260208220906020601f850160051c830194106109b6575b601f0160051c01915b8281106109ab57505050565b81815560010161099f565b9092508290610996565b908051825560018083016020918284015191825167ffffffffffffffff938482116103695781906109fb826109f58654610932565b8661096c565b8690601f8311600114610ccb57600092610cc0575b5050600019600383901b1c191690831b1790555b60408401516002860160098210156106fc578054606087015161ff0090151560081b1660ff9390931661ffff19909116179190911790556003908186016080860151805190858211610369578190610a80826109f58654610932565b8790601f8311600114610c5e57600092610c53575b505060001982861b1c191690831b1790555b6004860160a0860151805190858211610369578190610aca826109f58654610932565b8790601f8311600114610bf157600092610be6575b505060001982861b1c191690831b1790555b600586019360c0860151805194851161036957610b1885610b128854610932565b8861096c565b81601f8611600114610b7257509284809360089896936101209896600095610b67575b50501b92600019911b1c19161790555b60e0810151600685015561010081015160078501550151910155565b015193503880610b3b565b9294939190601f1985168760005284600020946000905b828210610bcf57505091859391610120989660089a98969410610bb5575b50505050811b019055610b4b565b01519060f884600019921b161c1916905538808080610ba7565b808986988294978701518155019701940190610b89565b015190503880610adf565b90859350601f1983169185600052896000209260005b8b828210610c3d5750508411610c25575b505050811b019055610af1565b015160001983881b60f8161c19169055388080610c18565b8385015186558997909501949384019301610c07565b015190503880610a95565b90859350601f1983169185600052896000209260005b8b828210610caa5750508411610c92575b505050811b019055610aa7565b015160001983881b60f8161c19169055388080610c85565b8385015186558997909501949384019301610c74565b015190503880610a10565b90859350601f1983169185600052886000209260005b8a828210610d185750508411610cff575b505050811b019055610a24565b015160001960f88460031b161c19169055388080610cf2565b8385015186558997909501949384019301610ce1565b3360009081527f179938346c9d0d47f15c493beff04da15f2603b3cb62e7f87fb5c030ea789419602090815260408083205490927fa49807205ce4d355092ef5a8a18f56e8913cf4a201fbe287825b095693c217759160ff1615610d925750505050565b83519167ffffffffffffffff9033606085018381118682101761108a578752602a855285850191873684378551156110765760308353855191600192831015611062576078602188015360295b838111610ff85750610fb65790875193608085019085821090821117610fa257885260428452868401946060368737845115610f8e57603086538451821015610f8e5790607860218601536041915b818311610f2057505050610ede57610eda938693610ebe93610eaf604894610e869a519a8b957f416363657373436f6e74726f6c3a206163636f756e74200000000000000000008c8801525180926037880190610864565b8401917001034b99036b4b9b9b4b733903937b6329607d1b603784015251809386840190610864565b010360288101875201856108c9565b5192839262461bcd60e51b845260048401526024830190610887565b0390fd5b60648587519062461bcd60e51b825280600483015260248201527f537472696e67733a20686578206c656e67746820696e73756666696369656e746044820152fd5b909192600f81166010811015610f7a576f181899199a1a9b1b9c1cb0b131b232b360811b901a610f50858861109e565b5360041c928015610f6657600019019190610e2e565b634e487b7160e01b82526011600452602482fd5b634e487b7160e01b83526032600452602483fd5b634e487b7160e01b81526032600452602490fd5b634e487b7160e01b86526041600452602486fd5b60648789519062461bcd60e51b825280600483015260248201527f537472696e67733a20686578206c656e67746820696e73756666696369656e746044820152fd5b90600f8116601081101561104e576f181899199a1a9b1b9c1cb0b131b232b360811b901a611026838a61109e565b5360041c90801561103a5760001901610ddf565b634e487b7160e01b87526011600452602487fd5b634e487b7160e01b88526032600452602488fd5b634e487b7160e01b86526032600452602486fd5b634e487b7160e01b85526032600452602485fd5b634e487b7160e01b85526041600452602485fd5b90815181101561071257016020019056fe35cc72510b152d9944ca07ae5bfb481ff4b7afbbbd870172068c721dd022931e35cc72510b152d9944ca07ae5bfb481ff4b7afbbbd870172068c721dd022931fa164736f6c6343000810000a",
  "devdoc": {
    "kind": "dev",
    "methods": {},
    "version": 1
  },
  "userdoc": {
    "kind": "user",
    "methods": {},
    "version": 1
  },
  "storageLayout": {
    "storage": [],
    "types": null
  }
}