{
  "address": "0x0c69E57Dd4b55c0b7C8F14fDf4efA69a0dEac762",
  "abi": [
    {
      "inputs": [
        {
          "internalType": "uint256",
          "name": "marketId",
          "type": "uint256"
        }
      ],
      "name": "getMarketById",
      "outputs": [
        {
          "components": [
            {
              "internalType": "uint256",
              "name": "marketId",
              "type": "uint256"
            },
            {
              "internalType": "string",
              "name": "identifier",
              "type": "string"
            },
            {
              "internalType": "enum MarketType",
              "name": "marketType",
              "type": "uint8"
            },
            {
              "internalType": "bool",
              "name": "active",
              "type": "bool"
            },
            {
              "internalType": "string",
              "name": "baseCurrency",
              "type": "string"
            },
            {
              "internalType": "string",
              "name": "quoteCurrency",
              "type": "string"
            },
            {
              "internalType": "string",
              "name": "symbol",
              "type": "string"
            },
            {
              "internalType": "bytes32",
              "name": "muonPriceFeedId",
              "type": "bytes32"
            },
            {
              "internalType": "bytes32",
              "name": "fundingRateId",
              "type": "bytes32"
            },
            {
              "internalType": "uint256",
              "name": "protocolFee",
              "type": "uint256"
            }
          ],
          "internalType": "struct Market",
          "name": "market",
          "type": "tuple"
        }
      ],
      "stateMutability": "view",
      "type": "function"
    },
    {
      "inputs": [
        {
          "internalType": "uint256",
          "name": "positionId",
          "type": "uint256"
        }
      ],
      "name": "getMarketFromPositionId",
      "outputs": [
        {
          "components": [
            {
              "internalType": "uint256",
              "name": "marketId",
              "type": "uint256"
            },
            {
              "internalType": "string",
              "name": "identifier",
              "type": "string"
            },
            {
              "internalType": "enum MarketType",
              "name": "marketType",
              "type": "uint8"
            },
            {
              "internalType": "bool",
              "name": "active",
              "type": "bool"
            },
            {
              "internalType": "string",
              "name": "baseCurrency",
              "type": "string"
            },
            {
              "internalType": "string",
              "name": "quoteCurrency",
              "type": "string"
            },
            {
              "internalType": "string",
              "name": "symbol",
              "type": "string"
            },
            {
              "internalType": "bytes32",
              "name": "muonPriceFeedId",
              "type": "bytes32"
            },
            {
              "internalType": "bytes32",
              "name": "fundingRateId",
              "type": "bytes32"
            },
            {
              "internalType": "uint256",
              "name": "protocolFee",
              "type": "uint256"
            }
          ],
          "internalType": "struct Market",
          "name": "market",
          "type": "tuple"
        }
      ],
      "stateMutability": "view",
      "type": "function"
    },
    {
      "inputs": [
        {
          "internalType": "uint256",
          "name": "marketId",
          "type": "uint256"
        }
      ],
      "name": "getMarketProtocolFee",
      "outputs": [
        {
          "internalType": "uint256",
          "name": "",
          "type": "uint256"
        }
      ],
      "stateMutability": "view",
      "type": "function"
    },
    {
      "inputs": [],
      "name": "getMarkets",
      "outputs": [
        {
          "components": [
            {
              "internalType": "uint256",
              "name": "marketId",
              "type": "uint256"
            },
            {
              "internalType": "string",
              "name": "identifier",
              "type": "string"
            },
            {
              "internalType": "enum MarketType",
              "name": "marketType",
              "type": "uint8"
            },
            {
              "internalType": "bool",
              "name": "active",
              "type": "bool"
            },
            {
              "internalType": "string",
              "name": "baseCurrency",
              "type": "string"
            },
            {
              "internalType": "string",
              "name": "quoteCurrency",
              "type": "string"
            },
            {
              "internalType": "string",
              "name": "symbol",
              "type": "string"
            },
            {
              "internalType": "bytes32",
              "name": "muonPriceFeedId",
              "type": "bytes32"
            },
            {
              "internalType": "bytes32",
              "name": "fundingRateId",
              "type": "bytes32"
            },
            {
              "internalType": "uint256",
              "name": "protocolFee",
              "type": "uint256"
            }
          ],
          "internalType": "struct Market[]",
          "name": "markets",
          "type": "tuple[]"
        }
      ],
      "stateMutability": "view",
      "type": "function"
    },
    {
      "inputs": [
        {
          "internalType": "uint256[]",
          "name": "marketIds",
          "type": "uint256[]"
        }
      ],
      "name": "getMarketsByIds",
      "outputs": [
        {
          "components": [
            {
              "internalType": "uint256",
              "name": "marketId",
              "type": "uint256"
            },
            {
              "internalType": "string",
              "name": "identifier",
              "type": "string"
            },
            {
              "internalType": "enum MarketType",
              "name": "marketType",
              "type": "uint8"
            },
            {
              "internalType": "bool",
              "name": "active",
              "type": "bool"
            },
            {
              "internalType": "string",
              "name": "baseCurrency",
              "type": "string"
            },
            {
              "internalType": "string",
              "name": "quoteCurrency",
              "type": "string"
            },
            {
              "internalType": "string",
              "name": "symbol",
              "type": "string"
            },
            {
              "internalType": "bytes32",
              "name": "muonPriceFeedId",
              "type": "bytes32"
            },
            {
              "internalType": "bytes32",
              "name": "fundingRateId",
              "type": "bytes32"
            },
            {
              "internalType": "uint256",
              "name": "protocolFee",
              "type": "uint256"
            }
          ],
          "internalType": "struct Market[]",
          "name": "markets",
          "type": "tuple[]"
        }
      ],
      "stateMutability": "view",
      "type": "function"
    },
    {
      "inputs": [
        {
          "internalType": "uint256[]",
          "name": "positionIds",
          "type": "uint256[]"
        }
      ],
      "name": "getMarketsFromPositionIds",
      "outputs": [
        {
          "components": [
            {
              "internalType": "uint256",
              "name": "marketId",
              "type": "uint256"
            },
            {
              "internalType": "string",
              "name": "identifier",
              "type": "string"
            },
            {
              "internalType": "enum MarketType",
              "name": "marketType",
              "type": "uint8"
            },
            {
              "internalType": "bool",
              "name": "active",
              "type": "bool"
            },
            {
              "internalType": "string",
              "name": "baseCurrency",
              "type": "string"
            },
            {
              "internalType": "string",
              "name": "quoteCurrency",
              "type": "string"
            },
            {
              "internalType": "string",
              "name": "symbol",
              "type": "string"
            },
            {
              "internalType": "bytes32",
              "name": "muonPriceFeedId",
              "type": "bytes32"
            },
            {
              "internalType": "bytes32",
              "name": "fundingRateId",
              "type": "bytes32"
            },
            {
              "internalType": "uint256",
              "name": "protocolFee",
              "type": "uint256"
            }
          ],
          "internalType": "struct Market[]",
          "name": "markets",
          "type": "tuple[]"
        }
      ],
      "stateMutability": "view",
      "type": "function"
    },
    {
      "inputs": [
        {
          "internalType": "uint256",
          "name": "start",
          "type": "uint256"
        },
        {
          "internalType": "uint256",
          "name": "end",
          "type": "uint256"
        }
      ],
      "name": "getMarketsInRange",
      "outputs": [
        {
          "components": [
            {
              "internalType": "uint256",
              "name": "marketId",
              "type": "uint256"
            },
            {
              "internalType": "string",
              "name": "identifier",
              "type": "string"
            },
            {
              "internalType": "enum MarketType",
              "name": "marketType",
              "type": "uint8"
            },
            {
              "internalType": "bool",
              "name": "active",
              "type": "bool"
            },
            {
              "internalType": "string",
              "name": "baseCurrency",
              "type": "string"
            },
            {
              "internalType": "string",
              "name": "quoteCurrency",
              "type": "string"
            },
            {
              "internalType": "string",
              "name": "symbol",
              "type": "string"
            },
            {
              "internalType": "bytes32",
              "name": "muonPriceFeedId",
              "type": "bytes32"
            },
            {
              "internalType": "bytes32",
              "name": "fundingRateId",
              "type": "bytes32"
            },
            {
              "internalType": "uint256",
              "name": "protocolFee",
              "type": "uint256"
            }
          ],
          "internalType": "struct Market[]",
          "name": "markets",
          "type": "tuple[]"
        }
      ],
      "stateMutability": "view",
      "type": "function"
    },
    {
      "inputs": [],
      "name": "getMarketsLength",
      "outputs": [
        {
          "internalType": "uint256",
          "name": "length",
          "type": "uint256"
        }
      ],
      "stateMutability": "view",
      "type": "function"
    },
    {
      "inputs": [
        {
          "internalType": "uint256",
          "name": "marketId",
          "type": "uint256"
        }
      ],
      "name": "isActiveMarket",
      "outputs": [
        {
          "internalType": "bool",
          "name": "",
          "type": "bool"
        }
      ],
      "stateMutability": "view",
      "type": "function"
    },
    {
      "inputs": [
        {
          "internalType": "uint256",
          "name": "marketId",
          "type": "uint256"
        }
      ],
      "name": "isValidMarketId",
      "outputs": [
        {
          "internalType": "bool",
          "name": "",
          "type": "bool"
        }
      ],
      "stateMutability": "pure",
      "type": "function"
    }
  ],
  "transactionHash": "0x71edb2ab13eec92cc2047eac5efb5a175a9a1b147a9aa26a8a7b9c2433b278df",
  "args": [],
  "numDeployments": 1,
  "solcInputHash": "d90b29cf48681035a62a283f3cda4c3c",
  "bytecode": "0x6080806040523461001657610a8b908161001c8239f35b600080fdfe60806040908082526004908136101561001757600080fd5b600091823560e01c9182630d64cdbd146105e0575081632a6969fc146104f05781633df1c4101461045e57816344c70b85146103e857816355e27ecf146103c75781636e048ae9146102ef57816392ef292c146102b1578163a239675314610250578163dae87fba14610143575063ec2c90161461009457600080fd5b346101405780600319360112610140577f35cc72510b152d9944ca07ae5bfb481ff4b7afbbbd870172068c721dd022931f8054906100d18261068e565b926100de8551948561066c565b82845290815260207feb21176ac14497952fa1c3562b72ff4d112b01e8e843fa616cbfb607b14d52998185015b8484106101235786518061011f888261079e565b0390f35b60098360019261013285610921565b81520192019301929061010b565b80fd5b82843461024c578060031936011261024c57823560249081359481860395861161023a576101728693966109bf565b9480967f35cc72510b152d9944ca07ae5bfb481ff4b7afbbbd870172068c721dd022931f928354985b8681106101af5787518061011f8b8261079e565b808601808711610228578a81101561021657906101f6600961021193888852027feb21176ac14497952fa1c3562b72ff4d112b01e8e843fa616cbfb607b14d529901610921565b610200828c610a34565b5261020b818b610a34565b50610a0f565b61019b565b634e487b7160e01b8552603283528385fd5b634e487b7160e01b8552601183528385fd5b634e487b7160e01b8552601190528184fd5b5080fd5b839150346102ad5760203660031901126102ad578161011f9361029a92610275610800565b5061027e610800565b50358152600080516020610a5f83398151915260205220610921565b90519182916020835260208301906106e6565b8280fd5b82843461024c578160031936011261024c576020907f35cc72510b152d9944ca07ae5bfb481ff4b7afbbbd870172068c721dd022931f549051908152f35b905082346102ad57602091826003193601126103c35780359267ffffffffffffffff918285116103bf57366023860112156103bf57848101359283116103bf576024600595368286891b830101116103bb5761034a856109bf565b96885b8681106103615787518061011f8b8261079e565b80846103b692841b850101358b527fdfc6b7cb23f07b62775a228b58db9a36de27f3d727948dc10389611c6fd10645875285898c2001548b52600080516020610a5f83398151915287526101f6898c20610921565b61034d565b8780fd5b8580fd5b8380fd5b905082346102ad5760203660031901126102ad576020925051903515158152f35b839150346102ad5760203660031901126102ad578161011f9361029a9261040d610800565b50610416610800565b50803582527fdfc6b7cb23f07b62775a228b58db9a36de27f3d727948dc10389611c6fd1064560205282822001548152600080516020610a5f83398151915260205220610921565b8383346101405760203660031901126101405780825161047d8161061d565b5282358152600080516020610a5f833981519152602052600882822001548183516104a78161061d565b52670de0b6b3a76400009181600019048311821515166104dd576020848480850204908181516104d68161061d565b5251908152f35b634e487b7160e01b815260118552602490fd5b905082346102ad57602092836003193601126101405782359267ffffffffffffffff841161024c573660238501121561024c57830135926105308461068e565b9361053d8451958661066c565b80855260248686019160051b830101913683116103c357906024879201905b8382106105d1575050505061057183516109bf565b93815b84518110156105c4578061058b6105bf9287610a34565b518452600080516020610a5f83398151915283526105aa858520610921565b6105b48289610a34565b5261020b8188610a34565b610574565b83518061011f888261079e565b8135815290820190820161055c565b848492346103c35760203660031901126103c357358352600080516020610a5f833981519152602090815292206002015460081c60ff1615158152f35b6020810190811067ffffffffffffffff82111761063957604052565b634e487b7160e01b600052604160045260246000fd5b610140810190811067ffffffffffffffff82111761063957604052565b90601f8019910116810190811067ffffffffffffffff82111761063957604052565b67ffffffffffffffff81116106395760051b60200190565b919082519283825260005b8481106106d2575050826000602080949584010152601f8019910116010190565b6020818301810151848301820152016106b1565b908151815261070460208301516101408060208501528301906106a6565b60408301519060098210156107885761074161075391610765936040860152606086015115156060860152608086015185820360808701526106a6565b60a085015184820360a08601526106a6565b60c084015183820360c08501526106a6565b9160e081015160e083015261010080820151908301526101208091015191015290565b634e487b7160e01b600052602160045260246000fd5b602080820190808352835180925260408301928160408460051b8301019501936000915b8483106107d25750505050505090565b90919293949584806107f0600193603f198682030187528a516106e6565b98019301930191949392906107c2565b6040519061080d8261064f565b816101206000918281526060602082015282604082015282606082015260606080820152606060a0820152606060c08201528260e0820152826101008201520152565b90604051906000835490600182811c90808416968715610917575b602094858410891461090357879884899798995290816000146108e157506001146108a2575b5050506108a09250038361066c565b565b600090815285812095935091905b8183106108c95750506108a09350820101388080610891565b855488840185015294850194879450918301916108b0565b925050506108a094925060ff191682840152151560051b820101388080610891565b634e487b7160e01b85526022600452602485fd5b91607f169161086b565b9060405161092e8161064f565b80928054825261094060018201610850565b6020830152600281015460ff81169160098310156107885760ff600892610120946040870152831c161515606085015261097c60038201610850565b608085015261098d60048201610850565b60a085015261099e60058201610850565b60c0850152600681015460e085015260078101546101008501520154910152565b906109c98261068e565b6109d6604051918261066c565b82815280926109e7601f199161068e565b019060005b8281106109f857505050565b602090610a03610800565b828285010152016109ec565b6000198114610a1e5760010190565b634e487b7160e01b600052601160045260246000fd5b8051821015610a485760209160051b010190565b634e487b7160e01b600052603260045260246000fdfe35cc72510b152d9944ca07ae5bfb481ff4b7afbbbd870172068c721dd022931ea164736f6c6343000810000a",
  "devdoc": {
    "kind": "dev",
    "methods": {},
    "version": 1
  },
  "userdoc": {
    "kind": "user",
    "methods": {},
    "version": 1
  },
  "storageLayout": {
    "storage": [],
    "types": null
  }
}