{
  "address": "0x0b3Facbca0dAEAf5378C67B32538AD8cEbD40C73",
  "abi": [
    {
      "anonymous": false,
      "inputs": [
        {
          "indexed": true,
          "internalType": "uint256",
          "name": "positionId",
          "type": "uint256"
        },
        {
          "indexed": false,
          "internalType": "bytes16",
          "name": "oldUuid",
          "type": "bytes16"
        },
        {
          "indexed": false,
          "internalType": "bytes16",
          "name": "newUuid",
          "type": "bytes16"
        }
      ],
      "name": "UpdateUuid",
      "type": "event"
    },
    {
      "inputs": [
        {
          "internalType": "uint256",
          "name": "notionalSize",
          "type": "uint256"
        }
      ],
      "name": "calculateCVAAmount",
      "outputs": [
        {
          "internalType": "uint256",
          "name": "",
          "type": "uint256"
        }
      ],
      "stateMutability": "view",
      "type": "function"
    },
    {
      "inputs": [
        {
          "internalType": "address",
          "name": "party",
          "type": "address"
        },
        {
          "internalType": "int256",
          "name": "uPnLCross",
          "type": "int256"
        }
      ],
      "name": "calculateCrossMarginHealth",
      "outputs": [
        {
          "components": [
            {
              "internalType": "uint256",
              "name": "value",
              "type": "uint256"
            }
          ],
          "internalType": "struct Decimal.D256",
          "name": "ratio",
          "type": "tuple"
        }
      ],
      "stateMutability": "view",
      "type": "function"
    },
    {
      "inputs": [
        {
          "internalType": "uint256",
          "name": "notionalSize",
          "type": "uint256"
        }
      ],
      "name": "calculateLiquidationFeeAmount",
      "outputs": [
        {
          "internalType": "uint256",
          "name": "",
          "type": "uint256"
        }
      ],
      "stateMutability": "view",
      "type": "function"
    },
    {
      "inputs": [
        {
          "internalType": "uint256",
          "name": "marketId",
          "type": "uint256"
        },
        {
          "internalType": "uint256",
          "name": "notionalSize",
          "type": "uint256"
        }
      ],
      "name": "calculateProtocolFeeAmount",
      "outputs": [
        {
          "internalType": "uint256",
          "name": "",
          "type": "uint256"
        }
      ],
      "stateMutability": "view",
      "type": "function"
    },
    {
      "inputs": [
        {
          "components": [
            {
              "internalType": "uint256",
              "name": "positionId",
              "type": "uint256"
            },
            {
              "internalType": "uint256",
              "name": "bidPrice",
              "type": "uint256"
            },
            {
              "internalType": "uint256",
              "name": "askPrice",
              "type": "uint256"
            }
          ],
          "internalType": "struct PositionPrice[]",
          "name": "positionPrices",
          "type": "tuple[]"
        },
        {
          "internalType": "address",
          "name": "party",
          "type": "address"
        }
      ],
      "name": "calculateUPnLCross",
      "outputs": [
        {
          "internalType": "int256",
          "name": "uPnLCross",
          "type": "int256"
        }
      ],
      "stateMutability": "view",
      "type": "function"
    },
    {
      "inputs": [
        {
          "internalType": "uint256",
          "name": "positionId",
          "type": "uint256"
        },
        {
          "internalType": "uint256",
          "name": "bidPrice",
          "type": "uint256"
        },
        {
          "internalType": "uint256",
          "name": "askPrice",
          "type": "uint256"
        }
      ],
      "name": "calculateUPnLIsolated",
      "outputs": [
        {
          "internalType": "int256",
          "name": "uPnLA",
          "type": "int256"
        },
        {
          "internalType": "int256",
          "name": "uPnLB",
          "type": "int256"
        }
      ],
      "stateMutability": "view",
      "type": "function"
    },
    {
      "inputs": [
        {
          "internalType": "address",
          "name": "party",
          "type": "address"
        }
      ],
      "name": "getCrossRequestForQuotesLength",
      "outputs": [
        {
          "internalType": "uint256",
          "name": "",
          "type": "uint256"
        }
      ],
      "stateMutability": "view",
      "type": "function"
    },
    {
      "inputs": [
        {
          "internalType": "address",
          "name": "partyA",
          "type": "address"
        }
      ],
      "name": "getOpenPositionsCrossLength",
      "outputs": [
        {
          "internalType": "uint256",
          "name": "",
          "type": "uint256"
        }
      ],
      "stateMutability": "view",
      "type": "function"
    },
    {
      "inputs": [
        {
          "internalType": "address",
          "name": "party",
          "type": "address"
        }
      ],
      "name": "getOpenPositionsIsolatedLength",
      "outputs": [
        {
          "internalType": "uint256",
          "name": "",
          "type": "uint256"
        }
      ],
      "stateMutability": "view",
      "type": "function"
    },
    {
      "inputs": [
        {
          "internalType": "uint256",
          "name": "positionId",
          "type": "uint256"
        }
      ],
      "name": "getPosition",
      "outputs": [
        {
          "components": [
            {
              "internalType": "uint256",
              "name": "creationTimestamp",
              "type": "uint256"
            },
            {
              "internalType": "uint256",
              "name": "mutableTimestamp",
              "type": "uint256"
            },
            {
              "internalType": "uint256",
              "name": "positionId",
              "type": "uint256"
            },
            {
              "internalType": "bytes16",
              "name": "uuid",
              "type": "bytes16"
            },
            {
              "internalType": "enum PositionState",
              "name": "state",
              "type": "uint8"
            },
            {
              "internalType": "enum PositionType",
              "name": "positionType",
              "type": "uint8"
            },
            {
              "internalType": "uint256",
              "name": "marketId",
              "type": "uint256"
            },
            {
              "internalType": "address",
              "name": "partyA",
              "type": "address"
            },
            {
              "internalType": "address",
              "name": "partyB",
              "type": "address"
            },
            {
              "internalType": "enum Side",
              "name": "side",
              "type": "uint8"
            },
            {
              "internalType": "uint256",
              "name": "lockedMarginA",
              "type": "uint256"
            },
            {
              "internalType": "uint256",
              "name": "lockedMarginB",
              "type": "uint256"
            },
            {
              "internalType": "uint256",
              "name": "protocolFeePaid",
              "type": "uint256"
            },
            {
              "internalType": "uint256",
              "name": "liquidationFee",
              "type": "uint256"
            },
            {
              "internalType": "uint256",
              "name": "cva",
              "type": "uint256"
            },
            {
              "internalType": "uint256",
              "name": "currentBalanceUnits",
              "type": "uint256"
            },
            {
              "internalType": "uint256",
              "name": "initialNotionalUsd",
              "type": "uint256"
            },
            {
              "internalType": "address",
              "name": "affiliate",
              "type": "address"
            }
          ],
          "internalType": "struct Position",
          "name": "position",
          "type": "tuple"
        }
      ],
      "stateMutability": "view",
      "type": "function"
    },
    {
      "inputs": [
        {
          "internalType": "uint256[]",
          "name": "positionIds",
          "type": "uint256[]"
        }
      ],
      "name": "getPositions",
      "outputs": [
        {
          "components": [
            {
              "internalType": "uint256",
              "name": "creationTimestamp",
              "type": "uint256"
            },
            {
              "internalType": "uint256",
              "name": "mutableTimestamp",
              "type": "uint256"
            },
            {
              "internalType": "uint256",
              "name": "positionId",
              "type": "uint256"
            },
            {
              "internalType": "bytes16",
              "name": "uuid",
              "type": "bytes16"
            },
            {
              "internalType": "enum PositionState",
              "name": "state",
              "type": "uint8"
            },
            {
              "internalType": "enum PositionType",
              "name": "positionType",
              "type": "uint8"
            },
            {
              "internalType": "uint256",
              "name": "marketId",
              "type": "uint256"
            },
            {
              "internalType": "address",
              "name": "partyA",
              "type": "address"
            },
            {
              "internalType": "address",
              "name": "partyB",
              "type": "address"
            },
            {
              "internalType": "enum Side",
              "name": "side",
              "type": "uint8"
            },
            {
              "internalType": "uint256",
              "name": "lockedMarginA",
              "type": "uint256"
            },
            {
              "internalType": "uint256",
              "name": "lockedMarginB",
              "type": "uint256"
            },
            {
              "internalType": "uint256",
              "name": "protocolFeePaid",
              "type": "uint256"
            },
            {
              "internalType": "uint256",
              "name": "liquidationFee",
              "type": "uint256"
            },
            {
              "internalType": "uint256",
              "name": "cva",
              "type": "uint256"
            },
            {
              "internalType": "uint256",
              "name": "currentBalanceUnits",
              "type": "uint256"
            },
            {
              "internalType": "uint256",
              "name": "initialNotionalUsd",
              "type": "uint256"
            },
            {
              "internalType": "address",
              "name": "affiliate",
              "type": "address"
            }
          ],
          "internalType": "struct Position[]",
          "name": "positions",
          "type": "tuple[]"
        }
      ],
      "stateMutability": "view",
      "type": "function"
    },
    {
      "inputs": [
        {
          "internalType": "uint256",
          "name": "rfqId",
          "type": "uint256"
        }
      ],
      "name": "getRequestForQuote",
      "outputs": [
        {
          "components": [
            {
              "internalType": "uint256",
              "name": "creationTimestamp",
              "type": "uint256"
            },
            {
              "internalType": "uint256",
              "name": "mutableTimestamp",
              "type": "uint256"
            },
            {
              "internalType": "uint256",
              "name": "rfqId",
              "type": "uint256"
            },
            {
              "internalType": "enum RequestForQuoteState",
              "name": "state",
              "type": "uint8"
            },
            {
              "internalType": "enum PositionType",
              "name": "positionType",
              "type": "uint8"
            },
            {
              "internalType": "enum OrderType",
              "name": "orderType",
              "type": "uint8"
            },
            {
              "internalType": "address",
              "name": "partyA",
              "type": "address"
            },
            {
              "internalType": "address",
              "name": "partyB",
              "type": "address"
            },
            {
              "internalType": "enum HedgerMode",
              "name": "hedgerMode",
              "type": "uint8"
            },
            {
              "internalType": "uint256",
              "name": "marketId",
              "type": "uint256"
            },
            {
              "internalType": "enum Side",
              "name": "side",
              "type": "uint8"
            },
            {
              "internalType": "uint256",
              "name": "notionalUsd",
              "type": "uint256"
            },
            {
              "internalType": "uint256",
              "name": "lockedMarginA",
              "type": "uint256"
            },
            {
              "internalType": "uint256",
              "name": "protocolFee",
              "type": "uint256"
            },
            {
              "internalType": "uint256",
              "name": "liquidationFee",
              "type": "uint256"
            },
            {
              "internalType": "uint256",
              "name": "cva",
              "type": "uint256"
            },
            {
              "internalType": "uint256",
              "name": "minExpectedUnits",
              "type": "uint256"
            },
            {
              "internalType": "uint256",
              "name": "maxExpectedUnits",
              "type": "uint256"
            },
            {
              "internalType": "address",
              "name": "affiliate",
              "type": "address"
            }
          ],
          "internalType": "struct RequestForQuote",
          "name": "rfq",
          "type": "tuple"
        }
      ],
      "stateMutability": "view",
      "type": "function"
    },
    {
      "inputs": [
        {
          "internalType": "uint256[]",
          "name": "rfqIds",
          "type": "uint256[]"
        }
      ],
      "name": "getRequestForQuotes",
      "outputs": [
        {
          "components": [
            {
              "internalType": "uint256",
              "name": "creationTimestamp",
              "type": "uint256"
            },
            {
              "internalType": "uint256",
              "name": "mutableTimestamp",
              "type": "uint256"
            },
            {
              "internalType": "uint256",
              "name": "rfqId",
              "type": "uint256"
            },
            {
              "internalType": "enum RequestForQuoteState",
              "name": "state",
              "type": "uint8"
            },
            {
              "internalType": "enum PositionType",
              "name": "positionType",
              "type": "uint8"
            },
            {
              "internalType": "enum OrderType",
              "name": "orderType",
              "type": "uint8"
            },
            {
              "internalType": "address",
              "name": "partyA",
              "type": "address"
            },
            {
              "internalType": "address",
              "name": "partyB",
              "type": "address"
            },
            {
              "internalType": "enum HedgerMode",
              "name": "hedgerMode",
              "type": "uint8"
            },
            {
              "internalType": "uint256",
              "name": "marketId",
              "type": "uint256"
            },
            {
              "internalType": "enum Side",
              "name": "side",
              "type": "uint8"
            },
            {
              "internalType": "uint256",
              "name": "notionalUsd",
              "type": "uint256"
            },
            {
              "internalType": "uint256",
              "name": "lockedMarginA",
              "type": "uint256"
            },
            {
              "internalType": "uint256",
              "name": "protocolFee",
              "type": "uint256"
            },
            {
              "internalType": "uint256",
              "name": "liquidationFee",
              "type": "uint256"
            },
            {
              "internalType": "uint256",
              "name": "cva",
              "type": "uint256"
            },
            {
              "internalType": "uint256",
              "name": "minExpectedUnits",
              "type": "uint256"
            },
            {
              "internalType": "uint256",
              "name": "maxExpectedUnits",
              "type": "uint256"
            },
            {
              "internalType": "address",
              "name": "affiliate",
              "type": "address"
            }
          ],
          "internalType": "struct RequestForQuote[]",
          "name": "rfqs",
          "type": "tuple[]"
        }
      ],
      "stateMutability": "view",
      "type": "function"
    },
    {
      "inputs": [
        {
          "internalType": "uint256",
          "name": "positionId",
          "type": "uint256"
        },
        {
          "internalType": "bytes16",
          "name": "uuid",
          "type": "bytes16"
        }
      ],
      "name": "updateUuid",
      "outputs": [],
      "stateMutability": "nonpayable",
      "type": "function"
    }
  ],
  "transactionHash": "0x39a6606d9ae7f9981d171cd178909f9a08ef6d598a486490acf4bb0df3ee99a1",
  "args": [],
  "numDeployments": 1,
  "solcInputHash": "d90b29cf48681035a62a283f3cda4c3c",
  "bytecode": "0x6080806040523461001657611763908161001c8239f35b600080fdfe604060808152600436101561001357600080fd5b6000803560e01c8063282cddd414610e3d5780633dca94d914610de65780634c723c2814610bf257806366a5dc6314610b9057806372706d5014610b5557806375384ae314610ad757806375e17c601461097a57806380a9fdc9146109085780639ae86671146105fa578063a9427811146105a3578063b3b66903146104c8578063eb02c3011461036e578063fc1462eb146102cb5763fc816325146100b857600080fd5b346102c8576100c6366110e6565b92906100d96100d485611341565b611295565b84815293601f196100e982611341565b01845b8181106102b1575050835b81811061014b575050508281519160208080850192818652845180945285019301945b8281106101275784840385f35b909192826102608261013c6001948a51610fce565b0196019101949291909461011a565b8061015a6102ac92848661137e565b35865260207fdfc6b7cb23f07b62775a228b58db9a36de27f3d727948dc10389611c6fd10642815285872061018d61121d565b9181548352600182015490830152600281015487830152600e60038201549160ff8084166101ba81610fa4565b60608601526008908085831c166101d081610fc4565b608087015280808660101c166101e581610fc4565b60a0908189015260018060a01b03809760181c1660c089015260048501549087821660e08a01521c1661021781610fa4565b610100870152600583015461012087015260068301541661023781610fc4565b610140860152600782015461016086015281015461018085015260098101546101a0850152600a8101546101c0850152600b8101546101e0850152600c810154610200850152600d81015461022085015201541661024082015261029b82896113a4565b526102a681886113a4565b50611359565b6100f7565b6020906102bc6112bb565b82828a010152016100ec565b80fd5b50903461036a57602036600319011261036a5761034f610361836020946102f0611275565b526102fc600435611437565b90610305611275565b91825280610311611275565b527f6153ab96f87058e42029646de88822d1a2d6637639f9e3da153f23d6da9f44b0549061033d611275565b52670de0b6b3a7640000938491611437565b0490610359611275565b918252611467565b51049051908152f35b5080fd5b50346102c85760203660031901126102c8576103886113b8565b5060043581526000805160206117378339815191526020528181206103ab611254565b9181548352600182015460208401526002820154848401526003820154906001600160801b03198260801b16606085015260ff8260801c169060068210156104b457509160ff61024095926104b294608087015260881c1661040c81610fc4565b60a0850152600481015460c0850152600e60018060a01b03918260058201541660e087015260ff600682015484811661010089015260a01c1661044e81610fc4565b610120870152600781015461014087015260088101546101608701526009810154610180870152600a8101546101a0870152600b8101546101c0870152600c8101546101e0870152600d810154610200870152015416610220840152518092611133565bf35b634e487b7160e01b81526021600452602490fd5b50903461036a578060031936011261036a576004356024356fffffffffffffffffffffffffffffffff198082169081830361059f5783865260008051602061173783398151915260205284862060068101546001600160a01b0316330361056e576003018054808316608095861c179091558551931b16825260208201527f9f172f8fabd3bb89aca413683f7e7ce6226f4653b56d34e162f5a43c272f52f9908390a251f35b855162461bcd60e51b815260206004820152600a6024820152692737ba103830b93a3ca160b11b6044820152606490fd5b8580fd5b50903461036a57602036600319011261036a5760209181906001600160a01b036105cb6110cb565b1681527fdfc6b7cb23f07b62775a228b58db9a36de27f3d727948dc10389611c6fd10644845220549051908152f35b50346102c857816003193601126102c8576004359067ffffffffffffffff80831161036a573660238401121561036a578260040135918183116102c8576024938460608502820101368111610904578535936001600160a01b03851685036109005786602061066b6100d489611341565b80988152019301925b8284106108a65750505050809181925b845184101561089c5761069784866113a4565b515160206106a586886113a4565b510151886106b387896113a4565b5101519185526000805160206117378339815191526020528885206106d6611254565b90805482526001810154602083015260028101548b83015260038101546080906001600160801b031981831b16606085015260ff9160068383831c1610156108895781811c83169085015260881c81169061073082610fc4565b60a084810192909252600483015460c085015260058301546001600160a01b0390811660e086019081526006850154918216610100870152610120860193909291901c1661077d81610fc4565b8252600783015461014085015260088301546101608501526009830154610180850152600a8301546101a0850152600b8301546101c0850152600c8301546101e08501908152600d8401546102008601908152600e909401546001600160a01b039081166102209096019590955290519093888116911603610850579061081594939291519161080c83610fc4565b5190519161162a565b509083828201928312911290801582169115161761083d576108379093611359565b92610684565b634e487b7160e01b835260116004528583fd5b8b5162461bcd60e51b8152602060048201526013818d0152720a0dee6d2e8d2dedc92c840dad2e6dac2e8c6d606b1b6044820152606490fd5b634e487b7160e01b8a5260216004528c8afd5b6020908751908152f35b6060843603126108fc57885160608101818110848211176108e957916020916060938c528635815282870135838201528b8701358c820152815201930192610674565b634e487b7160e01b875260416004528987fd5b8480fd5b8380fd5b8280fd5b50903461036a57602036600319011261036a5761034f6103618360209461092d611275565b52610939600435611437565b90610942611275565b9182528061094e611275565b527f6153ab96f87058e42029646de88822d1a2d6637639f9e3da153f23d6da9f44b2549061033d611275565b50903461036a57606036600319011261036a5760043582526000805160206117378339815191526020528082206109af611254565b9080548252600181015460208301526002810154838301526003810154936001600160801b03198560801b16606084015260ff8560801c169060068210156104b45750610acb939460ff91608085015260881c16610a0c81610fc4565b60a0830152600481015460c083015260018060a01b038060058301541660e084015260ff600683015482811661010086015260a01c1692610a4c84610fc4565b83610120820152600783015461014082015260088301546101608201526009830154610180820152600a8301546101a0820152600b8301546101c0820152610220600c840154926101e08301938452600e600d860154956102008501968752015416910152610aba83610fc4565b51916044359260243592519161162a565b82519182526020820152f35b50903461036a578060031936011261036a5761034f61036183602094610afb611275565b52610b07602435611437565b90610b10611275565b91825280610b1c611275565b5260043581527f35cc72510b152d9944ca07ae5bfb481ff4b7afbbbd870172068c721dd022931e8652600885822001549061033d611275565b50903461036a578060031936011261036a57610b88602092610b756110cb565b90610b7e611275565b52602435906114c9565b905190518152f35b50903461036a57602036600319011261036a57602090610bea610bb16110cb565b6001600160a01b031660009081527fdfc6b7cb23f07b62775a228b58db9a36de27f3d727948dc10389611c6fd106486020526040902090565b549051908152f35b50346102c857610c01366110e6565b9290610c0f6100d485611341565b84815293601f19610c1f82611341565b01845b818110610dcf575050835b818110610c81575050508281519160208080850192818652845180945285019301945b828110610c5d5784840385f35b9091928261024082610c726001948a51611133565b01960191019492919094610c50565b610c8c81838561137e565b35855260206000805160206117378339815191528152848620610cad611254565b91815483526001820154908301526002810154868301526003810154906080916001600160801b031981841b16606085015260ff908181851c1660069485821015610dbb57860152610db695949392600e92909160881c8116610d0f81610fc4565b60a086810191909152600483015460c087015260058301546001600160a01b0390811660e088015294830154808616610100880152901c16610d5081610fc4565b610120850152600781015461014085015260088101546101608501526009810154610180850152600a8101546101a0850152600b8101546101c0850152600c8101546101e0850152600d81015461020085015201541661022082015261029b82896113a4565b610c2d565b634e487b7160e01b8c52602160045260248cfd5b602090610dda6113b8565b82828a01015201610c22565b50903461036a57602036600319011261036a5760209181906001600160a01b03610e0e6110cb565b1681527fdfc6b7cb23f07b62775a228b58db9a36de27f3d727948dc10389611c6fd10647845220549051908152f35b50903461036a57602036600319011261036a576104b28161026093610e606112bb565b5060043581527fdfc6b7cb23f07b62775a228b58db9a36de27f3d727948dc10389611c6fd106426020522091610e9461121d565b928054845260018101546020850152600281015482850152600e60038201549160ff8316610ec181610fa4565b606087015260ff8360081c16610ed681610fc4565b608087015260ff8360101c16610eeb81610fc4565b60a087015260018060a01b03809360181c1660c087015260ff600482015484811660e089015260a01c16610f1e81610fa4565b610100870152600581015461012087015260ff600682015416610f4081610fc4565b6101408701526007810154610160870152600881015461018087015260098101546101a0870152600a8101546101c0870152600b8101546101e0870152600c810154610200870152600d810154610220870152015416610240840152518092610fce565b60031115610fae57565b634e487b7160e01b600052602160045260246000fd5b60021115610fae57565b8051825260208101516020830152604081015160408301526060810151610ff481610fa4565b6060830152608081015161100781610fc4565b608083015260a081015161101a81610fc4565b60a083015260018060a01b038060c08301511660c08401528060e08301511660e0840152610100808301519061104f82610fa4565b8401526101208083015190840152610140808301519061106e82610fc4565b840152610160808301519084015261018080830151908401526101a080830151908401526101c080830151908401526101e08083015190840152610200808301519084015261022080830151908401526102408092015116910152565b600435906001600160a01b03821682036110e157565b600080fd5b9060206003198301126110e15760043567ffffffffffffffff928382116110e157806023830112156110e15781600401359384116110e15760248460051b830101116110e1576024019190565b8051825260208101516020830152604081015160408301526001600160801b0319606082015116606083015260808101516006811015610fae57608083015260a081015161118081610fc4565b60a083015260c081015160c083015260018060a01b038060e08301511660e08401526101008181840151169084015261012080830151906111c082610fc4565b8401526101408083015190840152610160808301519084015261018080830151908401526101a080830151908401526101c080830151908401526101e0808301519084015261020080830151908401526102208092015116910152565b60405190610260820182811067ffffffffffffffff82111761123e57604052565b634e487b7160e01b600052604160045260246000fd5b60405190610240820182811067ffffffffffffffff82111761123e57604052565b604051906020820182811067ffffffffffffffff82111761123e57604052565b6040519190601f01601f1916820167ffffffffffffffff81118382101761123e57604052565b6112c361121d565b9060008083528060208401528060408401528060608401528060808401528060a08401528060c08401528060e08401528061010084015280610120840152806101408401528061016084015280610180840152806101a0840152806101c0840152806101e08401528061020084015280610220840152610240830152565b67ffffffffffffffff811161123e5760051b60200190565b60001981146113685760010190565b634e487b7160e01b600052601160045260246000fd5b919081101561138e5760051b0190565b634e487b7160e01b600052603260045260246000fd5b805182101561138e5760209160051b010190565b6113c0611254565b9060008083528060208401528060408401528060608401528060808401528060a08401528060c08401528060e08401528061010084015280610120840152806101408401528061016084015280610180840152806101a0840152806101c0840152806101e084015280610200840152610220830152565b670de0b6b3a7640000908060001904821181151516611368570290565b8060001904821181151516611368570290565b670de0b6b3a76400009161148991600061147f611275565b5251905190611454565b04611492611275565b90815290565b81156114a2570490565b634e487b7160e01b600052601260045260246000fd5b600160ff1b81146113685760000390565b60009291836114d6611275565b5260018060a01b03821684527fdfc6b7cb23f07b62775a228b58db9a36de27f3d727948dc10389611c6fd1064060205261154660408520549260018060a01b03166000527fdfc6b7cb23f07b62775a228b58db9a36de27f3d727948dc10389611c6fd10648602052604060002090565b54821580918192611608575b501561157b5750505090611564611275565b5261156d611275565b670de0b6b3a7640000815290565b6115d957838112156115ee57611590906114b8565b818110156115d95781038181116115c5576115b8906115bd93946115b2611275565b52611437565b611498565b611492611275565b634e487b7160e01b84526011600452602484fd5b505090806115e5611275565b52611492611275565b81018082116115c5576115b8906115bd93946115b2611275565b90501538611552565b8181039291600013801582851316918412161761136857565b93909392919284156117295761163f81610fc4565b6116b95750801561167457611660670de0b6b3a76400009161166694611454565b04611611565b905b611671826114b8565b90565b60405162461bcd60e51b815260206004820152601a60248201527f4f7261636c6520626964507269636520697320696e76616c69640000000000006044820152606490fd5b809150156116e4576116d7670de0b6b3a7640000916116de94611454565b0490611611565b90611668565b60405162461bcd60e51b815260206004820152601a60248201527f4f7261636c652061736b507269636520697320696e76616c69640000000000006044820152606490fd5b505050505060009060009056fedfc6b7cb23f07b62775a228b58db9a36de27f3d727948dc10389611c6fd10645a164736f6c6343000810000a",
  "devdoc": {
    "kind": "dev",
    "methods": {},
    "version": 1
  },
  "userdoc": {
    "kind": "user",
    "methods": {},
    "version": 1
  },
  "storageLayout": {
    "storage": [],
    "types": null
  }
}