{
  "address": "0x4acf4CECa4d8e08f6D96f07e35b324cCFE2dDf70",
  "abi": [
    {
      "anonymous": false,
      "inputs": [
        {
          "indexed": true,
          "internalType": "uint256",
          "name": "rfqId",
          "type": "uint256"
        },
        {
          "indexed": true,
          "internalType": "uint256",
          "name": "positionId",
          "type": "uint256"
        },
        {
          "indexed": false,
          "internalType": "address",
          "name": "partyA",
          "type": "address"
        },
        {
          "indexed": false,
          "internalType": "address",
          "name": "partyB",
          "type": "address"
        },
        {
          "indexed": false,
          "internalType": "uint256",
          "name": "amountUnits",
          "type": "uint256"
        },
        {
          "indexed": false,
          "internalType": "uint256",
          "name": "avgPriceUsd",
          "type": "uint256"
        }
      ],
      "name": "OpenPosition",
      "type": "event"
    },
    {
      "anonymous": false,
      "inputs": [
        {
          "indexed": true,
          "internalType": "uint256",
          "name": "rfqId",
          "type": "uint256"
        },
        {
          "indexed": false,
          "internalType": "address",
          "name": "partyA",
          "type": "address"
        },
        {
          "indexed": false,
          "internalType": "address",
          "name": "partyB",
          "type": "address"
        }
      ],
      "name": "RequestForQuoteCanceled",
      "type": "event"
    },
    {
      "anonymous": false,
      "inputs": [
        {
          "indexed": true,
          "internalType": "uint256",
          "name": "rfqId",
          "type": "uint256"
        },
        {
          "indexed": false,
          "internalType": "address",
          "name": "partyA",
          "type": "address"
        },
        {
          "indexed": false,
          "internalType": "address",
          "name": "partyB",
          "type": "address"
        }
      ],
      "name": "RequestForQuoteNew",
      "type": "event"
    },
    {
      "inputs": [
        {
          "internalType": "uint256",
          "name": "rfqId",
          "type": "uint256"
        },
        {
          "internalType": "uint256",
          "name": "filledAmountUnits",
          "type": "uint256"
        },
        {
          "internalType": "uint256",
          "name": "avgPriceUsd",
          "type": "uint256"
        },
        {
          "internalType": "bytes16",
          "name": "uuid",
          "type": "bytes16"
        }
      ],
      "name": "openPosition",
      "outputs": [
        {
          "components": [
            {
              "internalType": "uint256",
              "name": "creationTimestamp",
              "type": "uint256"
            },
            {
              "internalType": "uint256",
              "name": "mutableTimestamp",
              "type": "uint256"
            },
            {
              "internalType": "uint256",
              "name": "positionId",
              "type": "uint256"
            },
            {
              "internalType": "bytes16",
              "name": "uuid",
              "type": "bytes16"
            },
            {
              "internalType": "enum PositionState",
              "name": "state",
              "type": "uint8"
            },
            {
              "internalType": "enum PositionType",
              "name": "positionType",
              "type": "uint8"
            },
            {
              "internalType": "uint256",
              "name": "marketId",
              "type": "uint256"
            },
            {
              "internalType": "address",
              "name": "partyA",
              "type": "address"
            },
            {
              "internalType": "address",
              "name": "partyB",
              "type": "address"
            },
            {
              "internalType": "enum Side",
              "name": "side",
              "type": "uint8"
            },
            {
              "internalType": "uint256",
              "name": "lockedMarginA",
              "type": "uint256"
            },
            {
              "internalType": "uint256",
              "name": "lockedMarginB",
              "type": "uint256"
            },
            {
              "internalType": "uint256",
              "name": "protocolFeePaid",
              "type": "uint256"
            },
            {
              "internalType": "uint256",
              "name": "liquidationFee",
              "type": "uint256"
            },
            {
              "internalType": "uint256",
              "name": "cva",
              "type": "uint256"
            },
            {
              "internalType": "uint256",
              "name": "currentBalanceUnits",
              "type": "uint256"
            },
            {
              "internalType": "uint256",
              "name": "initialNotionalUsd",
              "type": "uint256"
            },
            {
              "internalType": "address",
              "name": "affiliate",
              "type": "address"
            }
          ],
          "internalType": "struct Position",
          "name": "position",
          "type": "tuple"
        }
      ],
      "stateMutability": "nonpayable",
      "type": "function"
    }
  ],
  "transactionHash": "0x942aaafb35fdbe0b449dc132c05d60d364df0f37216bf4b8883127ce73916fc1",
  "args": [],
  "numDeployments": 1,
  "solcInputHash": "d90b29cf48681035a62a283f3cda4c3c",
  "bytecode": "0x6080806040523461001657610c99908161001c8239f35b600080fdfe6080604052600436101561001257600080fd5b60003560e01c635273a73e1461002757600080fd5b34610b71576080366003190112610b71576064356fffffffffffffffffffffffffffffffff1981168103610b715761005d610ba1565b506004356000527fdfc6b7cb23f07b62775a228b58db9a36de27f3d727948dc10389611c6fd10642602052604060002090600482015460ff8160a01c166100a381610c20565b801580610b54575b15610b0f5760405191610260830183811067ffffffffffffffff821117610af957604052845483526001850154602084015260028501546040840152600385015460ff81166100f981610c20565b606085015260ff8160081c1661010e81610b76565b608085015260ff8160101c1661012381610b76565b60a085015260181c6001600160a01b0390811660c08501521660e083015261014a81610c20565b610100820152600583015461012082015260ff60068401541661016c81610b76565b6101408201526007830154610160820152600883015461018082015260098301546101a0820152600a8301546101c0820152600b8301546101e0820152600c830154610200820152600d830154610220820152600e8301546001600160a01b03166102408201526101db610ba1565b5060e08101516001600160a01b03163303610ac457604001516101fc610ba1565b506000527fdfc6b7cb23f07b62775a228b58db9a36de27f3d727948dc10389611c6fd106426020526040600020600381015460ff811661023b81610c20565b610a8b57602435600c83015411610a4657602435600d83015410610a0157600260ff1982161760038301554260018301556008820154907fdfc6b7cb23f07b62775a228b58db9a36de27f3d727948dc10389611c6fd10646546001810181116109a657600191600585015490838060a01b0360048701541660ff6006880154166009880154600a89015491600b8a01549360078b015495898060a01b03600e8d0154169760c06102e9610b80565b9e8f904282524260208301528d8d0160408301526001600160801b03191660608201526000608082015261032860ff6002811987161760081c16610b76565b60ff6002811986161760081c1660a0820152015260028a8060a01b039160ff19161760181c1660e08d01526101008c015261036281610b76565b6101208b0152876101408b0152876101608b01526101808a01526101a08901526101c08801526024356101e0880152610200870152610220860152016000527fdfc6b7cb23f07b62775a228b58db9a36de27f3d727948dc10389611c6fd106456020526040600020835181556020840151600182015560408401516002820155606084015160801c600382015490608086015190600682101561085a5760a087015161040d81610b76565b61041681610b76565b60ff60881b9060881b169271ffffffffffffffffffffffffffffffffffff1916179060ff60801b9060801b161717600382015560c08401516004820155600e600582019160018060a01b0360e087015116926bffffffffffffffffffffffff60a01b93848254161790556006810160018060a01b03610100880151168154906101208901516104a481610b76565b6104ad81610b76565b60ff60a01b9060a01b16916affffffffffffffffffffff60a81b16171790556101408601516007820155610160860151600882015561018086015160098201556101a0860151600a8201556101c0860151600b8201556101e0860151600c820155610200860151600d820155019060018060a01b03610220860151169082541617905561055a7fdfc6b7cb23f07b62775a228b58db9a36de27f3d727948dc10389611c6fd1064654610c37565b7fdfc6b7cb23f07b62775a228b58db9a36de27f3d727948dc10389611c6fd10646556105ab6105a06105956008850154600986015490610c2a565b600a85015490610c2a565b600b84015490610c2a565b60018060a01b03600384015460181c166000527fdfc6b7cb23f07b62775a228b58db9a36de27f3d727948dc10389611c6fd106416020526105f26040600020918254610c7f565b90556106056105a0600a84015483610c2a565b3360009081527fdfc6b7cb23f07b62775a228b58db9a36de27f3d727948dc10389611c6fd1063f602052604090205481116109bc573360009081527fdfc6b7cb23f07b62775a228b58db9a36de27f3d727948dc10389611c6fd1063f6020526040902061067490918254610c7f565b90556009820154306000527fdfc6b7cb23f07b62775a228b58db9a36de27f3d727948dc10389611c6fd1063e6020526106b36040600020918254610c2a565b9055600382015460ff8160081c166106ca81610b76565b610870575050600301546106e99060181c6001600160a01b0316610c46565b6106f38154610c37565b90556106fe33610c46565b6107088154610c37565b90555b60028201549060408101918251907fe7b85e94e7f1c391d450284b0fec7958893aebe012d801760f6712447c1db8b6608060018060a01b039687600481600384015460181c1692015416604051918252602082015260243560408201526044356060820152a36040519181518352602082015160208401525160408301526001600160801b03196060820151166060830152608081015192600684101561085a5761024093608084015260a08201516107c381610b76565b60a084015260c082015160c08401528060e08301511660e08401526101008181840151169084015261012080830151906107fc82610b76565b8401526101408083015190840152610160808301519084015261018080830151908401526101a080830151908401526101c080830151908401526101e080830151908401526102008083015190840152610220809201511690820152f35b634e487b7160e01b600052602160045260246000fd5b60181c6001600160a01b031660009081527fdfc6b7cb23f07b62775a228b58db9a36de27f3d727948dc10389611c6fd106486020526040902080546108b490610c37565b90556108bf33610c46565b6108c98154610c37565b90556008820154600383015460181c6001600160a01b031660009081527fdfc6b7cb23f07b62775a228b58db9a36de27f3d727948dc10389611c6fd106406020526040902061091b905b918254610c2a565b90553360009081527fdfc6b7cb23f07b62775a228b58db9a36de27f3d727948dc10389611c6fd106406020526040902061095490610913565b90556003015460181c6001600160a01b031660009081527fdfc6b7cb23f07b62775a228b58db9a36de27f3d727948dc10389611c6fd1064460205260409020805480156109a65760001901905561070b565b634e487b7160e01b600052601160045260246000fd5b60405162461bcd60e51b815260206004820152601b60248201527f496e73756666696369656e74206d617267696e2062616c616e636500000000006044820152606490fd5b60405162461bcd60e51b815260206004820152601960248201527f496e76616c6964206d61782066696c6c656420616d6f756e74000000000000006044820152606490fd5b60405162461bcd60e51b815260206004820152601960248201527f496e76616c6964206d696e2066696c6c656420616d6f756e74000000000000006044820152606490fd5b60405162461bcd60e51b8152602060048201526011602482015270496e76616c69642052465120737461746560781b6044820152606490fd5b60405162461bcd60e51b815260206004820152600d60248201526c496e76616c696420706172747960981b6044820152606490fd5b634e487b7160e01b600052604160045260246000fd5b60405162461bcd60e51b815260206004820152601f60248201527f4f74686572206d6f646573206e6f7420696d706c656d656e74656420796574006044820152606490fd5b50600160ff600386015460101c16610b6b81610b76565b146100ab565b600080fd5b6002111561085a57565b60405190610240820182811067ffffffffffffffff821117610af957604052565b610ba9610b80565b9060008083528060208401528060408401528060608401528060808401528060a08401528060c08401528060e08401528061010084015280610120840152806101408401528061016084015280610180840152806101a0840152806101c0840152806101e084015280610200840152610220830152565b6003111561085a57565b919082018092116109a657565b60001981146109a65760010190565b6001600160a01b031660009081527fdfc6b7cb23f07b62775a228b58db9a36de27f3d727948dc10389611c6fd106476020526040902090565b919082039182116109a65756fea164736f6c6343000810000a",
  "devdoc": {
    "kind": "dev",
    "methods": {},
    "version": 1
  },
  "userdoc": {
    "kind": "user",
    "methods": {},
    "version": 1
  },
  "storageLayout": {
    "storage": [],
    "types": null
  }
}