{
  "address": "0xc4AEe80B5E79C2eB942f0f5342a4663d1c3E969D",
  "abi": [
    {
      "anonymous": false,
      "inputs": [
        {
          "indexed": true,
          "internalType": "uint256",
          "name": "rfqId",
          "type": "uint256"
        },
        {
          "indexed": true,
          "internalType": "uint256",
          "name": "positionId",
          "type": "uint256"
        },
        {
          "indexed": false,
          "internalType": "address",
          "name": "partyA",
          "type": "address"
        },
        {
          "indexed": false,
          "internalType": "address",
          "name": "partyB",
          "type": "address"
        },
        {
          "indexed": false,
          "internalType": "uint256",
          "name": "amountUnits",
          "type": "uint256"
        },
        {
          "indexed": false,
          "internalType": "uint256",
          "name": "avgPriceUsd",
          "type": "uint256"
        }
      ],
      "name": "OpenPosition",
      "type": "event"
    },
    {
      "anonymous": false,
      "inputs": [
        {
          "indexed": true,
          "internalType": "uint256",
          "name": "rfqId",
          "type": "uint256"
        },
        {
          "indexed": false,
          "internalType": "address",
          "name": "partyA",
          "type": "address"
        },
        {
          "indexed": false,
          "internalType": "address",
          "name": "partyB",
          "type": "address"
        }
      ],
      "name": "RequestForQuoteCanceled",
      "type": "event"
    },
    {
      "anonymous": false,
      "inputs": [
        {
          "indexed": true,
          "internalType": "uint256",
          "name": "rfqId",
          "type": "uint256"
        },
        {
          "indexed": false,
          "internalType": "address",
          "name": "partyA",
          "type": "address"
        },
        {
          "indexed": false,
          "internalType": "address",
          "name": "partyB",
          "type": "address"
        }
      ],
      "name": "RequestForQuoteNew",
      "type": "event"
    },
    {
      "inputs": [
        {
          "internalType": "uint256",
          "name": "rfqId",
          "type": "uint256"
        },
        {
          "internalType": "uint256",
          "name": "filledAmountUnits",
          "type": "uint256"
        },
        {
          "internalType": "uint256",
          "name": "avgPriceUsd",
          "type": "uint256"
        },
        {
          "internalType": "bytes16",
          "name": "uuid",
          "type": "bytes16"
        },
        {
          "internalType": "uint256",
          "name": "lockedMarginB",
          "type": "uint256"
        }
      ],
      "name": "openPosition",
      "outputs": [
        {
          "components": [
            {
              "internalType": "uint256",
              "name": "creationTimestamp",
              "type": "uint256"
            },
            {
              "internalType": "uint256",
              "name": "mutableTimestamp",
              "type": "uint256"
            },
            {
              "internalType": "uint256",
              "name": "positionId",
              "type": "uint256"
            },
            {
              "internalType": "bytes16",
              "name": "uuid",
              "type": "bytes16"
            },
            {
              "internalType": "enum PositionState",
              "name": "state",
              "type": "uint8"
            },
            {
              "internalType": "enum PositionType",
              "name": "positionType",
              "type": "uint8"
            },
            {
              "internalType": "uint256",
              "name": "marketId",
              "type": "uint256"
            },
            {
              "internalType": "address",
              "name": "partyA",
              "type": "address"
            },
            {
              "internalType": "address",
              "name": "partyB",
              "type": "address"
            },
            {
              "internalType": "enum Side",
              "name": "side",
              "type": "uint8"
            },
            {
              "internalType": "uint256",
              "name": "lockedMarginA",
              "type": "uint256"
            },
            {
              "internalType": "uint256",
              "name": "lockedMarginB",
              "type": "uint256"
            },
            {
              "internalType": "uint256",
              "name": "protocolFeePaid",
              "type": "uint256"
            },
            {
              "internalType": "uint256",
              "name": "liquidationFee",
              "type": "uint256"
            },
            {
              "internalType": "uint256",
              "name": "cva",
              "type": "uint256"
            },
            {
              "internalType": "uint256",
              "name": "currentBalanceUnits",
              "type": "uint256"
            },
            {
              "internalType": "uint256",
              "name": "initialNotionalUsd",
              "type": "uint256"
            },
            {
              "internalType": "address",
              "name": "affiliate",
              "type": "address"
            }
          ],
          "internalType": "struct Position",
          "name": "position",
          "type": "tuple"
        }
      ],
      "stateMutability": "nonpayable",
      "type": "function"
    }
  ],
  "transactionHash": "0x09a1d8614b5ee3f9f28aebe760b298c688f005845716ba060d927b73bd6118bb",
  "args": [],
  "numDeployments": 2,
  "solcInputHash": "eca260ea03499fe82b9da899a9ca025d",
  "bytecode": "0x6080806040523461001657610cac908161001c8239f35b600080fdfe6080604052600436101561001257600080fd5b60003560e01c6372ed04a11461002757600080fd5b34610b845760a0366003190112610b84576064356001600160801b031981168103610b8457610054610bb4565b506004356000527fdfc6b7cb23f07b62775a228b58db9a36de27f3d727948dc10389611c6fd10642602052604060002090600482015460ff8160a01c169061009b82610c33565b811580610b67575b15610b225760405191610260830183811067ffffffffffffffff821117610b0c57604052845483526001850154602084015260028501546040840152600385015460ff81166100f181610c33565b606085015260ff8160081c1661010681610b89565b608085015260ff8160101c1661011b81610b89565b60a085015260181c6001600160a01b0390811660c08501529190911660e083019081529061014881610c33565b610100830152600584015461012083015260ff60068501541661016a81610b89565b6101408301526007840154610160830152600884015461018083015260098401546101a0830152600a8401546101c0830152600b8401546101e0830152600c840154610200830152600d840154610220830152600e8401546001600160a01b03166102408301526101d9610bb4565b50516001600160a01b03163303610ad757604001516101f6610bb4565b506000527fdfc6b7cb23f07b62775a228b58db9a36de27f3d727948dc10389611c6fd106426020526040600020600381015460ff811661023581610c33565b610a9e57602435600c83015411610a5957602435600d83015410610a1457600260ff1982161760038301554260018301557fdfc6b7cb23f07b62775a228b58db9a36de27f3d727948dc10389611c6fd1064654906001820182116109b95760058301546004840154600685015460088601546009870154600a880154600b89015460078a0154600e8b01546001600160a01b039081169991989297939694959460ff169316916102e3610b93565b42808252602082015260018c0160408201526001600160801b0319909d1660608e0152600060808e0152610323600260ff1984161760081c60ff16610b89565b600260ff199290921691909117600881901c60ff1660a08e015260c08d019190915260181c6001600160a01b031660e08c01526101008b015261036581610b89565b6101208a01526101408901526084356101608901526101808801526101a08701526101c08601526024356101e08601526102008501526102208401526001016000527fdfc6b7cb23f07b62775a228b58db9a36de27f3d727948dc10389611c6fd106456020526040600020825181556020830151600182015560408301516002820155606083015160801c600382015490608085015190600682101561086a5760a086015161041381610b89565b61041c81610b89565b60ff60881b9060881b169271ffffffffffffffffffffffffffffffffffff1916179060ff60801b9060801b161717600382015560c08301516004820155600e600582019160018060a01b0360e086015116926bffffffffffffffffffffffff60a01b93848254161790556006810160018060a01b03610100870151168154906101208801516104aa81610b89565b6104b381610b89565b60ff60a01b9060a01b16916affffffffffffffffffffff60a81b16171790556101408501516007820155610160850151600882015561018085015160098201556101a0850151600a8201556101c0850151600b8201556101e0850151600c820155610200850151600d820155019060018060a01b0361022085015116908254161790556105607fdfc6b7cb23f07b62775a228b58db9a36de27f3d727948dc10389611c6fd1064654610c4a565b7fdfc6b7cb23f07b62775a228b58db9a36de27f3d727948dc10389611c6fd10646556105b16105a661059b6008840154600985015490610c3d565b600a84015490610c3d565b600b83015490610c3d565b60018060a01b03600383015460181c166000527fdfc6b7cb23f07b62775a228b58db9a36de27f3d727948dc10389611c6fd106416020526105f86040600020918254610c92565b905561060d6105a6600a830154608435610c3d565b3360009081527fdfc6b7cb23f07b62775a228b58db9a36de27f3d727948dc10389611c6fd1063f602052604090205481116109cf573360009081527fdfc6b7cb23f07b62775a228b58db9a36de27f3d727948dc10389611c6fd1063f6020526040902061067c90918254610c92565b90556009810154306000527fdfc6b7cb23f07b62775a228b58db9a36de27f3d727948dc10389611c6fd1063e6020526106bb6040600020918254610c3d565b9055600381015460ff8160081c166106d281610b89565b6108805750600301546106f09060181c6001600160a01b0316610c59565b6106fa8154610c4a565b905561070533610c59565b61070f8154610c4a565b90555b60028201549060408101918251907fe7b85e94e7f1c391d450284b0fec7958893aebe012d801760f6712447c1db8b6608060018060a01b039687600481600384015460181c1692015416604051918252602082015260243560408201526044356060820152a36040519181518352602082015160208401525160408301526fffffffffffffffffffffffffffffffff196060820151166060830152608081015192600684101561086a5761024093608084015260a08201516107d381610b89565b60a084015260c082015160c08401528060e08301511660e084015261010081818401511690840152610120808301519061080c82610b89565b8401526101408083015190840152610160808301519084015261018080830151908401526101a080830151908401526101c080830151908401526101e080830151908401526102008083015190840152610220809201511690820152f35b634e487b7160e01b600052602160045260246000fd5b60181c6001600160a01b031660009081527fdfc6b7cb23f07b62775a228b58db9a36de27f3d727948dc10389611c6fd106486020526040902080546108c490610c4a565b90556108cf33610c59565b6108d98154610c4a565b90556008810154600382015460181c6001600160a01b031660009081527fdfc6b7cb23f07b62775a228b58db9a36de27f3d727948dc10389611c6fd106406020526040902061092a90918254610c3d565b90553360009081527fdfc6b7cb23f07b62775a228b58db9a36de27f3d727948dc10389611c6fd10640602052604090206109676084358254610c3d565b90556003015460181c6001600160a01b031660009081527fdfc6b7cb23f07b62775a228b58db9a36de27f3d727948dc10389611c6fd1064460205260409020805480156109b957600019019055610712565b634e487b7160e01b600052601160045260246000fd5b60405162461bcd60e51b815260206004820152601b60248201527f496e73756666696369656e74206d617267696e2062616c616e636500000000006044820152606490fd5b60405162461bcd60e51b815260206004820152601960248201527f496e76616c6964206d61782066696c6c656420616d6f756e74000000000000006044820152606490fd5b60405162461bcd60e51b815260206004820152601960248201527f496e76616c6964206d696e2066696c6c656420616d6f756e74000000000000006044820152606490fd5b60405162461bcd60e51b8152602060048201526011602482015270496e76616c69642052465120737461746560781b6044820152606490fd5b60405162461bcd60e51b815260206004820152600d60248201526c496e76616c696420706172747960981b6044820152606490fd5b634e487b7160e01b600052604160045260246000fd5b60405162461bcd60e51b815260206004820152601f60248201527f4f74686572206d6f646573206e6f7420696d706c656d656e74656420796574006044820152606490fd5b50600160ff600386015460101c16610b7e81610b89565b146100a3565b600080fd5b6002111561086a57565b60405190610240820182811067ffffffffffffffff821117610b0c57604052565b610bbc610b93565b9060008083528060208401528060408401528060608401528060808401528060a08401528060c08401528060e08401528061010084015280610120840152806101408401528061016084015280610180840152806101a0840152806101c0840152806101e084015280610200840152610220830152565b6003111561086a57565b919082018092116109b957565b60001981146109b95760010190565b6001600160a01b031660009081527fdfc6b7cb23f07b62775a228b58db9a36de27f3d727948dc10389611c6fd106476020526040902090565b919082039182116109b95756fea164736f6c6343000810000a",
  "devdoc": {
    "kind": "dev",
    "methods": {},
    "version": 1
  },
  "userdoc": {
    "kind": "user",
    "methods": {},
    "version": 1
  },
  "storageLayout": {
    "storage": [],
    "types": null
  }
}