{
  "address": "0x946d92Ac69687E4997708E8b0480FCE70EEC22C3",
  "abi": [
    {
      "anonymous": false,
      "inputs": [
        {
          "indexed": true,
          "internalType": "uint256",
          "name": "rfqId",
          "type": "uint256"
        },
        {
          "indexed": true,
          "internalType": "uint256",
          "name": "positionId",
          "type": "uint256"
        },
        {
          "indexed": false,
          "internalType": "address",
          "name": "partyA",
          "type": "address"
        },
        {
          "indexed": false,
          "internalType": "address",
          "name": "partyB",
          "type": "address"
        },
        {
          "indexed": false,
          "internalType": "uint256",
          "name": "amountUnits",
          "type": "uint256"
        },
        {
          "indexed": false,
          "internalType": "uint256",
          "name": "avgPriceUsd",
          "type": "uint256"
        }
      ],
      "name": "OpenPosition",
      "type": "event"
    },
    {
      "anonymous": false,
      "inputs": [
        {
          "indexed": true,
          "internalType": "uint256",
          "name": "rfqId",
          "type": "uint256"
        },
        {
          "indexed": false,
          "internalType": "address",
          "name": "partyA",
          "type": "address"
        },
        {
          "indexed": false,
          "internalType": "address",
          "name": "partyB",
          "type": "address"
        }
      ],
      "name": "RequestForQuoteCanceled",
      "type": "event"
    },
    {
      "anonymous": false,
      "inputs": [
        {
          "indexed": true,
          "internalType": "uint256",
          "name": "rfqId",
          "type": "uint256"
        },
        {
          "indexed": false,
          "internalType": "address",
          "name": "partyA",
          "type": "address"
        },
        {
          "indexed": false,
          "internalType": "address",
          "name": "partyB",
          "type": "address"
        }
      ],
      "name": "RequestForQuoteNew",
      "type": "event"
    },
    {
      "inputs": [
        {
          "internalType": "uint256[]",
          "name": "rfqIds",
          "type": "uint256[]"
        }
      ],
      "name": "cancelAllOpenMarketSingle",
      "outputs": [],
      "stateMutability": "nonpayable",
      "type": "function"
    },
    {
      "inputs": [
        {
          "internalType": "uint256",
          "name": "rfqId",
          "type": "uint256"
        }
      ],
      "name": "cancelOpenMarketSingle",
      "outputs": [],
      "stateMutability": "nonpayable",
      "type": "function"
    },
    {
      "inputs": [
        {
          "internalType": "address",
          "name": "partyB",
          "type": "address"
        },
        {
          "internalType": "uint256",
          "name": "marketId",
          "type": "uint256"
        },
        {
          "internalType": "enum PositionType",
          "name": "positionType",
          "type": "uint8"
        },
        {
          "internalType": "enum Side",
          "name": "side",
          "type": "uint8"
        },
        {
          "internalType": "uint256",
          "name": "usdAmountToSpend",
          "type": "uint256"
        },
        {
          "internalType": "uint16",
          "name": "leverage",
          "type": "uint16"
        },
        {
          "internalType": "uint256[2]",
          "name": "expectedUnits",
          "type": "uint256[2]"
        },
        {
          "internalType": "address",
          "name": "affiliate",
          "type": "address"
        }
      ],
      "name": "requestOpenMarketSingle",
      "outputs": [
        {
          "components": [
            {
              "internalType": "uint256",
              "name": "creationTimestamp",
              "type": "uint256"
            },
            {
              "internalType": "uint256",
              "name": "mutableTimestamp",
              "type": "uint256"
            },
            {
              "internalType": "uint256",
              "name": "rfqId",
              "type": "uint256"
            },
            {
              "internalType": "enum RequestForQuoteState",
              "name": "state",
              "type": "uint8"
            },
            {
              "internalType": "enum PositionType",
              "name": "positionType",
              "type": "uint8"
            },
            {
              "internalType": "enum OrderType",
              "name": "orderType",
              "type": "uint8"
            },
            {
              "internalType": "address",
              "name": "partyA",
              "type": "address"
            },
            {
              "internalType": "address",
              "name": "partyB",
              "type": "address"
            },
            {
              "internalType": "enum HedgerMode",
              "name": "hedgerMode",
              "type": "uint8"
            },
            {
              "internalType": "uint256",
              "name": "marketId",
              "type": "uint256"
            },
            {
              "internalType": "enum Side",
              "name": "side",
              "type": "uint8"
            },
            {
              "internalType": "uint256",
              "name": "notionalUsd",
              "type": "uint256"
            },
            {
              "internalType": "uint256",
              "name": "lockedMarginA",
              "type": "uint256"
            },
            {
              "internalType": "uint256",
              "name": "protocolFee",
              "type": "uint256"
            },
            {
              "internalType": "uint256",
              "name": "liquidationFee",
              "type": "uint256"
            },
            {
              "internalType": "uint256",
              "name": "cva",
              "type": "uint256"
            },
            {
              "internalType": "uint256",
              "name": "minExpectedUnits",
              "type": "uint256"
            },
            {
              "internalType": "uint256",
              "name": "maxExpectedUnits",
              "type": "uint256"
            },
            {
              "internalType": "address",
              "name": "affiliate",
              "type": "address"
            }
          ],
          "internalType": "struct RequestForQuote",
          "name": "rfq",
          "type": "tuple"
        }
      ],
      "stateMutability": "nonpayable",
      "type": "function"
    }
  ],
  "transactionHash": "0x364886926c9d6cb6cf84f81d07b5453186e1f520d55f373ce3496e66f5290997",
  "args": [],
  "numDeployments": 1,
  "solcInputHash": "d90b29cf48681035a62a283f3cda4c3c",
  "bytecode": "0x60808060405234610016576110e7908161001c8239f35b600080fdfe608080604052600436101561001357600080fd5b60003560e01c90816384e24f40146100d957508063ea9544a6146100bb5763f6ce2c531461004057600080fd5b346100b65760203660031901126100b65760043567ffffffffffffffff8082116100b657366023830112156100b65781600401359081116100b657600560243683831b85018201116100b65760005b83811061009857005b806100ac836100b193861b88010135610ce5565b610ca5565b61008f565b600080fd5b346100b65760203660031901126100b6576100d7600435610ce5565b005b346100b6576101203660031901126100b6576004356001600160a01b03811690036100b657600260443510156100b657600260643510156100b65760a4359061ffff821682036100b6573660e312156100b6576040810181811067ffffffffffffffff821117610ae257604052610104813682116100b65760c4905b828210610ad257505035906001600160a01b03821682036100b657610178610b63565b50336004356001600160a01b031614610a8d576000610195610af8565b5260006101a0610af8565b526004356001600160a01b031660009081527f384062a99499d8d9927d649ae9d11b36f5aa216d4c273609f3156fb5f5cfdc08602052604090206101e2610af8565b90546001600160a01b031690819052610a865760005b15610a4b57602081519101519061020d610b63565b506024356000527f35cc72510b152d9944ca07ae5bfb481ff4b7afbbbd870172068c721dd022931e60205260ff60026040600020015460081c1615610a1257610257604435610b59565b600160443514610966575b608435156109295761027d61ffff6102fc9516608435610c85565b926000610288610af8565b5261029284610c68565b61029a610af8565b90815260006102a7610af8565b526024356000527f35cc72510b152d9944ca07ae5bfb481ff4b7afbbbd870172068c721dd022931e60205261030e6008604060002001549160006102e9610af8565b52670de0b6b3a764000080988194610c68565b0490610306610af8565b918252610cb4565b510492600061031b610af8565b528561037561032987610c68565b610331610af8565b908152600061033e610af8565b52826102fc7f6153ab96f87058e42029646de88822d1a2d6637639f9e3da153f23d6da9f44b054600061036f610af8565b52610c68565b5104956000610382610af8565b526103d561038f87610c68565b610397610af8565b90815260006103a4610af8565b52826102fc7f6153ab96f87058e42029646de88822d1a2d6637639f9e3da153f23d6da9f44b254600061036f610af8565b5104926103f1846103ec896103ec89608435610c5b565b610c5b565b6103fa33610c22565b5481116108e45761040a33610c22565b610415828254610c98565b90553360009081527fdfc6b7cb23f07b62775a228b58db9a36de27f3d727948dc10389611c6fd1064160205260409020610452905b918254610c5b565b90557fdfc6b7cb23f07b62775a228b58db9a36de27f3d727948dc10389611c6fd1064354936001850185116108ce5761026097600196610490610b18565b98428a524260208b015288880160408b0152600060608b01526104b4604435610b59565b60443560808b01528860a08b01523360c08b0152888060a01b036004351660e08b015260006101008b01526024356101208b01526104f3606435610b59565b6064356101408b01526101608a01526084356101808a01526101a08901526101c08801526101e0870152610200860152610220850152828060a01b0316610240840152016000527fdfc6b7cb23f07b62775a228b58db9a36de27f3d727948dc10389611c6fd10642602052600e604060002082518155602083015160018201556040830151600282015560038101606084015161058f81610b39565b61059881610b39565b815462ff00006080870151926105ad84610b59565b6105b684610b59565b60a0880151926105c584610b59565b6105ce84610b59565b60ff61ff006301000000600160b81b0360c08c015160181b169660081b1692169068ffffffffffffffffff60b81b1617179160101b16171790556004810160018060a01b0360e08501511681549061010086015161062b81610b39565b61063481610b39565b60ff60a01b9060a01b16916affffffffffffffffffffff60a81b161717905561012083015160058201556006810161014084015161067181610b59565b61067a81610b59565b60ff80198354169116179055610160830151600782015561018083015160088201556101a083015160098201556101c0830151600a8201556101e0830151600b820155610200830151600c820155610220830151600d8201550160018060a01b03610240830151166bffffffffffffffffffffffff60a01b8254161790556107227fdfc6b7cb23f07b62775a228b58db9a36de27f3d727948dc10389611c6fd1064354610ca5565b7fdfc6b7cb23f07b62775a228b58db9a36de27f3d727948dc10389611c6fd106435561074f604435610b59565b6001604435146108b4575b60408181015181513381526004356001600160a01b0316602082015290917fec269edfcf64d49b0107c08ea1a71e69b564caaaa4e51ac7f862831cfe76e89b91a26040519080518252602081015160208301526040810151604083015260608101516107c581610b39565b606083015260808101516107d881610b59565b608083015260a08101516107eb81610b59565b60a083015260018060a01b0360c08201511660c083015260018060a01b0360e08201511660e083015261010081015161082381610b39565b61010083015261012081015161012083015261014081015161084481610b59565b6101408301526101608101516101608301526101808101516101808301526101a08101516101a08301526101c08101516101c08301526101e08101516101e083015261020081015161020083015261022081015161022083015261024060018060a01b0391015116610240820152f35b6108bd33610be9565b6108c78154610ca5565b905561075a565b634e487b7160e01b600052601160045260246000fd5b60405162461bcd60e51b815260206004820152601b60248201527f496e73756666696369656e74206d617267696e2062616c616e636500000000006044820152606490fd5b60405162461bcd60e51b8152602060048201526015602482015274416d6f756e742063616e6e6f74206265207a65726f60581b6044820152606490fd5b336000527fdfc6b7cb23f07b62775a228b58db9a36de27f3d727948dc10389611c6fd106486020526109a76040600020546109a033610be9565b5490610c5b565b7f6153ab96f87058e42029646de88822d1a2d6637639f9e3da153f23d6da9f44b4541161026257606460405162461bcd60e51b815260206004820152602060248201527f4d6178206f70656e20706f736974696f6e732063726f737320726561636865646044820152fd5b60405162461bcd60e51b81526020600482015260116024820152704d61726b6574206e6f742061637469766560781b6044820152606490fd5b60405162461bcd60e51b815260206004820152601360248201527212195919d95c881a5cc81b9bdd081d985b1a59606a1b6044820152606490fd5b60016101f8565b60405162461bcd60e51b815260206004820152601b60248201527f506172746965732063616e206e6f74206265207468652073616d6500000000006044820152606490fd5b8135815260209182019101610155565b634e487b7160e01b600052604160045260246000fd5b604051906020820182811067ffffffffffffffff821117610ae257604052565b60405190610260820182811067ffffffffffffffff821117610ae257604052565b60031115610b4357565b634e487b7160e01b600052602160045260246000fd5b60021115610b4357565b610b6b610b18565b9060008083528060208401528060408401528060608401528060808401528060a08401528060c08401528060e08401528061010084015280610120840152806101408401528061016084015280610180840152806101a0840152806101c0840152806101e08401528061020084015280610220840152610240830152565b6001600160a01b031660009081527fdfc6b7cb23f07b62775a228b58db9a36de27f3d727948dc10389611c6fd106446020526040902090565b6001600160a01b031660009081527fdfc6b7cb23f07b62775a228b58db9a36de27f3d727948dc10389611c6fd1063f6020526040902090565b919082018092116108ce57565b670de0b6b3a76400009080600019048211811515166108ce570290565b80600019048211811515166108ce570290565b919082039182116108ce57565b60001981146108ce5760010190565b670de0b6b3a764000091610cd6916000610ccc610af8565b5251905190610c85565b04610cdf610af8565b90815290565b8060005260207fdfc6b7cb23f07b62775a228b58db9a36de27f3d727948dc10389611c6fd1064281526040806000209160038301805460018060a01b039433868360181c16036110a65760ff936001858460101c16610d4381610b59565b0361106e576004820194855493818560a01c1690610d6082610b39565b8161103457828116610d7181610b39565b610ffc576001850190610da782547f6153ab96f87058e42029646de88822d1a2d6637639f9e3da153f23d6da9f44b35490610c5b565b421115610fc657610ec9946001979694610ec1948d948a610ec19560ff191617809c55429055610dd5610b18565b9287548452429084015260028701548d84015289606084015284828c60081c1699608085019a610e0481610b59565b8b52838d60101c16610e1581610b59565b60a08601528160c086019d60181c168d521660e0840152610e3581610b39565b6101008301526005860154610120830152600686015416610e5581610b59565b6101408201526007850154610160820152600885015480610180830152600986015491826101a0820152610240600a880154956101c08301968752600e600b8a0154996101e085019a8b52600c810154610200860152600d810154610220860152015416910152610c5b565b905190610c5b565b835187166001600160a01b031660009081527fdfc6b7cb23f07b62775a228b58db9a36de27f3d727948dc10389611c6fd1064160205260409020610f0e828254610c98565b9055610f1f61044a88865116610c22565b905551610f2b81610b59565b610f3481610b59565b14610f7d575b5054905133815291166001600160a01b031660208201527f2e08bef6dd7525a11228f0cdbbe4391df4d909ed7be199113f2b58157dae34649080604081010390a2565b83610f8c919392935116610be9565b9283549283156108ce57600019909301909355907f2e08bef6dd7525a11228f0cdbbe4391df4d909ed7be199113f2b58157dae3464610f3a565b895162461bcd60e51b815260048101869052600f60248201526e14995c5d595cdd08151a5b595bdd5d608a1b6044820152606490fd5b885162461bcd60e51b8152600481018590526011602482015270496e76616c69642052465120737461746560781b6044820152606490fd5b885162461bcd60e51b8152600481018590526013602482015272496e76616c696420686564676572206d6f646560681b6044820152606490fd5b60649086519062461bcd60e51b825260048201526012602482015271496e76616c6964206f72646572207479706560701b6044820152fd5b845162461bcd60e51b815260048101859052600d60248201526c496e76616c696420706172747960981b6044820152606490fdfea164736f6c6343000810000a",
  "devdoc": {
    "kind": "dev",
    "methods": {},
    "version": 1
  },
  "userdoc": {
    "kind": "user",
    "methods": {},
    "version": 1
  },
  "storageLayout": {
    "storage": [],
    "types": null
  }
}