{
  "address": "0x2666114f2a515690E8f67078F30d8d0F57b84897",
  "abi": [
    {
      "inputs": [],
      "name": "getMuonAppCID",
      "outputs": [
        {
          "internalType": "bytes",
          "name": "",
          "type": "bytes"
        }
      ],
      "stateMutability": "view",
      "type": "function"
    },
    {
      "inputs": [],
      "name": "getMuonAppId",
      "outputs": [
        {
          "internalType": "uint256",
          "name": "",
          "type": "uint256"
        }
      ],
      "stateMutability": "view",
      "type": "function"
    },
    {
      "inputs": [],
      "name": "getMuonGatewaySigner",
      "outputs": [
        {
          "internalType": "address",
          "name": "",
          "type": "address"
        }
      ],
      "stateMutability": "view",
      "type": "function"
    },
    {
      "inputs": [],
      "name": "getMuonPublicKey",
      "outputs": [
        {
          "components": [
            {
              "internalType": "uint256",
              "name": "x",
              "type": "uint256"
            },
            {
              "internalType": "uint8",
              "name": "parity",
              "type": "uint8"
            }
          ],
          "internalType": "struct PublicKey",
          "name": "",
          "type": "tuple"
        }
      ],
      "stateMutability": "view",
      "type": "function"
    },
    {
      "inputs": [],
      "name": "getSignatureExpiryPeriod",
      "outputs": [
        {
          "internalType": "uint256",
          "name": "",
          "type": "uint256"
        }
      ],
      "stateMutability": "view",
      "type": "function"
    },
    {
      "inputs": [
        {
          "internalType": "uint256",
          "name": "positionId",
          "type": "uint256"
        },
        {
          "internalType": "uint256",
          "name": "bidPrice",
          "type": "uint256"
        },
        {
          "internalType": "uint256",
          "name": "askPrice",
          "type": "uint256"
        },
        {
          "internalType": "uint256",
          "name": "timestamp",
          "type": "uint256"
        },
        {
          "internalType": "bytes",
          "name": "reqId",
          "type": "bytes"
        },
        {
          "components": [
            {
              "internalType": "uint256",
              "name": "signature",
              "type": "uint256"
            },
            {
              "internalType": "address",
              "name": "owner",
              "type": "address"
            },
            {
              "internalType": "address",
              "name": "nonce",
              "type": "address"
            }
          ],
          "internalType": "struct SchnorrSign",
          "name": "sign",
          "type": "tuple"
        },
        {
          "internalType": "bytes",
          "name": "gatewaySignature",
          "type": "bytes"
        }
      ],
      "name": "verifyPositionPriceOrThrow",
      "outputs": [],
      "stateMutability": "view",
      "type": "function"
    },
    {
      "inputs": [
        {
          "internalType": "uint256[]",
          "name": "positionIds",
          "type": "uint256[]"
        },
        {
          "internalType": "uint256[]",
          "name": "bidPrices",
          "type": "uint256[]"
        },
        {
          "internalType": "uint256[]",
          "name": "askPrices",
          "type": "uint256[]"
        },
        {
          "internalType": "uint256",
          "name": "timestamp",
          "type": "uint256"
        },
        {
          "internalType": "bytes",
          "name": "reqId",
          "type": "bytes"
        },
        {
          "components": [
            {
              "internalType": "uint256",
              "name": "signature",
              "type": "uint256"
            },
            {
              "internalType": "address",
              "name": "owner",
              "type": "address"
            },
            {
              "internalType": "address",
              "name": "nonce",
              "type": "address"
            }
          ],
          "internalType": "struct SchnorrSign",
          "name": "sign",
          "type": "tuple"
        },
        {
          "internalType": "bytes",
          "name": "gatewaySignature",
          "type": "bytes"
        }
      ],
      "name": "verifyPositionPricesOrThrow",
      "outputs": [],
      "stateMutability": "view",
      "type": "function"
    },
    {
      "inputs": [
        {
          "internalType": "bytes32",
          "name": "hash",
          "type": "bytes32"
        },
        {
          "components": [
            {
              "internalType": "uint256",
              "name": "signature",
              "type": "uint256"
            },
            {
              "internalType": "address",
              "name": "owner",
              "type": "address"
            },
            {
              "internalType": "address",
              "name": "nonce",
              "type": "address"
            }
          ],
          "internalType": "struct SchnorrSign",
          "name": "sign",
          "type": "tuple"
        },
        {
          "internalType": "bytes",
          "name": "gatewaySignature",
          "type": "bytes"
        }
      ],
      "name": "verifyTSSAndGatewayOrThrow",
      "outputs": [],
      "stateMutability": "view",
      "type": "function"
    },
    {
      "inputs": [
        {
          "internalType": "string",
          "name": "data",
          "type": "string"
        },
        {
          "internalType": "bytes",
          "name": "reqId",
          "type": "bytes"
        },
        {
          "components": [
            {
              "internalType": "uint256",
              "name": "signature",
              "type": "uint256"
            },
            {
              "internalType": "address",
              "name": "owner",
              "type": "address"
            },
            {
              "internalType": "address",
              "name": "nonce",
              "type": "address"
            }
          ],
          "internalType": "struct SchnorrSign",
          "name": "sign",
          "type": "tuple"
        }
      ],
      "name": "verifyTSSOrThrow",
      "outputs": [],
      "stateMutability": "view",
      "type": "function"
    }
  ],
  "transactionHash": "0x80f6ece700a26bb0a9a71c3049a673365d8bd7e1a5a68f68669492ea1fbbb94a",
  "args": [],
  "numDeployments": 2,
  "solcInputHash": "f9a95eeb00b1b63a8958cda7d13f7bdb",
  "bytecode": "0x6080806040523461001657611117908161001c8239f35b600080fdfe6040608081526004908136101561001557600080fd5b600091823560e01c80630980f5e91461065f578063145f4c9b146106215780631a12dd63146104d2578063810e8947146103745780638af980b71461033057838163981b3eeb1461021c575080639e86a82a146101d4578063ea01b255146101965763ebd747d31461008657600080fd5b3461018e5761012036600319011261018e5767ffffffffffffffff9060643584608435848111610192576100bd90369085016107e8565b9060603660a319011261018e576101043595861161018e5760c0610183916100eb61018b98369089016107e8565b97909660208b6101596100fc610d85565b5050909a61013661012e7fa16e4f0250703b8e2fb958c977e0b2739a569e1a37698e6fb31e0c101f74309d5488610cf5565b421115610d18565b8a84519b8c99878b019e8f52868b0137880193840190815281519485920161081b565b0191358b8301526024356060830152604435608083015260a08201520360a081018452018261088c565b5190206109c6565b51f35b8280fd5b5080fd5b5050346101925781600319360112610192576020907fa16e4f0250703b8e2fb958c977e0b2739a569e1a37698e6fb31e0c101f74309d549051908152f35b5050346101925781600319360112610192577fa16e4f0250703b8e2fb958c977e0b2739a569e1a37698e6fb31e0c101f74309c5490516001600160a01b039091168152602090f35b919050346101925760a03660031901126101925767ffffffffffffffff813581811161032c5761024f90369084016107e8565b91909260243591821161032857610268913691016107e8565b9190926060604319360112610328576102b5938287926102cf94602061028c610d85565b509b919a908a89519b8c99868b019e8f528b8b013788019289840190815281519485920161081b565b01918583013701888382015203602081018452018261088c565b519020908251906102df82610870565b60443582526001600160a01b0391606435838116810361032457602082015260843592831683036103205761018b9361031b9386830152610f07565b610987565b8580fd5b8680fd5b8480fd5b8380fd5b8284346103715780600319360112610371576020825161034f8161083e565b828152015261035c610915565b60ff6020835192805184520151166020820152f35b80fd5b503461018e5761012036600319011261018e5767ffffffffffffffff908035828111610328576103a790369083016108ae565b91602435818111610320576103bf90369084016108ae565b91604435828111610324576103d790369083016108ae565b906064356084358481116104ce576103f290369084016107e8565b93909260603660a31901126104ca57610104359586116104ca57889561041a913691016107e8565b969097610425610d85565b50507fa16e4f0250703b8e2fb958c977e0b2739a569e1a37698e6fb31e0c101f74309d989198546104569087610cf5565b42111561046290610d18565b87825198899860208a019b8c52848a013787018281018e815282519261048c91849160200161081b565b010161049791610d58565b6104a091610d58565b6104a991610d58565b908152038082526020016104bd908261088c565b5190209161018b926109c6565b8980fd5b8880fd5b509134610371578060031936011261037157815190807fa16e4f0250703b8e2fb958c977e0b2739a569e1a37698e6fb31e0c101f74309980549260019084821c92828616958615610617575b6020998a86108814610604575091899593918593899687528787019890816000146105e15750600114610586575b5050505061055c9250038361088c565b610578835194859381855251928380928601528585019061081b565b601f01601f19168101030190f35b81527f2dba82561a470ee7e5f92ef2928634d782dd29b247d775b38c944adcfb34981095935091905b8183106105c957508894505082010161055c38808061054c565b855488840185015294850194879450918301916105af565b935050505061055c94925060ff19168552151560051b820101869238808061054c565b634e487b7160e01b845260229052602483fd5b93607f169361051e565b5050346101925781600319360112610192576020907fa16e4f0250703b8e2fb958c977e0b2739a569e1a37698e6fb31e0c101f743098549051908152f35b503461018e5760a036600319011261018e578035606036602319011261032c5767ffffffffffffffff6084358181116103205761069f90369085016107e8565b6106a7610d85565b9392509490508751956106b987610870565b6024358752604435966001600160a01b039687891689036107e457602098898301526064359088821682036107e0578261031b928d6106fa95015284610f07565b8851878101917f19457468657265756d205369676e6564204d6573736167653a0a3332000000008352603c820152603c815261073581610870565b5190209082116107cd57875189959493929161075a601f8401601f191689018361088c565b82825236838601116103245761078796888461077f9589988387013784010152610c1d565b949094610b03565b1691160361079457505051f35b606492519162461bcd60e51b8352820152601660248201527524b73b30b634b21033b0ba32bbb0bc9039b4b3b732b960511b6044820152fd5b634e487b7160e01b895260418752602489fd5b8c80fd5b8b80fd5b9181601f840112156108165782359167ffffffffffffffff8311610816576020838186019501011161081657565b600080fd5b60005b83811061082e5750506000910152565b818101518382015260200161081e565b6040810190811067ffffffffffffffff82111761085a57604052565b634e487b7160e01b600052604160045260246000fd5b6060810190811067ffffffffffffffff82111761085a57604052565b90601f8019910116810190811067ffffffffffffffff82111761085a57604052565b9080601f830112156108165781359067ffffffffffffffff821161085a578160051b604051936020936108e38584018761088c565b85528380860192820101928311610816578301905b828210610906575050505090565b813581529083019083016108f8565b600060206040516109258161083e565b82815201526040516109368161083e565b7fa16e4f0250703b8e2fb958c977e0b2739a569e1a37698e6fb31e0c101f74309a54815260ff7fa16e4f0250703b8e2fb958c977e0b2739a569e1a37698e6fb31e0c101f74309b5416602082015290565b1561098e57565b60405162461bcd60e51b815260206004820152601060248201526f1514d4c81b9bdd081d995c9a599a595960821b6044820152606490fd5b916109cf610d85565b9150929150606060a31936011261081657604051946109ed86610870565b60a435865260c435956001600160a01b03948588168803610816576020978883015260e435908682168203610816578261031b926040610a2f95015284610f07565b604051868101917f19457468657265756d205369676e6564204d6573736167653a0a3332000000008352603c820152603c8152610a6b81610870565b5190209367ffffffffffffffff831161085a57604051610a94601f8501601f191688018261088c565b838152368483011161081657610abb9560008886889761077f968387013784010152610c1d565b16911603610ac65750565b6064906040519062461bcd60e51b82526004820152601660248201527524b73b30b634b21033b0ba32bbb0bc9039b4b3b732b960511b6044820152fd5b6005811015610c075780610b145750565b60018103610b615760405162461bcd60e51b815260206004820152601860248201527f45434453413a20696e76616c6964207369676e617475726500000000000000006044820152606490fd5b60028103610bae5760405162461bcd60e51b815260206004820152601f60248201527f45434453413a20696e76616c6964207369676e6174757265206c656e677468006044820152606490fd5b600314610bb757565b60405162461bcd60e51b815260206004820152602260248201527f45434453413a20696e76616c6964207369676e6174757265202773272076616c604482015261756560f01b6064820152608490fd5b634e487b7160e01b600052602160045260246000fd5b906041815114600014610c4b57610c47916020820151906060604084015193015160001a90610c55565b9091565b5050600090600290565b939291907f7fffffffffffffffffffffffffffffff5d576e7357a4501ddfe92f46681b20a08311610ce85791610cac9160209360405196879094939260ff6060936080840197845216602083015260408201520152565b836000948592838052039060015afa15610cdb5781516001600160a01b03811615610cd5579190565b50600190565b50604051903d90823e3d90fd5b5050509050600090600390565b91908201809211610d0257565b634e487b7160e01b600052601160045260246000fd5b15610d1f57565b60405162461bcd60e51b815260206004820152601160248201527014da59db985d1d5c9948195e1c1a5c9959607a1b6044820152606490fd5b805160208092019160005b828110610d71575050505090565b835185529381019392810192600101610d63565b604051610d918161083e565b600091828252826020809301527fa16e4f0250703b8e2fb958c977e0b2739a569e1a37698e6fb31e0c101f7430985460405192847fa16e4f0250703b8e2fb958c977e0b2739a569e1a37698e6fb31e0c101f74309980549660019088821c92828a16998a15610efd575b8685108b14610ee957899a858b98999a9b529081600014610ec55750600114610e6a575b50505050610e2f9250038461088c565b610e37610915565b7fa16e4f0250703b8e2fb958c977e0b2739a569e1a37698e6fb31e0c101f74309c5491939290916001600160a01b031690565b81527f2dba82561a470ee7e5f92ef2928634d782dd29b247d775b38c944adcfb34981095935091905b818310610ead575050610e2f935082010138808080610e1f565b85548984018501529485019488945091830191610e93565b9350505050610e2f94925060ff191682840152151560051b82010138808080610e1f565b634e487b7160e01b83526022600452602483fd5b93607f1693610dfb565b9082519260ff602080920151168251946040809401519560018060a01b0395868816977f7fffffffffffffffffffffffffffffff5d576e7357a4501ddfe92f46681b20a18410156110cd5770014551231950b75fc4402da1732fc9bebe19918284101561107e5789151580611075575b8061106c575b80611063575b1561102657908291885190888201926bffffffffffffffffffffffff199060601b168352603482015260348152610fb981610870565b5190209284098103818111610d025783610ffd9260009615871461101e57601b905b89519687960992855260ff166020850152604084015260608301526080820190565b838052039060015afa156110145750600051161490565b513d6000823e3d90fd5b601c90610fdb565b875162461bcd60e51b81526004810188905260166024820152751b9bc81e995c9bc81a5b9c1d5d1cc8185b1b1bddd95960521b6044820152606490fd5b50801515610f83565b50831515610f7d565b50841515610f77565b875162461bcd60e51b815260048101889052602260248201527f7369676e6174757265206d7573742062652072656475636564206d6f64756c6f604482015261205160f01b6064820152608490fd5b865162461bcd60e51b81526004810187905260166024820152755075626c69632d6b65792078203e3d2048414c465f5160501b6044820152606490fdfea164736f6c6343000810000a",
  "devdoc": {
    "kind": "dev",
    "methods": {},
    "version": 1
  },
  "userdoc": {
    "kind": "user",
    "methods": {},
    "version": 1
  },
  "storageLayout": {
    "storage": [],
    "types": null
  }
}