{
  "address": "0x9550046D1E644317a85cCe6595cc247b2b5c26E7",
  "abi": [
    {
      "inputs": [],
      "name": "getMuonAppCID",
      "outputs": [
        {
          "internalType": "bytes",
          "name": "",
          "type": "bytes"
        }
      ],
      "stateMutability": "view",
      "type": "function"
    },
    {
      "inputs": [],
      "name": "getMuonAppId",
      "outputs": [
        {
          "internalType": "uint256",
          "name": "",
          "type": "uint256"
        }
      ],
      "stateMutability": "view",
      "type": "function"
    },
    {
      "inputs": [],
      "name": "getMuonGatewaySigner",
      "outputs": [
        {
          "internalType": "address",
          "name": "",
          "type": "address"
        }
      ],
      "stateMutability": "view",
      "type": "function"
    },
    {
      "inputs": [],
      "name": "getMuonPublicKey",
      "outputs": [
        {
          "components": [
            {
              "internalType": "uint256",
              "name": "x",
              "type": "uint256"
            },
            {
              "internalType": "uint8",
              "name": "parity",
              "type": "uint8"
            }
          ],
          "internalType": "struct PublicKey",
          "name": "",
          "type": "tuple"
        }
      ],
      "stateMutability": "view",
      "type": "function"
    },
    {
      "inputs": [
        {
          "internalType": "uint256",
          "name": "positionId",
          "type": "uint256"
        },
        {
          "internalType": "uint256",
          "name": "bidPrice",
          "type": "uint256"
        },
        {
          "internalType": "uint256",
          "name": "askPrice",
          "type": "uint256"
        },
        {
          "internalType": "bytes",
          "name": "reqId",
          "type": "bytes"
        },
        {
          "components": [
            {
              "internalType": "uint256",
              "name": "signature",
              "type": "uint256"
            },
            {
              "internalType": "address",
              "name": "owner",
              "type": "address"
            },
            {
              "internalType": "address",
              "name": "nonce",
              "type": "address"
            }
          ],
          "internalType": "struct SchnorrSign",
          "name": "sign",
          "type": "tuple"
        },
        {
          "internalType": "bytes",
          "name": "gatewaySignature",
          "type": "bytes"
        }
      ],
      "name": "verifyPositionPriceOrThrow",
      "outputs": [],
      "stateMutability": "view",
      "type": "function"
    },
    {
      "inputs": [
        {
          "internalType": "uint256[]",
          "name": "positionIds",
          "type": "uint256[]"
        },
        {
          "internalType": "uint256[]",
          "name": "bidPrices",
          "type": "uint256[]"
        },
        {
          "internalType": "uint256[]",
          "name": "askPrices",
          "type": "uint256[]"
        },
        {
          "internalType": "bytes",
          "name": "reqId",
          "type": "bytes"
        },
        {
          "components": [
            {
              "internalType": "uint256",
              "name": "signature",
              "type": "uint256"
            },
            {
              "internalType": "address",
              "name": "owner",
              "type": "address"
            },
            {
              "internalType": "address",
              "name": "nonce",
              "type": "address"
            }
          ],
          "internalType": "struct SchnorrSign",
          "name": "sign",
          "type": "tuple"
        },
        {
          "internalType": "bytes",
          "name": "gatewaySignature",
          "type": "bytes"
        }
      ],
      "name": "verifyPositionPricesOrThrow",
      "outputs": [],
      "stateMutability": "view",
      "type": "function"
    },
    {
      "inputs": [
        {
          "internalType": "bytes32",
          "name": "hash",
          "type": "bytes32"
        },
        {
          "components": [
            {
              "internalType": "uint256",
              "name": "signature",
              "type": "uint256"
            },
            {
              "internalType": "address",
              "name": "owner",
              "type": "address"
            },
            {
              "internalType": "address",
              "name": "nonce",
              "type": "address"
            }
          ],
          "internalType": "struct SchnorrSign",
          "name": "sign",
          "type": "tuple"
        },
        {
          "internalType": "bytes",
          "name": "gatewaySignature",
          "type": "bytes"
        }
      ],
      "name": "verifyTSSAndGatewayOrThrow",
      "outputs": [],
      "stateMutability": "view",
      "type": "function"
    },
    {
      "inputs": [
        {
          "internalType": "string",
          "name": "data",
          "type": "string"
        },
        {
          "internalType": "bytes",
          "name": "reqId",
          "type": "bytes"
        },
        {
          "components": [
            {
              "internalType": "uint256",
              "name": "signature",
              "type": "uint256"
            },
            {
              "internalType": "address",
              "name": "owner",
              "type": "address"
            },
            {
              "internalType": "address",
              "name": "nonce",
              "type": "address"
            }
          ],
          "internalType": "struct SchnorrSign",
          "name": "sign",
          "type": "tuple"
        }
      ],
      "name": "verifyTSSOrThrow",
      "outputs": [],
      "stateMutability": "view",
      "type": "function"
    }
  ],
  "transactionHash": "0xc455b89be5cc0383455d398e4d00c5b3e8de80ac09853ac29fdc050984a8f8db",
  "args": [],
  "numDeployments": 1,
  "solcInputHash": "be9232a782139b4a70c2c17c27752f91",
  "bytecode": "0x608080604052346100165761100a908161001c8239f35b600080fdfe6040608081526004908136101561001557600080fd5b600091823560e01c9081630980f5e91461059e578163145f4c9b146105605781631a12dd63146104115781632be813a0146102f15781633e4f5c45146102235781638af980b7146101df5783908263981b3eeb146100c8575050639e86a82a1461007e57600080fd5b346100c457816003193601126100c4577fa16e4f0250703b8e2fb958c977e0b2739a569e1a37698e6fb31e0c101f74309c5490516001600160a01b039091168152602090f35b5080fd5b909150346100c45760a03660031901126100c45767ffffffffffffffff81358181116101db576100fb9036908401610728565b9190926024359182116101d75761011491369101610728565b91909260606043193601126101d7576101619382879261017b946020610138610c62565b509b919a908a89519b8c99868b019e8f528b8b013788019289840190815281519485920161075b565b0191858301370188838201520360208101845201826107cc565b5190209082519061018b826107b0565b60443582526001600160a01b039160643583811681036101d357602082015260843592831683036101cf576101cc936101c79386830152610de4565b6108c7565b51f35b8580fd5b8680fd5b8480fd5b8380fd5b828434610220578060031936011261022057602082516101fe8161077e565b828152015261020b610855565b60ff6020835192805184520151166020820152f35b80fd5b9050346102ed576101003660031901126102ed57826064359167ffffffffffffffff928381116102ed5761025a9036908301610728565b90929060603660831901126100c45760e4359485116100c4576102e560a06102886101cc9736908701610728565b96909560208a6102c0610299610c62565b505090998984519a8b98878a019d8e52868a0137870193840190815281519485920161075b565b0190358a820152602435606082015260443560808201520360808101845201826107cc565b519020610906565b8280fd5b9050346102ed576101003660031901126102ed5767ffffffffffffffff9080358281116101d75761032590369083016107ee565b916024358181116101cf5761033d90369084016107ee565b916044358281116101d35761035590369083016107ee565b9060643583811161040d5761036d9036908301610728565b92909160603660831901126104095760e43594851161040957879461039491369101610728565b95909661039f610c62565b50508688929851978897602089019a8b528489013786018281018d815282516020819401916103cd9261075b565b01016103d891610c35565b6103e191610c35565b6103ea91610c35565b03601f19810182526103fc90826107cc565b519020916101cc92610906565b8880fd5b8780fd5b828434610220578060031936011261022057815190807fa16e4f0250703b8e2fb958c977e0b2739a569e1a37698e6fb31e0c101f74309980549260019084821c92828616958615610556575b6020998a861088146105435750918995939185938996875287870198908160001461052057506001146104c5575b5050505061049b925003836107cc565b6104b7835194859381855251928380928601528585019061075b565b601f01601f19168101030190f35b81527f2dba82561a470ee7e5f92ef2928634d782dd29b247d775b38c944adcfb34981095935091905b81831061050857508894505082010161049b88808061048b565b855488840185015294850194879450918301916104ee565b935050505061049b94925060ff19168552151560051b820101869288808061048b565b634e487b7160e01b845260229052602483fd5b93607f169361045d565b5050346100c457816003193601126100c4576020907fa16e4f0250703b8e2fb958c977e0b2739a569e1a37698e6fb31e0c101f743098549051908152f35b9050346102ed5760a03660031901126102ed57803560603660231901126101db5767ffffffffffffffff6084358181116101cf576105df9036908501610728565b6105e7610c62565b9392509490508751956105f9876107b0565b6024358752604435966001600160a01b03968789168903610724576020988983015260643590888216820361072057826101c7928d61063a95015284610de4565b8851878101917f19457468657265756d205369676e6564204d6573736167653a0a3332000000008352603c820152603c8152610675816107b0565b51902090821161070d57875189959493929161069a601f8401601f19168901836107cc565b82825236838601116101d3576106c79688846106bf9589988387013784010152610b5d565b949094610a43565b169116036106d457505051f35b606492519162461bcd60e51b8352820152601660248201527524b73b30b634b21033b0ba32bbb0bc9039b4b3b732b960511b6044820152fd5b634e487b7160e01b895260418752602489fd5b8c80fd5b8b80fd5b9181601f840112156107565782359167ffffffffffffffff8311610756576020838186019501011161075657565b600080fd5b60005b83811061076e5750506000910152565b818101518382015260200161075e565b6040810190811067ffffffffffffffff82111761079a57604052565b634e487b7160e01b600052604160045260246000fd5b6060810190811067ffffffffffffffff82111761079a57604052565b90601f8019910116810190811067ffffffffffffffff82111761079a57604052565b9080601f830112156107565781359067ffffffffffffffff821161079a578160051b60405193602093610823858401876107cc565b85528380860192820101928311610756578301905b828210610846575050505090565b81358152908301908301610838565b600060206040516108658161077e565b82815201526040516108768161077e565b7fa16e4f0250703b8e2fb958c977e0b2739a569e1a37698e6fb31e0c101f74309a54815260ff7fa16e4f0250703b8e2fb958c977e0b2739a569e1a37698e6fb31e0c101f74309b5416602082015290565b156108ce57565b60405162461bcd60e51b815260206004820152601060248201526f1514d4c81b9bdd081d995c9a599a595960821b6044820152606490fd5b9161090f610c62565b91509291506060608319360112610756576040519461092d866107b0565b608435865260a435956001600160a01b03948588168803610756576020978883015260c43590868216820361075657826101c792604061096f95015284610de4565b604051868101917f19457468657265756d205369676e6564204d6573736167653a0a3332000000008352603c820152603c81526109ab816107b0565b5190209367ffffffffffffffff831161079a576040516109d4601f8501601f19168801826107cc565b8381523684830111610756576109fb956000888688976106bf968387013784010152610b5d565b16911603610a065750565b6064906040519062461bcd60e51b82526004820152601660248201527524b73b30b634b21033b0ba32bbb0bc9039b4b3b732b960511b6044820152fd5b6005811015610b475780610a545750565b60018103610aa15760405162461bcd60e51b815260206004820152601860248201527f45434453413a20696e76616c6964207369676e617475726500000000000000006044820152606490fd5b60028103610aee5760405162461bcd60e51b815260206004820152601f60248201527f45434453413a20696e76616c6964207369676e6174757265206c656e677468006044820152606490fd5b600314610af757565b60405162461bcd60e51b815260206004820152602260248201527f45434453413a20696e76616c6964207369676e6174757265202773272076616c604482015261756560f01b6064820152608490fd5b634e487b7160e01b600052602160045260246000fd5b906041815114600014610b8b57610b87916020820151906060604084015193015160001a90610b95565b9091565b5050600090600290565b939291907f7fffffffffffffffffffffffffffffff5d576e7357a4501ddfe92f46681b20a08311610c285791610bec9160209360405196879094939260ff6060936080840197845216602083015260408201520152565b836000948592838052039060015afa15610c1b5781516001600160a01b03811615610c15579190565b50600190565b50604051903d90823e3d90fd5b5050509050600090600390565b805160208092019160005b828110610c4e575050505090565b835185529381019392810192600101610c40565b604051610c6e8161077e565b600091828252826020809301527fa16e4f0250703b8e2fb958c977e0b2739a569e1a37698e6fb31e0c101f7430985460405192847fa16e4f0250703b8e2fb958c977e0b2739a569e1a37698e6fb31e0c101f74309980549660019088821c92828a16998a15610dda575b8685108b14610dc657899a858b98999a9b529081600014610da25750600114610d47575b50505050610d0c925003846107cc565b610d14610855565b7fa16e4f0250703b8e2fb958c977e0b2739a569e1a37698e6fb31e0c101f74309c5491939290916001600160a01b031690565b81527f2dba82561a470ee7e5f92ef2928634d782dd29b247d775b38c944adcfb34981095935091905b818310610d8a575050610d0c935082010138808080610cfc565b85548984018501529485019488945091830191610d70565b9350505050610d0c94925060ff191682840152151560051b82010138808080610cfc565b634e487b7160e01b83526022600452602483fd5b93607f1693610cd8565b9082519260ff602080920151168251946040809401519560018060a01b0395868816977f7fffffffffffffffffffffffffffffff5d576e7357a4501ddfe92f46681b20a1841015610fc05770014551231950b75fc4402da1732fc9bebe199182841015610f715789151580610f68575b80610f5f575b80610f56575b15610f1957908291885190888201926bffffffffffffffffffffffff199060601b168352603482015260348152610e96816107b0565b5190209284098103818111610f035783610eda92600096158714610efb57601b905b89519687960992855260ff166020850152604084015260608301526080820190565b838052039060015afa15610ef15750600051161490565b513d6000823e3d90fd5b601c90610eb8565b634e487b7160e01b600052601160045260246000fd5b875162461bcd60e51b81526004810188905260166024820152751b9bc81e995c9bc81a5b9c1d5d1cc8185b1b1bddd95960521b6044820152606490fd5b50801515610e60565b50831515610e5a565b50841515610e54565b875162461bcd60e51b815260048101889052602260248201527f7369676e6174757265206d7573742062652072656475636564206d6f64756c6f604482015261205160f01b6064820152608490fd5b865162461bcd60e51b81526004810187905260166024820152755075626c69632d6b65792078203e3d2048414c465f5160501b6044820152606490fdfea164736f6c6343000810000a",
  "devdoc": {
    "kind": "dev",
    "methods": {},
    "version": 1
  },
  "userdoc": {
    "kind": "user",
    "methods": {},
    "version": 1
  },
  "storageLayout": {
    "storage": [],
    "types": null
  }
}