{
  "address": "0xBF00a7cFa548ee0B70133Dc533a93b81d5DC4436",
  "abi": [
    {
      "anonymous": false,
      "inputs": [
        {
          "indexed": true,
          "internalType": "bytes32",
          "name": "role",
          "type": "bytes32"
        },
        {
          "indexed": true,
          "internalType": "bytes32",
          "name": "previousAdminRole",
          "type": "bytes32"
        },
        {
          "indexed": true,
          "internalType": "bytes32",
          "name": "newAdminRole",
          "type": "bytes32"
        }
      ],
      "name": "RoleAdminChanged",
      "type": "event"
    },
    {
      "anonymous": false,
      "inputs": [
        {
          "indexed": true,
          "internalType": "bytes32",
          "name": "role",
          "type": "bytes32"
        },
        {
          "indexed": true,
          "internalType": "address",
          "name": "account",
          "type": "address"
        },
        {
          "indexed": true,
          "internalType": "address",
          "name": "sender",
          "type": "address"
        }
      ],
      "name": "RoleGranted",
      "type": "event"
    },
    {
      "anonymous": false,
      "inputs": [
        {
          "indexed": true,
          "internalType": "bytes32",
          "name": "role",
          "type": "bytes32"
        },
        {
          "indexed": true,
          "internalType": "address",
          "name": "account",
          "type": "address"
        },
        {
          "indexed": true,
          "internalType": "address",
          "name": "sender",
          "type": "address"
        }
      ],
      "name": "RoleRevoked",
      "type": "event"
    },
    {
      "anonymous": false,
      "inputs": [
        {
          "indexed": false,
          "internalType": "bytes",
          "name": "oldCID",
          "type": "bytes"
        },
        {
          "indexed": false,
          "internalType": "bytes",
          "name": "newCID",
          "type": "bytes"
        }
      ],
      "name": "SetMuonAppCID",
      "type": "event"
    },
    {
      "anonymous": false,
      "inputs": [
        {
          "indexed": false,
          "internalType": "uint256",
          "name": "oldId",
          "type": "uint256"
        },
        {
          "indexed": false,
          "internalType": "uint256",
          "name": "newId",
          "type": "uint256"
        }
      ],
      "name": "SetMuonAppId",
      "type": "event"
    },
    {
      "anonymous": false,
      "inputs": [
        {
          "indexed": false,
          "internalType": "address",
          "name": "oldSigner",
          "type": "address"
        },
        {
          "indexed": false,
          "internalType": "address",
          "name": "newSigner",
          "type": "address"
        }
      ],
      "name": "SetMuonGatewaySigner",
      "type": "event"
    },
    {
      "anonymous": false,
      "inputs": [
        {
          "indexed": false,
          "internalType": "uint256",
          "name": "oldX",
          "type": "uint256"
        },
        {
          "indexed": false,
          "internalType": "uint8",
          "name": "oldParity",
          "type": "uint8"
        },
        {
          "indexed": false,
          "internalType": "uint256",
          "name": "newX",
          "type": "uint256"
        },
        {
          "indexed": false,
          "internalType": "uint8",
          "name": "newParity",
          "type": "uint8"
        }
      ],
      "name": "SetMuonPublicKey",
      "type": "event"
    },
    {
      "anonymous": false,
      "inputs": [
        {
          "indexed": false,
          "internalType": "uint256",
          "name": "oldPeriod",
          "type": "uint256"
        },
        {
          "indexed": false,
          "internalType": "uint256",
          "name": "newPeriod",
          "type": "uint256"
        }
      ],
      "name": "SetSignatureExpiryPeriod",
      "type": "event"
    },
    {
      "inputs": [
        {
          "internalType": "bytes",
          "name": "muonAppCID",
          "type": "bytes"
        }
      ],
      "name": "setMuonAppCID",
      "outputs": [],
      "stateMutability": "nonpayable",
      "type": "function"
    },
    {
      "inputs": [
        {
          "internalType": "uint256",
          "name": "muonAppId",
          "type": "uint256"
        }
      ],
      "name": "setMuonAppId",
      "outputs": [],
      "stateMutability": "nonpayable",
      "type": "function"
    },
    {
      "inputs": [
        {
          "internalType": "address",
          "name": "muonGatewaySigner",
          "type": "address"
        }
      ],
      "name": "setMuonGatewaySigner",
      "outputs": [],
      "stateMutability": "nonpayable",
      "type": "function"
    },
    {
      "inputs": [
        {
          "internalType": "uint256",
          "name": "x",
          "type": "uint256"
        },
        {
          "internalType": "uint8",
          "name": "parity",
          "type": "uint8"
        }
      ],
      "name": "setMuonPublicKey",
      "outputs": [],
      "stateMutability": "nonpayable",
      "type": "function"
    },
    {
      "inputs": [
        {
          "internalType": "uint256",
          "name": "signatureExpiryPeriod",
          "type": "uint256"
        }
      ],
      "name": "setSignatureExpiryPeriod",
      "outputs": [],
      "stateMutability": "nonpayable",
      "type": "function"
    }
  ],
  "transactionHash": "0xa3647a9a38fb6ec3d037644d159919e87ca7571431fd9de469b4d111e1b02ae7",
  "args": [],
  "numDeployments": 2,
  "solcInputHash": "f9a95eeb00b1b63a8958cda7d13f7bdb",
  "bytecode": "0x60808060405234610016576109fe908161001c8239f35b600080fdfe6040608081526004908136101561001557600080fd5b600091823560e01c80631a5636fd1461051457806359e0778c14610480578063d450bf9a1461038b578063e0d8daca146100cb5763ff27e64a1461005857600080fd5b346100c75760203660031901126100c75735610072610584565b7fa16e4f0250703b8e2fb958c977e0b2739a569e1a37698e6fb31e0c101f7430987f156e11c20035a0755dd32af79bf36b9681293cf9eb18b875f4053085931ffdbd8382548151908152846020820152a15551f35b8280fd5b50346100c757602090816003193601126103875780359067ffffffffffffffff9081831161037f573660238401121561037f578201359081116103835760243681838501011161037f5761011d610584565b845186937fa16e4f0250703b8e2fb958c977e0b2739a569e1a37698e6fb31e0c101f7430999586549261014f846109b7565b8082528160019889871685816000146103625750600114610308575b61017792500382610949565b6101df61018c8a51928b84528b84019061096b565b948286038484015287865287878601858801378b8489880101527f5f551b6dde267a8c8c06e97db50191a0e567e9e06f09b11a9416dabbe957246b601f8901938581601f19998a881601030190a16109b7565b90601f82116102ab575b50508892601f8611600114610229575050918394918493899561021c575b5050501b916000199060031b1c191617905551f35b0101359250388080610207565b7f2dba82561a470ee7e5f92ef2928634d782dd29b247d775b38c944adcfb3498109492939186918216908b905b8983831061028f5750505010610273575b50505050811b01905551f35b60001960f88660031b161c199201013516905538808080610267565b8786018701358955909701969384019388935090810190610256565b7f2dba82561a470ee7e5f92ef2928634d782dd29b247d775b38c944adcfb3498109060051c8101918388106102fe575b601f0160051c019087905b8281106102f357506101e9565b8b81550187906102e6565b90915081906102db565b5050888b5281838c8a7f2dba82561a470ee7e5f92ef2928634d782dd29b247d775b38c944adcfb3498105b858310610349575050610177935082010161016b565b80919294505483858801015201910184908a8593610333565b9150506101779260ff19881682840152151560051b82010161016b565b8580fd5b8480fd5b8380fd5b50346100c757816003193601126100c7573560243560ff8116809103610387576103b3610584565b83602084516103c181610917565b828152015282516103d181610917565b7fa16e4f0250703b8e2fb958c977e0b2739a569e1a37698e6fb31e0c101f74309a928354938483527f99063f48ae0d30aa8752738587cd5bd24424cc302d1fe0746b18a916b910bb2560807fa16e4f0250703b8e2fb958c977e0b2739a569e1a37698e6fb31e0c101f74309b96602088549660ff88169182910152895191825260208201528489820152866060820152a1836020875161047081610917565b84815201525560ff191617905551f35b50346100c75760203660031901126100c7576001600160a01b03903581811690819003610387576104af610584565b7fa16e4f0250703b8e2fb958c977e0b2739a569e1a37698e6fb31e0c101f74309c917f1582d99fdbbb9701860724194533dba3b7d65b17e0b32db9faa901e76de1e4158484549281519084168152846020820152a16001600160a01b03191617905551f35b50346100c75760203660031901126100c7573561052f610584565b7fa16e4f0250703b8e2fb958c977e0b2739a569e1a37698e6fb31e0c101f74309d7f8dcd6c1c9ef34226deea2c714abcee0060a7e16c12cda9b4b5cb92b6d3912ec78382548151908152846020820152a15551f35b3360009081527f179938346c9d0d47f15c493beff04da15f2603b3cb62e7f87fb5c030ea789419602090815260408083205490927fa49807205ce4d355092ef5a8a18f56e8913cf4a201fbe287825b095693c217759160ff16156105e85750505050565b83519167ffffffffffffffff903360608501838111868210176108e0578752602a855285850191873684378551156108cc57603083538551916001928310156108b8576078602188015360295b83811161084e575061080c57908751936080850190858210908211176107f8578852604284528684019460603687378451156107e4576030865384518210156107e45790607860218601536041915b8183116107765750505061073457610730938693610714936107056048946106dc9a519a8b957f416363657373436f6e74726f6c3a206163636f756e74200000000000000000008c88015251809260378801906108f4565b8401917001034b99036b4b9b9b4b733903937b6329607d1b6037840152518093868401906108f4565b01036028810187520185610949565b5192839262461bcd60e51b84526004840152602483019061096b565b0390fd5b60648587519062461bcd60e51b825280600483015260248201527f537472696e67733a20686578206c656e67746820696e73756666696369656e746044820152fd5b909192600f811660108110156107d0576f181899199a1a9b1b9c1cb0b131b232b360811b901a6107a68588610990565b5360041c9280156107bc57600019019190610684565b634e487b7160e01b82526011600452602482fd5b634e487b7160e01b83526032600452602483fd5b634e487b7160e01b81526032600452602490fd5b634e487b7160e01b86526041600452602486fd5b60648789519062461bcd60e51b825280600483015260248201527f537472696e67733a20686578206c656e67746820696e73756666696369656e746044820152fd5b90600f811660108110156108a4576f181899199a1a9b1b9c1cb0b131b232b360811b901a61087c838a610990565b5360041c9080156108905760001901610635565b634e487b7160e01b87526011600452602487fd5b634e487b7160e01b88526032600452602488fd5b634e487b7160e01b86526032600452602486fd5b634e487b7160e01b85526032600452602485fd5b634e487b7160e01b85526041600452602485fd5b60005b8381106109075750506000910152565b81810151838201526020016108f7565b6040810190811067ffffffffffffffff82111761093357604052565b634e487b7160e01b600052604160045260246000fd5b90601f8019910116810190811067ffffffffffffffff82111761093357604052565b90602091610984815180928185528580860191016108f4565b601f01601f1916010190565b9081518110156109a1570160200190565b634e487b7160e01b600052603260045260246000fd5b90600182811c921680156109e7575b60208310146109d157565b634e487b7160e01b600052602260045260246000fd5b91607f16916109c656fea164736f6c6343000810000a",
  "devdoc": {
    "kind": "dev",
    "methods": {},
    "version": 1
  },
  "userdoc": {
    "kind": "user",
    "methods": {},
    "version": 1
  },
  "storageLayout": {
    "storage": [],
    "types": null
  }
}