{
  "address": "0xCC6d7769223d30B4205c68A92B462745CDbB1AFE",
  "abi": [
    {
      "anonymous": false,
      "inputs": [
        {
          "indexed": true,
          "internalType": "bytes32",
          "name": "role",
          "type": "bytes32"
        },
        {
          "indexed": true,
          "internalType": "bytes32",
          "name": "previousAdminRole",
          "type": "bytes32"
        },
        {
          "indexed": true,
          "internalType": "bytes32",
          "name": "newAdminRole",
          "type": "bytes32"
        }
      ],
      "name": "RoleAdminChanged",
      "type": "event"
    },
    {
      "anonymous": false,
      "inputs": [
        {
          "indexed": true,
          "internalType": "bytes32",
          "name": "role",
          "type": "bytes32"
        },
        {
          "indexed": true,
          "internalType": "address",
          "name": "account",
          "type": "address"
        },
        {
          "indexed": true,
          "internalType": "address",
          "name": "sender",
          "type": "address"
        }
      ],
      "name": "RoleGranted",
      "type": "event"
    },
    {
      "anonymous": false,
      "inputs": [
        {
          "indexed": true,
          "internalType": "bytes32",
          "name": "role",
          "type": "bytes32"
        },
        {
          "indexed": true,
          "internalType": "address",
          "name": "account",
          "type": "address"
        },
        {
          "indexed": true,
          "internalType": "address",
          "name": "sender",
          "type": "address"
        }
      ],
      "name": "RoleRevoked",
      "type": "event"
    },
    {
      "anonymous": false,
      "inputs": [
        {
          "indexed": false,
          "internalType": "bytes",
          "name": "oldCID",
          "type": "bytes"
        },
        {
          "indexed": false,
          "internalType": "bytes",
          "name": "newCID",
          "type": "bytes"
        }
      ],
      "name": "SetMuonAppCID",
      "type": "event"
    },
    {
      "anonymous": false,
      "inputs": [
        {
          "indexed": false,
          "internalType": "uint256",
          "name": "oldId",
          "type": "uint256"
        },
        {
          "indexed": false,
          "internalType": "uint256",
          "name": "newId",
          "type": "uint256"
        }
      ],
      "name": "SetMuonAppId",
      "type": "event"
    },
    {
      "anonymous": false,
      "inputs": [
        {
          "indexed": false,
          "internalType": "address",
          "name": "oldSigner",
          "type": "address"
        },
        {
          "indexed": false,
          "internalType": "address",
          "name": "newSigner",
          "type": "address"
        }
      ],
      "name": "SetMuonGatewaySigner",
      "type": "event"
    },
    {
      "anonymous": false,
      "inputs": [
        {
          "indexed": false,
          "internalType": "uint256",
          "name": "oldX",
          "type": "uint256"
        },
        {
          "indexed": false,
          "internalType": "uint8",
          "name": "oldParity",
          "type": "uint8"
        },
        {
          "indexed": false,
          "internalType": "uint256",
          "name": "newX",
          "type": "uint256"
        },
        {
          "indexed": false,
          "internalType": "uint8",
          "name": "newParity",
          "type": "uint8"
        }
      ],
      "name": "SetMuonPublicKey",
      "type": "event"
    },
    {
      "inputs": [
        {
          "internalType": "bytes",
          "name": "muonAppCID",
          "type": "bytes"
        }
      ],
      "name": "setMuonAppCID",
      "outputs": [],
      "stateMutability": "nonpayable",
      "type": "function"
    },
    {
      "inputs": [
        {
          "internalType": "uint256",
          "name": "muonAppId",
          "type": "uint256"
        }
      ],
      "name": "setMuonAppId",
      "outputs": [],
      "stateMutability": "nonpayable",
      "type": "function"
    },
    {
      "inputs": [
        {
          "internalType": "address",
          "name": "muonGatewaySigner",
          "type": "address"
        }
      ],
      "name": "setMuonGatewaySigner",
      "outputs": [],
      "stateMutability": "nonpayable",
      "type": "function"
    },
    {
      "inputs": [
        {
          "internalType": "uint256",
          "name": "x",
          "type": "uint256"
        },
        {
          "internalType": "uint8",
          "name": "parity",
          "type": "uint8"
        }
      ],
      "name": "setMuonPublicKey",
      "outputs": [],
      "stateMutability": "nonpayable",
      "type": "function"
    }
  ],
  "transactionHash": "0xf21e939962c907321b0266bdf5933aa5cab0d0b3bfe83b56f037c8ee12d3cdc7",
  "args": [],
  "numDeployments": 1,
  "solcInputHash": "be9232a782139b4a70c2c17c27752f91",
  "bytecode": "0x6080806040523461001657610983908161001c8239f35b600080fdfe6040608081526004908136101561001557600080fd5b600091823560e01c806359e0778c14610475578063d450bf9a14610380578063e0d8daca146100c05763ff27e64a1461004d57600080fd5b346100bc5760203660031901126100bc5735610067610509565b7fa16e4f0250703b8e2fb958c977e0b2739a569e1a37698e6fb31e0c101f7430987f156e11c20035a0755dd32af79bf36b9681293cf9eb18b875f4053085931ffdbd8382548151908152846020820152a15551f35b8280fd5b50346100bc576020908160031936011261037c5780359067ffffffffffffffff908183116103745736602384011215610374578201359081116103785760243681838501011161037457610112610509565b845186937fa16e4f0250703b8e2fb958c977e0b2739a569e1a37698e6fb31e0c101f743099958654926101448461093c565b80825281600198898716858160001461035757506001146102fd575b61016c925003826108ce565b6101d46101818a51928b84528b8401906108f0565b948286038484015287865287878601858801378b8489880101527f5f551b6dde267a8c8c06e97db50191a0e567e9e06f09b11a9416dabbe957246b601f8901938581601f19998a881601030190a161093c565b90601f82116102a0575b50508892601f861160011461021e5750509183949184938995610211575b5050501b916000199060031b1c191617905551f35b01013592503880806101fc565b7f2dba82561a470ee7e5f92ef2928634d782dd29b247d775b38c944adcfb3498109492939186918216908b905b898383106102845750505010610268575b50505050811b01905551f35b60001960f88660031b161c19920101351690553880808061025c565b878601870135895590970196938401938893509081019061024b565b7f2dba82561a470ee7e5f92ef2928634d782dd29b247d775b38c944adcfb3498109060051c8101918388106102f3575b601f0160051c019087905b8281106102e857506101de565b8b81550187906102db565b90915081906102d0565b5050888b5281838c8a7f2dba82561a470ee7e5f92ef2928634d782dd29b247d775b38c944adcfb3498105b85831061033e57505061016c9350820101610160565b80919294505483858801015201910184908a8593610328565b91505061016c9260ff19881682840152151560051b820101610160565b8580fd5b8480fd5b8380fd5b50346100bc57816003193601126100bc573560243560ff811680910361037c576103a8610509565b83602084516103b68161089c565b828152015282516103c68161089c565b7fa16e4f0250703b8e2fb958c977e0b2739a569e1a37698e6fb31e0c101f74309a928354938483527f99063f48ae0d30aa8752738587cd5bd24424cc302d1fe0746b18a916b910bb2560807fa16e4f0250703b8e2fb958c977e0b2739a569e1a37698e6fb31e0c101f74309b96602088549660ff88169182910152895191825260208201528489820152866060820152a183602087516104658161089c565b84815201525560ff191617905551f35b50346100bc5760203660031901126100bc576001600160a01b0390358181169081900361037c576104a4610509565b7fa16e4f0250703b8e2fb958c977e0b2739a569e1a37698e6fb31e0c101f74309c917f1582d99fdbbb9701860724194533dba3b7d65b17e0b32db9faa901e76de1e4158484549281519084168152846020820152a16001600160a01b03191617905551f35b3360009081527f179938346c9d0d47f15c493beff04da15f2603b3cb62e7f87fb5c030ea789419602090815260408083205490927fa49807205ce4d355092ef5a8a18f56e8913cf4a201fbe287825b095693c217759160ff161561056d5750505050565b83519167ffffffffffffffff90336060850183811186821017610865578752602a85528585019187368437855115610851576030835385519160019283101561083d576078602188015360295b8381116107d35750610791579087519360808501908582109082111761077d57885260428452868401946060368737845115610769576030865384518210156107695790607860218601536041915b8183116106fb575050506106b9576106b59386936106999361068a6048946106619a519a8b957f416363657373436f6e74726f6c3a206163636f756e74200000000000000000008c8801525180926037880190610879565b8401917001034b99036b4b9b9b4b733903937b6329607d1b603784015251809386840190610879565b010360288101875201856108ce565b5192839262461bcd60e51b8452600484015260248301906108f0565b0390fd5b60648587519062461bcd60e51b825280600483015260248201527f537472696e67733a20686578206c656e67746820696e73756666696369656e746044820152fd5b909192600f81166010811015610755576f181899199a1a9b1b9c1cb0b131b232b360811b901a61072b8588610915565b5360041c92801561074157600019019190610609565b634e487b7160e01b82526011600452602482fd5b634e487b7160e01b83526032600452602483fd5b634e487b7160e01b81526032600452602490fd5b634e487b7160e01b86526041600452602486fd5b60648789519062461bcd60e51b825280600483015260248201527f537472696e67733a20686578206c656e67746820696e73756666696369656e746044820152fd5b90600f81166010811015610829576f181899199a1a9b1b9c1cb0b131b232b360811b901a610801838a610915565b5360041c90801561081557600019016105ba565b634e487b7160e01b87526011600452602487fd5b634e487b7160e01b88526032600452602488fd5b634e487b7160e01b86526032600452602486fd5b634e487b7160e01b85526032600452602485fd5b634e487b7160e01b85526041600452602485fd5b60005b83811061088c5750506000910152565b818101518382015260200161087c565b6040810190811067ffffffffffffffff8211176108b857604052565b634e487b7160e01b600052604160045260246000fd5b90601f8019910116810190811067ffffffffffffffff8211176108b857604052565b9060209161090981518092818552858086019101610879565b601f01601f1916010190565b908151811015610926570160200190565b634e487b7160e01b600052603260045260246000fd5b90600182811c9216801561096c575b602083101461095657565b634e487b7160e01b600052602260045260246000fd5b91607f169161094b56fea164736f6c6343000810000a",
  "devdoc": {
    "kind": "dev",
    "methods": {},
    "version": 1
  },
  "userdoc": {
    "kind": "user",
    "methods": {},
    "version": 1
  },
  "storageLayout": {
    "storage": [],
    "types": null
  }
}