{
  "address": "0x14EF3a9EB49bb184688F2Aa6d24D2De414a05bcB",
  "abi": [
    {
      "anonymous": false,
      "inputs": [
        {
          "indexed": true,
          "internalType": "address",
          "name": "previousOwner",
          "type": "address"
        },
        {
          "indexed": true,
          "internalType": "address",
          "name": "newOwner",
          "type": "address"
        }
      ],
      "name": "OwnershipTransferred",
      "type": "event"
    },
    {
      "inputs": [],
      "name": "owner",
      "outputs": [
        {
          "internalType": "address",
          "name": "",
          "type": "address"
        }
      ],
      "stateMutability": "view",
      "type": "function"
    },
    {
      "inputs": [],
      "name": "renounceOwnership",
      "outputs": [],
      "stateMutability": "nonpayable",
      "type": "function"
    },
    {
      "inputs": [
        {
          "internalType": "address",
          "name": "account",
          "type": "address"
        }
      ],
      "name": "transferOwnership",
      "outputs": [],
      "stateMutability": "nonpayable",
      "type": "function"
    }
  ],
  "transactionHash": "0x852c2f5b23f111b4e1b7b51447fb628a30bde03f166bd6ddce8ccd0aeb5845c8",
  "args": [],
  "numDeployments": 1,
  "solcInputHash": "41fcbcd5b361b708382de1dfb0ea216f",
  "bytecode": "0x60808060405234610016576101f6908161001c8239f35b600080fdfe6080604052600436101561001257600080fd5b6000803560e01c8063715018a61461011e5780638da5cb5b146100d65763f2fde38b1461003e57600080fd5b346100d35760203660031901126100d3576004356001600160a01b03818116918290036100cf57817fa7222481f8aff9c0b8c2a969dffbd3c91ebd3e9fb5b7b31128200b05480e8ab3916100978354918216331461019d565b6001600160a01b03191617905560405190337f8be0079c531659141344cd1fd0a4f28419497f9722a3daafe3b4186f6b6457e08484a3f35b8280fd5b80fd5b50346100d357806003193601126100d3577fa7222481f8aff9c0b8c2a969dffbd3c91ebd3e9fb5b7b31128200b05480e8ab3546040516001600160a01b039091168152602090f35b50346100d357806003193601126100d3577fa7222481f8aff9c0b8c2a969dffbd3c91ebd3e9fb5b7b31128200b05480e8ab38054610166336001600160a01b0383161461019d565b6001600160a01b031916905560405181337f8be0079c531659141344cd1fd0a4f28419497f9722a3daafe3b4186f6b6457e08284a3f35b156101a457565b60405162461bcd60e51b815260206004820152601d60248201527f4f776e61626c653a2073656e646572206d757374206265206f776e65720000006044820152606490fdfea164736f6c6343000810000a",
  "devdoc": {
    "kind": "dev",
    "methods": {
      "owner()": {
        "returns": {
          "_0": "contract owner"
        }
      },
      "renounceOwnership()": {
        "details": "Leaves the contract without owner. It will not be possible to call `onlyOwner` functions anymore. Can only be called by the current owner. NOTE: Renouncing ownership will leave the contract without an owner, thereby removing any functionality that is only available to the owner."
      },
      "transferOwnership(address)": {
        "params": {
          "account": "address of new owner"
        }
      }
    },
    "version": 1
  },
  "userdoc": {
    "kind": "user",
    "methods": {
      "owner()": {
        "notice": "get the ERC173 contract owner"
      },
      "transferOwnership(address)": {
        "notice": "transfer contract ownership to new account"
      }
    },
    "version": 1
  },
  "storageLayout": {
    "storage": [],
    "types": null
  }
}