{
  "address": "0x2170F065634daA564fC079519A7676697D54E4a6",
  "abi": [
    {
      "anonymous": false,
      "inputs": [
        {
          "indexed": false,
          "internalType": "uint256",
          "name": "timestamp",
          "type": "uint256"
        }
      ],
      "name": "Pause",
      "type": "event"
    },
    {
      "anonymous": false,
      "inputs": [
        {
          "indexed": true,
          "internalType": "bytes32",
          "name": "role",
          "type": "bytes32"
        },
        {
          "indexed": true,
          "internalType": "bytes32",
          "name": "previousAdminRole",
          "type": "bytes32"
        },
        {
          "indexed": true,
          "internalType": "bytes32",
          "name": "newAdminRole",
          "type": "bytes32"
        }
      ],
      "name": "RoleAdminChanged",
      "type": "event"
    },
    {
      "anonymous": false,
      "inputs": [
        {
          "indexed": true,
          "internalType": "bytes32",
          "name": "role",
          "type": "bytes32"
        },
        {
          "indexed": true,
          "internalType": "address",
          "name": "account",
          "type": "address"
        },
        {
          "indexed": true,
          "internalType": "address",
          "name": "sender",
          "type": "address"
        }
      ],
      "name": "RoleGranted",
      "type": "event"
    },
    {
      "anonymous": false,
      "inputs": [
        {
          "indexed": true,
          "internalType": "bytes32",
          "name": "role",
          "type": "bytes32"
        },
        {
          "indexed": true,
          "internalType": "address",
          "name": "account",
          "type": "address"
        },
        {
          "indexed": true,
          "internalType": "address",
          "name": "sender",
          "type": "address"
        }
      ],
      "name": "RoleRevoked",
      "type": "event"
    },
    {
      "anonymous": false,
      "inputs": [
        {
          "indexed": false,
          "internalType": "uint256",
          "name": "timestamp",
          "type": "uint256"
        }
      ],
      "name": "Unpause",
      "type": "event"
    },
    {
      "inputs": [],
      "name": "pause",
      "outputs": [],
      "stateMutability": "nonpayable",
      "type": "function"
    },
    {
      "inputs": [],
      "name": "unpause",
      "outputs": [],
      "stateMutability": "nonpayable",
      "type": "function"
    }
  ],
  "transactionHash": "0xfe5de73648b2bf34514f33af7fec70d6a381f8d98ee67508c4a63b92da176ad9",
  "args": [],
  "numDeployments": 1,
  "solcInputHash": "be9232a782139b4a70c2c17c27752f91",
  "bytecode": "0x6080806040523461001657610584908161001c8239f35b600080fdfe604060808152600436101561001357600080fd5b600090813560e01c80633f4ba83a1461011857638456cb591461003557600080fd5b3461011457816003193601126101145761004d6101c8565b7f20d51a9f474d6dbe37e65374441f01e6e8688bd8862e0fcc21e9aca15edd7bd1805460ff81166100d75760019070ffffffffffffffffffffffffffffffff004260081b169070ffffffffffffffffffffffffffffffffff1916171790557f68b095021b1f40fe513109f513c66692f0b3219aee674a69f4efc57badb8201d60208251428152a151f35b825162461bcd60e51b81526020600482015260166024820152752830bab9b29d1030b63932b0b23c903830bab9b2b21760511b6044820152606490fd5b5080fd5b50346101145781600319360112610114576101316101c8565b7f20d51a9f474d6dbe37e65374441f01e6e8688bd8862e0fcc21e9aca15edd7bd1805460ff81161561018f5760ff191690557faaa520fdd7d2c83061d632fa017b0432407e798818af63ea908589fceda39ab760208251428152a151f35b825162461bcd60e51b81526020600482015260126024820152712830bab9b29d103737ba103830bab9b2b21760711b6044820152606490fd5b3360009081527f179938346c9d0d47f15c493beff04da15f2603b3cb62e7f87fb5c030ea78941960209081526040808320549092917fa49807205ce4d355092ef5a8a18f56e8913cf4a201fbe287825b095693c217759160ff161561022d5750505050565b835167ffffffffffffffff939092336060850186811186821017610519578752602a8552838501918736843785511561050557603083538551916001928310156104f1576078602188015360295b83811161048757506103b15787519060808201828110898211176104735789526042825285820192606036853782511561045f5760308453825181101561045f57607860218401536041905b8082116103f35750506103b157916103469493918893606798995196879361031c8886019a7f416363657373436f6e74726f6c3a206163636f756e74200000000000000000008c52518092603788019061052d565b8401917001034b99036b4b9b9b4b733903937b6329607d1b6037840152518093604884019061052d565b0103602881018552601f1996879101168401968488109088111761039d57509261039460449593601f938880975262461bcd60e51b875260048701525180928160248801528787019061052d565b01168101030190fd5b634e487b7160e01b81526041600452602490fd5b60648589519062461bcd60e51b825280600483015260248201527f537472696e67733a20686578206c656e67746820696e73756666696369656e746044820152fd5b9091600f8116601081101561044b576f181899199a1a9b1b9c1cb0b131b232b360811b901a6104228486610550565b5360041c9180156104375760001901906102c7565b634e487b7160e01b87526011600452602487fd5b634e487b7160e01b88526032600452602488fd5b634e487b7160e01b86526032600452602486fd5b634e487b7160e01b86526041600452602486fd5b90600f811660108110156104dd576f181899199a1a9b1b9c1cb0b131b232b360811b901a6104b5838a610550565b5360041c9080156104c9576000190161027b565b634e487b7160e01b86526011600452602486fd5b634e487b7160e01b87526032600452602487fd5b634e487b7160e01b85526032600452602485fd5b634e487b7160e01b84526032600452602484fd5b634e487b7160e01b84526041600452602484fd5b60005b8381106105405750506000910152565b8181015183820152602001610530565b908151811015610561570160200190565b634e487b7160e01b600052603260045260246000fdfea164736f6c6343000810000a",
  "devdoc": {
    "kind": "dev",
    "methods": {},
    "version": 1
  },
  "userdoc": {
    "kind": "user",
    "methods": {},
    "version": 1
  },
  "storageLayout": {
    "storage": [],
    "types": null
  }
}